:020000000C945E
:100002003F0D0C941D1A0C9400000C9400000C94EB
:1000120000000C9400000C9400000C9400000C945E
:1000220000000C942E1A0C9400000C9400000C9406
:1000320000000C9400000C9400000C9400000C943E
:1000420000000C9400000C9400000C94211D0C94F0
:10005200000000000000000000000000000000009E
:10006200000000000000000000000000000000008E
:100072000000000000000000000C000C000C000C4E
:10008200000C000C000C000C000C000C000C00001A
:10009200000C000C0000000000000000001B001B10
:1000A200001B001B001B00000000000000000000FD
:1000B200000000000000000000000000000000003E
:1000C2008019801980198019C07FC07F8019003380
:1000D200C07FC07F003300330033003300000000D4
:1000E20000000000001E003F807580650074003C27
:1000F200001E00078005806580658075003F001E38
:100102000004000400000000007000D840D8C0D8ED
:1001120080D900730006000C801BC036C066C04642
:10012200C00680030000000000000000001E003F27
:10013200003300330033001E000CC03CC0668063F5
:1001420080618063C03E801C00000000000000004F
:10015200000C000C000C000C000C00000000000061
:10016200000000000000000000000000000000008D
:100172000000800000010003000600060004000CDD
:10018200000C000C000C000C000C00040006000621
:10019200000300018000002000100018000C000C79
:1001A2000004000600060006000600060006000421
:1001B200000C000C0018001000200000000C002DA4
:1001C200003F001E0033000000000000000000009D
:1001D200000000000000000000000000000000001D
:1001E20000000000000C000C000C000CC0FFC0FF5F
:1001F200000C000C000C000C0000000000000000CD
:1002020000000000000000000000000000000000EC
:10021200000000000000000000000000000C000CC4
:1002220000040004000800000000000000000000BC
:100232000000000000000000001E001E0000000080
:1002420000000000000000000000000000000000AC
:10025200000000000000000000000000000000009C
:1002620000000000000C000C000000000000000074
:100272000003000300030006000600060006000C4F
:10028200000C000C000C0018001800180000000000
:1002920000000000001E003F003380618061806129
:1002A200806D806D8061806180610033003F001E3F
:1002B20000000000000000000006000E001E0036D4
:1002C20000260006000600060006000600060006DC
:1002D200000600060000000000000000001E003FB3
:1002E200807380618061800100030006000C0018A9
:1002F20000300060807F807F00000000000000006E
:10030200001C003E006300630003000E000E0003A9
:100312008001800180618073003F001E00000000A8
:10032200000000000006000E000E001E001E001657
:10033200003600360066807F807F000600060006D9
:100342000000000000000000007F007F00600060ED
:100352000060006E007F8063800180018061807395
:10036200003F001E0000000000000000001E003FD1
:10037200803380610060006E007F807380618061E5
:1003820080618033003F001E00000000000000007A
:10039200807F807F80010003000300060006000CBE
:1003A200000C000C000800180018001800000000E3
:1003B20000000000001E003F806380618061002118
:1003C200001E003F8061806180618061003F001EED
:1003D2000000000000000000001E003F007380616A
:1003E200806180618073803F801D80018061007325
:1003F200003F001E0000000000000000000000009E
:1004020000000000000C000C0000000000000000D2
:1004120000000000000C000C0000000000000000C2
:1004220000000000000000000000000C000C0000B2
:100432000000000000000000000C000C000400049A
:100442000008000000000000000080008003000E91
:10045200003800600038000E8003800000000000B9
:10046200000000000000000000000000000000008A
:10047200807F807F00000000807F807F000000007E
:10048200000000000000000000000000000000006A
:10049200000000400070001C000780010007001CE3
:1004A200007000400000000000000000000000009A
:1004B200001F803FC071C060C000C0018003000700
:1004C200000E000C000C0000000C000C00000000EC
:1004D20000000000001E003F803180718063806F49
:1004E200806D806D806F806700600032003E001C6E
:1004F2000000000000000000000E000E001B001BA8
:10050200001B001B80318031803F803F8031C06002
:10051200C060C0600000000000000000007C007E9F
:100522000063006300630063007E007E00638061FD
:1005320080618063007F007E0000000000000000F8
:10054200001E003F8031806100600060006000603A
:100552000060006080618031003F001E00000000EA
:1005620000000000007C007F006380638061806186
:10057200806180618061806100630063007E007C35
:100582000000000000000000807F807F00600060AB
:1005920000600060007F007F00600060006000601B
:1005A200807F807F0000000000000000807F807F4D
:1005B2000060006000600060007F007F00600060FB
:1005C20000600060006000600000000000000000A9
:1005D200001E003F80318061006000600060806327
:1005E2008063806180618031803F001E00000000D6
:1005F20000000000806180618061806180618061B3
:10060200807F807F806180618061806180618061A4
:100612000000000000000000003F003F000C000C42
:10062200000C000C000C000C000C000C000C000C68
:10063200003F003F00000000000000008001800138
:100642008001800180018001800180018001806140
:1006520080618073003F001E000000000000000067
:10066200C0608061006300660066006C0078007CF8
:1006720000660066006380618061C0600000000067
:100682000000000000600060006000600060006028
:10069200006000600060006000600060807F807F1A
:1006A2000000000000000000C071C071C07BC07A71
:1006B200C06AC06AC06EC064C060C060C060C06012
:1006C200C060C06000000000000000008071807106
:1006D200807980798079806D806D806D806580679A
:1006E2008067806780638063000000000000000074
:1006F200001E003F00338061806180618061806103
:100702008061806180610033003F001E00000000B4
:1007120000000000007E007F806380618061806154
:100722008063007F007E0060006000600060006007
:100732000000000000000000001E003F0033806146
:100742008061806180618061806180658067003343
:10075200803F401E0000000000000000007E007F7D
:100762008063806180618063007F007E0066006339
:10077200006380618061C060000000000000000032
:10078200000E001F8031803100300038001E00074B
:100792008003806180618031003F001E0000000004
:1007A20000000000C0FFC0FF000C000C000C000C99
:1007B200000C000C000C000C000C000C000C000CD7
:1007C20000000000000000008061806180618061A3
:1007D20080618061806180618061806180618073FD
:1007E200003F001E0000000000000000C060C0606A
:1007F200C060803180318031001B001B001B001B58
:10080200000E000E000E00040000000000000000B8
:10081200C0C0C0C0C0C0C0C0C0C0C0CC804C804C32
:10082200805E80528052807380618061000000008F
:1008320000000000C0C0806080610033003B001EE9
:10084200000C000C001E001F003B80718061C0C0C4
:100852000000000000000000C0C080618061003321
:100862000033001E001E000C000C000C000C000CDB
:10087200000C000C0000000000000000803F803FE0
:100882008001000300030006000C000C0018001891
:1008920000300060807F807F000000000000000FB9
:1008A200000F000C000C000C000C000C000C000CE3
:1008B200000C000C000C000C000C000C000C000FD3
:1008C200000F0000001800180018000C000C000CAB
:1008D200000C0006000600060006000300030003E9
:1008E200000000000000001E001E000600060006B8
:1008F20000060006000600060006000600060006C6
:10090200000600060006001E001E0000000C000C7F
:10091200001E00120033003380618061000000007D
:1009220000000000000000000000000000000000C5
:1009320000000000000000000000000000000000B5
:100942000000000000000000000000000000E0FFC6
:100952000000000000380018000C00000000000039
:100962000000000000000000000000000000000085
:100972000000000000000000000000000000000075
:10098200001F803F80618001801F803F8061806303
:10099200807FC0380000000000000000006000609E
:1009A20000600060006E007F807380618061806102
:1009B20080618073007F006E000000000000000074
:1009C2000000000000000000001E003F80738061F4
:1009D2000060006080618073003F001E0000000024
:1009E200000000008001800180018001801D803FA5
:1009F200807380618061806180618073803F801D2F
:100A020000000000000000000000000000000000E4
:100A1200001E003F00738061807F807F00608071D4
:100A2200003F001E0000000000000000C007C00FD1
:100A3200000C000C807F807F000C000C000C000C6E
:100A4200000C000C000C000C000000000000000074
:100A5200000000000000801D803F80738061806183
:100A6200806180618073803F801D80018063007F90
:100A7200003E00000060006000600060006F807F48
:100A8200807180618061806180618061806180614C
:100A92000000000000000000000600060000000048
:100AA200003E003E000600060006000600060006A4
:100AB200000600060000000000000006000600001C
:100AC2000000003E003E000600060006000600068A
:100AD20000060006000600060046007E003C0000FC
:100AE2000060006000600060806100630066006C6E
:100AF200007C0076006300638061C060000000003B
:100B020000000000003E003E00060006000600064F
:100B120000060006000600060006000600060006A3
:100B220000000000000000000000000000000000C3
:100B320080DDC0FFC0CEC0CCC0CCC0CCC0CCC0CC4D
:100B4200C0CCC0CC0000000000000000000000008B
:100B520000000000006F807F807180618061806191
:100B620080618061806180610000000000000000FF
:100B72000000000000000000001E003F8073806142
:100B82008061806180618073003F001E0000000070
:100B920000000000000000000000006E007F807373
:100BA20080618061806180618073007F006E00607F
:100BB2000060006000600000000000000000801D76
:100BC200803F807380618061806180618073803F3B
:100BD200801D800180018001800100000000000072
:100BE200000000000067803F003900300030003014
:100BF2000030003000300030000000000000000033
:100C02000000000000000000001E803F80610060C4
:100C1200007F803F80018061007F001E0000000095
:100C2200000000000000000800180018007F007F8C
:100C3200001800180018001800180018801F800FF4
:100C420000000000000000000000000000000000A2
:100C52008061806180618061806180618061806388
:100C6200807F803D000000000000000000000000C6
:100C720000000000C060803180318031001B001B09
:100C8200001B000E000E0006000000000000000025
:100C9200000000000000000080DD80DD80DD0055E6
:100CA2000055005500770077002200220000000066
:100CB200000000000000000000000000806100331E
:100CC2000033001E000C000C001E00330033806154
:100CD2000000000000000000000000000000806131
:100CE2008061803100330033001B001B001B000EAB
:100CF200000E000E001C007C0070000000000000CE
:100D020000000000C07FC07F800100030006000CCD
:100D120000180030C07FC07F000000000000800388
:100D2200800700060006000600060006000E001CF2
:100D3200001C000E000600060006000600068007E2
:100D420080030006000600060006000600060006F4
:100D52000006000600060006000600060006000661
:100D62000006000600060038003C000C000C000CD7
:100D7200000C000C000E00070007000E000C000C17
:100D8200000C000C000C003C0038000000000000C9
:100D920000000000000000008038807F0047000053
:100DA2000000000000000000000000000000000041
:100DB200000E000E001B001B001B001B8031803147
:100DC200803F803F8031C060C060C0600000000092
:100DD20000000000007F007F006000600060006093
:100DE200007E007E0063806180618063007F007C02
:100DF2000000000000000000007C007E0063006331
:100E020000630063007E007E006380618061806316
:100E1200007F007E0000000000000000007F007FD5
:100E220000600060006000600060006000600060C0
:100E32000060006000600060000000000000000030
:100E4200803F803F803180318031803180318031FC
:100E52008031803180318031E0FFE0FF60C00000EE
:100E620000000000807F807F006000600060006002
:100E7200007F007F0060006000600060807F807FF4
:100E8200000000000000000060C4C064C06480353F
:100E92008035001F001F001F001F80358035C06491
:100EA200C06460C40000000000000000003C007E3E
:100EB2000003000300030003007E007E00038001A4
:100EC20080018003007F003E00000000000000005F
:100ED200806180618061806180638067806F807DD6
:100EE2008079807180618061806180610000000092
:100EF2000000000C806D806180618061806380678A
:100F0200806F807D80798071806180618061806185
:100F12000000000000000000C06080610063006605
:100F22000066006C0078007C0066006600638061E9
:100F32008061C0600000000000000000C03FC03FB0
:100F4200C030C030C030C030C030C030C030C0301F
:100F5200C030C030C0F0C0F000000000000000004F
:100F6200C071C071C07BC07AC06AC06AC06EC06402
:100F7200C060C060C060C060C060C06000000000AF
:100F82000000000080618061806180618061806119
:100F9200807F807F8061806180618061806180610B
:100FA2000000000000000000001E003F00338061CE
:100FB20080618061806180618061806180610033D5
:100FC200003F001E0000000000000000C07FC07F44
:100FD200C060C060C060C060C060C060C060C0600F
:100FE200C060C060C060C06000000000000000007F
:100FF200007E007F80638061806180618063007F0A
:10100200007E006000600060006000600000000080
:1010120000000000001E003F80318061006000601F
:10102200006000600060006080618031003F001E4F
:101032000000000000000000C0FFC0FF000C000C18
:10104200000C000C000C000C000C000C000C000C3E
:10105200000C000C0000000000000000C0C0806115
:10106200806100330033001F001E000E000E000CD2
:10107200001C0038007000E00000000000000000CA
:101082000004001F8035C064C06460C460C4C064D2
:10109200C0648035001F000400040004000000004A
:1010A20000000000C0C0806080610033003B001E71
:1010B200000C000C001E001F003B80718061C0C04C
:1010C2000000000000000000C060C060C060C0609E
:1010D200C060C060C060C060C060C060C060C0600E
:1010E200C07FC07F600060000000000080618061FE
:1010F2008061806180618061807F803F80018001AA
:1011020080018001C001C001000000000000000059
:10111200C0CCC0CCC0CCC0CCC0CCC0CCC0CCC0CC6D
:10112200C0CCC0CCC0CCC0CCC0FFC0FF000000000F
:1011320000000000C0CCC0CCC0CCC0CCC0CCC0CC65
:10114200C0CCC0CCC0CCC0CCC0CCC0CCC0FFC0FFD7
:101152006000600000000000003F003F000C000C37
:10116200000C000C000C000C000C000C000C000C1D
:10117200003F003F0000000000000000003F003F71
:10118200000C000C000C000C000C000C000C000CFD
:10119200000C000C003F003F0000000000000000B7
:1011A2000030003000300030003C003F003380311E
:1011B200C030C030C0318033003F003E000000002C
:1011C200000000000078001E0007800380018001FB
:1011D200807F807F8001800180030007001E0078ED
:1011E200000000000000000000C780CD80CDC0D804
:1011F200C0D8C0F0C0F0C0F0C0D8C0D8C0CC80CD3C
:1012020080CD00C70000000000000000801F807F2A
:10121200806180C180C180C18061807F801F800F1A
:1012220080198031806180C1000000000000000050
:101232000000000000000000001F803F806180016C
:10124200801F803F80618063807FC0380000000083
:10125200000000000000000000000001003F007FCD
:101262000060007E007F806180618061007F003EBF
:10127200000000000000000000000000000000006C
:10128200003E007F0061007E007F8061806180619E
:10129200007F003E0000000000000000000000008F
:1012A20000000000007F007F0060006000600060BE
:1012B20000600060006000600000000000000000AC
:1012C2000000000000000000807F807F806180615C
:1012D20080618061806180618061C0FFC0FFC0C0A9
:1012E200000000000000000000000000001E003F9F
:1012F20000738061807F807F00608071003F001EEC
:1013020000000000000000000000000000000000DB
:1013120060C4C0648035001F000E001F8035C064A9
:1013220060C42084000000000000000000000000F3
:1013320000000000003E003F0001003E003F80012F
:1013420080018001003F003E00000000000000001C
:101352000000000000000000806180618061806305
:101362008067806D807980718061806100000000FB
:101372000000000000000000000C000C8061806191
:10138200806180638067806D807980718061806117
:10139200000000000000000000000000000000004B
:1013A200806100630066006C007C0076006300636D
:1013B2008061C0600000000000000000000000002A
:1013C20000000000803F803F8031803180318031D9
:1013D2008031803180F180F10000000000000000C7
:1013E200000000000000000060C0E0E0E0F160DB0F
:1013F20060CE60C460C460C060C060C00000000015
:101402000000000000000000000000008061806118
:1014120080618061807F807F806180618061806186
:1014220000000000000000000000000000000000BA
:10143200001E003F807380618061806180618073E3
:10144200003F001E0000000000000000000000003D
:1014520000000000807F807F806180618061806108
:1014620080618061806180610000000000000000F6
:10147200000000000000006E007F807380618061C8
:10148200806180618073007F006E00600060006098
:10149200006000000000000000000000001E003F8D
:1014A200807380610060006080618073003F001E75
:1014B200000000000000000000000000000000002A
:1014C200807F807F000C000C000C000C000C000CD4
:1014D200000C000C000000000000000000000000F2
:1014E20000000000C060C06080318019000F00075A
:1014F2000006000E000C0038000000000000000092
:101502000000000000000000000C807FC0CC408C76
:10151200408CC0CC807F000C000C000C000000004E
:1015220000000000000000000000000080610033A5
:101532000033001E000C000C001E003300338061DB
:101542000000000000000000000000000000000099
:101552008061806180618061806180618061806181
:10156200807F807F800100000000000000000000FA
:10157200000000008061806180618061807F807FE7
:1015820080018001C001C0010000000000000000D5
:101592000000000000000000C0CCC0CCC0CCC0CC19
:1015A200C0CCC0CCC0CCC0CCC0FFC0FF000000008B
:1015B200000000000000000000000000C0CCC0CC11
:1015C200C0CCC0CCC0CCC0CCC0CCC0CCC0FFE0FF33
:1015D200600000000000000000060006000000009D
:1015E200003E003E00060006000600060006000659
:1015F20000060006000000000000000000060006D1
:1016020000000000003E003E000600060006000644
:1016120000060006000600060000000000000000B0
:101622000000000000000000006000600060006E2A
:10163200007F806380618063007F006E0000000095
:10164200000000000000000000000000001E003F3B
:1016520080038001803F803F80018003003F001EA5
:101662000000000000000000000000000000000078
:1016720000C380C7C0CC60D860F860F860D8E0CC06
:1016820080C700C30000000000000000000000004E
:1016920000000000801F80318061806180618031A4
:1016A200801F800780198061000000000000102761
:1016B200E80364000A0001000010000110000100AC
:1016C2000000320002020202FFFFC607C607081727
:1016D20014171E1725172F173C1744174C175417AA
:1016E2005A1762176B177417781783178F17991782
:1016F200A017A717AC17B117B717FF1E5AFF0202A0
:1017020002020B125400D2E5ECEFE5F0E0F2F3F046
:10171200E000C2EBE0E6EDEEF1F2FC00D2E0E9EC33
:10172200E5F000CDE0F1F2F0EEE9EAE800C2F0E522
:10173200ECFF20E820C4E0F2E000C7E0E4E0EDE8DE
:10174200E500CEF2EAEBEEED2E00C3E8F1F2E5F0B1
:101752002E00D0E5E6E8EC00C2EAEBFEF7E5ED008C
:10176200C2FBEAEBFEF7E5ED00D0E0E7ECE5F0EDD9
:101772002E00D8E0E300CAEEF0E5EAF6E8FF20D258
:1017820000CAEEF0E5EAF6E8FF20C2EB00C4E0F2A0
:10179200F7E8EA20C2EB00D0E5E7E5F0E200ECE88A
:1017A200EDF3F2FB00F7E0F1FB00E4E5EDFC00EC09
:1017B200E5F1FFF600E3EEE4002D002B00C2DBCFE3
:1017C200CECBCDDFDE2020C7C0CFC8D1DC00CFEE2C
:1017D200E2FBF2F0FF00C3F0F3EDF200D3EFF0E032
:1017E200E2EB00CDE0EBE0F8F200253032783A256A
:1017F200303278202020253032782E253032782E53
:1018020032302530327800CFEEECE8EBEAE020F718
:10181200E0F1FBE221005B2532752E25755D00F2B9
:10182200E5ECEFE5F0E0F2F3F0E0002A2A2E2A00E0
:101832002532752E2575005B25337525255D00E261
:10184200EEEBEEE3FBF1F2FC002A2A2A2525002525
:10185200337525252000434F3220EFEEECE8EBEA0A
:10186200E020ECEEE4F3EBFF2100434F3220202096
:101872002534750070706D00434F3220ECEEE4F3B6
:10188200EBFC20E2FBE4F1F3F2EDFBE92E00F0CDFC
:1018920020EFEEECE8EBEAE020ECEEE4F3EBFF21E4
:1018A20000F0CD2020202532752E257500EEE4E8CB
:1018B200EDE8F6FC00F0CD2020ECEEE4F3EBFC20AA
:1018C200E2FBE4F1F3F2EDFBE92E00D1D2C0CD2030
:1018D200C3D0D3CDD2D300E4E0F2F7E8EA202575F5
:1018E20000D1D2C0CD20D3CFD0C0C2CBDBCDCDDF93
:1018F20000D0C5CBC520204E25753A2000C0C2D2EB
:10190200004F4E20004F464600582534753B205963
:1019120025347500693D25327500693D2532753BD8
:1019220020783D25326900C2C8D5DBC4204E25751A
:101932003A2000D0D3D7002025337525252000C7B3
:10194200C0C4C0CDC8DF20D4C0C7DB202575007756
:1019520077772E6772617669746F6E2E636F6D2E64
:10196200756100D0EEE7F3ECEDE000F2E5EFEBE8B5
:10197200F6FF00C4E0F2F7E8EAFBE220F2E5ECEF62
:10198200E5F0E0F2F3F0E820257500C4E0F2F7E8B4
:10199200EA20E2EEEBEEE3EEF1F2FB202575000029
:1019A200070001002D4E414E00494E460000020044
:1019B2000200C21601007103C4160400BF03C6165A
:1019C2000200C703CA160200C903CC160200CD03E7
:1019D200CE160400F703FC160400FB0300170400F4
:1019E2006303041702006002BB1702006202BD1704
:1019F20011006402BF1711007502BF1711008602A1
:101A0200BF170C00970221180A00A3024118140004
:101A1200AD0258180400C10276181600C5027A18E1
:101A22001300DB0290180800EE02AF181600F6024F
:101A3200B7180C000C03CD1810001803E3180400AB
:101A42002803FF1804002C030319040030030719AC
:101A520004003403FF1804003803351914003C0352
:101A62005119080050036519080058036D19010047
:101A72006203A21901006C04A4190000F894EE2775
:101A8200ECBBF1E0FBBFEBBFE5BF8DE0A2E0BB2703
:101A9200ED938A95E9F780E098E0A0E6ED9301974F
:101AA200E9F7E0EBF9E185919591009761F0A59155
:101AB200B59105901590BF01F00105900D92019727
:101AC200E1F7FB01F0CFEFE5EDBFE8E0EEBFC0E6E6
:101AD200D2E00C94351A0E94BA1EDC98DD98DF9A87
:101AE200DE98000005C00E94BA1EDD9ADE98000052
:101AF200DE9A21960895BA93AA93AAE203C0BA93F2
:101B0200AA93ABE2E8DF0E94CA1E0E94D11EDC9AB1
:101B120024960895BA93AA930E94D81EAC81BD81DF
:101B2200EADFEC81FD81FA93EA93AA81BB810E94EC
:101B3200DD1E28960895BA93AA93A885B985A03484
:101B4200E1E0BE0730F4AE81BF81A03FE0E0BE0716
:101B520008F0AEC00E94E21EAE0FBF1F1197A03464
:101B6200E1E0BE0740F0A885B985E0E4F1E0EA1BB8
:101B7200FB0BEC83FD83EA81FB81AE81BF81AE0F5B
:101B8200BF1F1197A03FE0E0BE0740F0AE81BF81CA
:101B9200E0EFF0E0EA1BFB0BEA83FB830E94E71E07
:101BA2000E94E71E0E94EC1EBA93AA930E94EC1EAA
:101BB200B1DFEA81FB81EE83FF83AE81BF810E94A8
:101BC200A523B8F4EC81FD81E887F987A885B9855A
:101BD2000E94A52340F40E94D11EE885F985319721
:101BE200E887F987F3CFEE81FF813197EE83FF8398
:101BF200E4CF5EC00E94F41EEE81FF81AA85BB8500
:101C0200AE0FBF1F78DF0E94D81EA885B9850E943B
:101C1200DD1E00E010E0EC81FD810E171F0728F4A5
:101C22000E94CA1E0F5F1F4FF6CFDC9A19810881EE
:101C32003FC00E94F41EAA85BB855DDF0E94D81EAC
:101C4200EE81FF81A885B985AE0FBF1F0E94DD1E00
:101C520000E010E0EC81FD810E171F0728F40E94BE
:101C6200CA1E0F5F1F4FF6CFDC9A1981088120C070
:101C7200BA93AA930E94E71E0E94E71E0E94E71EE3
:101C82000E94F91E0E94E21E0E94FE1E0E94F91E80
:101C92000E94E71E0E94D81EAE81BF81CADF0E9449
:101CA200E21E0E94FE1E0E94D81EAE81BF81C1DFCD
:101CB2002A960895AA932C97E0E0E887E987EA87B5
:101CC200EB87EA89A885B9858A859B85FF276627E0
:101CD20077270E94A92308F04EC0AD89A03210F0E8
:101CE200AF3708F004C0ED89F0E0B09704C0ED8989
:101CF200F0E0E156F040DF01EA89F0E00E94F222D2
:101D0200A885B985EA0FFB1FAB89BC890E94031F16
:101D12000E9471230E94081FE0E00E948423E98947
:101D22000E940F1FFF27662777270E94A923B0F47E
:101D3200E881AC81BD818E819F810E94A922F078C9
:101D420029F00E94121FAF89B88D04C00E94121F91
:101D5200AD89BE89F0DE0E94331FE1CFE885F985A7
:101D62006A857B85EF5FFF4F6F4F7F4FE887F9876B
:101D72006A877B87A6CF6A960895AA93E881E030A6
:101D820011F4E1E0E883A985BA85EC91E03009F429
:101D920058C0ED81F0E0AD85BE85AE0FBF1FA03407
:101DA200E1E0BE0720F1E0E0ED87EE87AE81BB27E0
:101DB200E881F0E00E94F222AB85BC85EA0FFB1FAE
:101DC200EB87FC87EE81F0E0AB85BC85AE0FBF1FD1
:101DD200A03FE0E0BE07A8F5A985BA85AC91A03284
:101DE20031F4E985FA853196E987FA87CCCFED851A
:101DF200FE85FA93EA93ED85FE85FA93EA93AD8523
:101E0200BE85EC91EA93EA85FB856C857D850E940F
:101E120089230E943C1F0E943C1FAD854BDFAD8190
:101E2200BB27E881F0E00E94F222AD85BE85EA0F71
:101E3200FB1FED87FE87E985FA853196E987FA87E8
:101E4200A2CF2F960895EAB3E46FEABBEAB3E36048
:101E5200EABBEBB3E06FEBBBE4B3EC6FE4BBE5B31F
:101E6200E370E5BB0895BA93AA93EA81FB81AC8142
:101E7200BD81AE17BF0708F40CC0EC81FD81A881BB
:101E8200B981AE17BF0718F4E881F98102C0EC816D
:101E9200FD8126960895BA93AA932897E0E0E883F5
:101EA200E983EA83EB83EC83ED83EE83EF830E9485
:101EB200411FEA17FB0790F40E94411FEA27FB2704
:101EC200E88BF98B0E94411FEA27FB27EE87FF87E9
:101ED2000E94411FEA27FB27E88BF98B0E94461FCD
:101EE200EA17FB0790F40E94461FEA27FB27EC87BC
:101EF200FD870E94461FEA27FB27EA87FB870E948D
:101F0200461FEA27FB27EC87FD87E889F9890E94AB
:101F12004B1FE88BF98BEE85FF850E944B1FEE87E6
:101F2200FF870E943C1F0E94571FEC87FD87EA85AE
:101F3200FB85FA93EA930E94571FEA87FB87A889D9
:101F4200B989EE85FF85EA1BFB0B31960E94081FBB
:101F5200AC85BD85EA85FB85EA1BFB0B3196AC811E
:101F6200BD818E819F81662777270E94D222EC83D2
:101F7200FD836E837F83E889F989FA93EA93A889BE
:101F8200B989B9DD0E943C1FAC85BD850E94DD1E6A
:101F9200E0E00E948423EC81FD816E817F810E94BA
:101FA2000F1F0E94A92340F4A9859DDDE885AE2F6D
:101FB2009ADD0E94331FEFCFDC9A62960895DA9A77
:101FC200A1E0B0E00E94B221A1E00E94611FA2E361
:101FD200B0E00E94B221A8E20E94611FA0EC7BDD6A
:101FE200A3E281DDA1EC77DDA0E17DDDA5EC73DD6F
:101FF200ABE279DDABE277DDA7EC6DDDA0EC73DD62
:10200200A6E369DDA8E26FDDEFE3F1E0E093C3034D
:10201200F093C403EFEEF0E0E093C503F093C60340
:102022000E94661F0E946B1F66DD0E94661F0E944F
:10203200701F65DDAAE34FDDA5E555DDA1EB0E942A
:10204200611FABE150DDA7EB46DDA7E04CDDA1E16E
:102052000E94611FA6E9B0E00E94B221A9E20E949B
:10206200611FA4EFB1E00E94B22108951A930A936E
:1020720010E000E0E6B7E07859F41F5F193C38F051
:10208200E0E0E0B9E6BF01E0E4E6E0B901C0F2CF8A
:10209200E02F099119910895BA93AA930E94B5234A
:1020A20011E0E4EA0E94751F11F010E081C0E1B175
:1020B200E87FE83011F010E07BC0EA850E947A1FC9
:1020C20011F010E075C0E1B1E87FE83111F010E0E5
:1020D2006FC0EA85E07FE03A99F4E885F9850E94CD
:1020E200BA221E2F13B911E0E4E80E94751F11F005
:1020F20010E05EC0E1B1E87FE83211F010E058C0B4
:10210200E8850E947A1F11F010E052C0E1B1E87F29
:10211200E83211F010E04CC0E4EA0E94751F11F0A1
:1021220010E046C0E1B1E87FE03111F010E040C0BC
:10213200EA85EF5F0E947A1F11F010E039C0E1B129
:10214200E87FE03411F010E033C0AC81BD8112971A
:10215200FCF020E030E0EC81FD8131972E173F0743
:10216200BCF4E4EC0E94751F11F010E021C0E1B153
:10217200E87FE03511F010E01BC0AE81BF811196FF
:10218200AE83BF831197E3B1EC932F5F3F4FE3CF51
:10219200E4E80E94751F11F010E00AC0E1B1E87F87
:1021A200E83511F010E004C0E3B1AE81BF81EC93D9
:1021B200E4E9E6BFE12F0E94BC238BC2AA931A93E3
:1021C2000A9301E0E4EAE6BFE6B7E078E9F3E1B1B9
:1021D200E87FE83011F000E047C0EF81E3B9E4E8BE
:1021E200E6BFE6B7E078E9F3E1B1E87FE83111F064
:1021F20000E03AC0EF81E07FE03A91F4ED81FE81A8
:102202000E94BA220E2F03B901E0E4E8E6BFE6B766
:10221200E078E9F3E1B1E87FE83211F000E024C0B0
:10222200ED81E3B9E4E8E6BFE6B7E078E9F3E1B1CE
:10223200E87FE83211F000E017C010E0EA811E17D3
:1022420098F4AB81BC81ED91AB83BC83E3B9E4E844
:10225200E6BFE6B7E078E9F3E1B1E87FE83211F0F2
:1022620000E002C01F5FEACFE4E9E6BFE02F198178
:1022720008815FC31A9310E0C098B89A25FE02C085
:10228200AEE101C0AAE0B0E00E94B221B89880EFAE
:1022920090E00197F1F7B09913C0B09902C01F5FA7
:1022A200FCCF1A3010F4E0E005C410E0B09B02C08D
:1022B2001F5FFCCF1A3010F4E0E0FCC3E1E0FAC388
:1022C200E0E0F8C325970E94B32330E0D3DFE0308B
:1022D20009F492C010E0153028F50E947D1FE0E05D
:1022E200EC9300E00830E0F40E947D1FEC91EE0FC9
:1022F200EC93F894B09902C03F5FFCCF8BEA8A95C9
:10230200F1F730E0B09B02C03F5FFCCF3B3028F0DA
:102312000E947D1FEC91E160EC9378940F5FE2CF15
:102322001F5FD9CFEF81AE81EA0FA885EA0FA98599
:10233200EA0F3E2FEA85E31709F054C025FE08C0D4
:10234200AE81EAE0EA9FA001A885EA9FF0010FC0F2
:10235200AE810E94841FEF81F0E0EA0FFB1FAF0104
:10236200A8850E94841FE985F0E0EA0FFB1FE09335
:10237200C903F093CA03E091CB03F091CC03A0917F
:10238200C903B091CA03EA0FFB1FE093C903F0939C
:10239200CA03DA01EAE0F0E00E94FC220E948B1FED
:1023A200E091CF03F091D0030E94901FEA0FFB1F30
:1023B2000E948B1FE0E0E093FF030E94901FA5366E
:1023C200E0E0BE071CF0E4E6F0E006C00E94901FC9
:1023D200119734F4E1E0F0E0E093CD03F093CE0303
:1023E200E1E075C1A091FF03AF5FA093FF03A430AA
:1023F20010F0E0E06CC102C0E0E069C168C1AA93DC
:10240200E881E064E883E7B985E38A95F1F7369AD3
:10241200349BFECF349AE4B1F5B114C3AA93229748
:102422000E94B32328E252E0A885AE3010F4EEE019
:10243200E887EA85E450EA8730E000E0E9850E1794
:1024420090F5E6EEF0E0EE83FF8310E0151720F53D
:10245200A6E03A9FF001EC5DFB4F0E94951FAE8112
:10246200BF81EA0FFB1F0E949E1FE85DFB4F208386
:10247200A6E03A9FF001E75DFB4FA885A083A6E0A6
:102482003A9FF001EA5DFB4FDF01EA85F0E0ED9350
:10249200FC933F5F1F5FDACFE885EA5FAA85EA0F08
:1024A200EA870F5FCBCFEE81FF81E0930A04F093BE
:1024B2000B04E985E502F001E093010408C1AA9347
:1024C2000E94A51FF0E0E430A0E0FA0729F40E9480
:1024D200AA1F0E94B52217C0E330A0E0FA0739F420
:1024E2000E946B1FE3E0F0E00E94FC220CC0E2308D
:1024F200A0E0FA0731F40E94AA1FF695E795E95089
:1025020003C0E091C303E6502E2FA885A43110F436
:10251200E4E1E887E885F0E00E94701FAE1BBF0B84
:102522001497AE83BF8330E000E0E9850E1790F583
:1025320044E050E010E0EA851E1708F5A6E03A9F55
:10254200F001E45FFB4F0E94951FE40FF51F0E940C
:102552009E1FE05FFB4F2083A6E03A9FF001EF5EF3
:10256200FB4FA885A083A6E03A9FF001E25FFB4FF4
:10257200AE81BF81A083B1833F5F1F5FDCCFE8855F
:10258200F0E03596AE81BF81AE1BBF0BAE83BF8339
:102592000F5FCBCFEE81FF81E0930804F093090433
:1025A200E985AA85EA02F001E093000490C0BA939B
:1025B200AA930E94A51FA6E0EA9FF001E05FFB4FED
:1025C2000E94AF1FEF5EFB4F0E94B61FE45FFB4FFE
:1025D2000E94BF1FE25FFB4F208131810E94C61F14
:1025E200AF89B88DA8DA0E94C61FAD89BE8940DBCB
:1025F2000E94CD1FFF93EF93A885B9850E94AD1E5F
:10260200A5E0B0E00E94CA22AF91BF91AE1BBF0B02
:102612008D010E94D51F0E94E01FEA85FB850E9462
:10262200E51F0E94EC1F0E94E01F0E94F11FED892E
:10263200FE89FA93EA93EB8DFC8D0E94FC1F0E94A7
:10264200BA2361960895BA93AA930E94A51FA6E0A1
:10265200EA9FF001E85DFB4F0E94AF1FE75DFB4F71
:102662000E94B61FEC5DFB4F0E94BF1FEA5DFB4F4D
:10267200208131810E94012029F00E94C61FA0EE14
:10268200BFEF04C00E94C61FAFEFB7E0F1DA0E94AD
:10269200CD1F35978F010E94D51F0E94012049F05E
:1026A2000E94EC1FE0E6F2E00E940920E0EEFFEF5C
:1026B20008C00E94EC1FE2E6F2E00E940920EFEF60
:1026C200F7E0FA93EA93EC89FD890E94FC1F0E94CD
:1026D200BA232B960895BA93AA932497E985F0E03A
:1026E200AA85BB850E940C20662777270E941120AD
:1026F200EE81F0E0AC81BD810E940C200E940F1F90
:10270200662777270E94F7220E941120E985F0E0D0
:10271200AF81B8850E940C200E940F1F6627772781
:102722000E9439230E941120EE81F0E00E940F1FC7
:102732000E94C5220E9498220E941120E881F981FC
:102742002C9608950E941420E45FFB4F0E941C20E7
:10275200E05FFB4F0E9423200E942A20A017B107AE
:1027620028F00E942A202A173B0710F4E0E044C018
:102772000E942F20E25FFB4F0E941C20EF5EFB4F66
:102782000E9423200E943420A017B10728F00E9443
:1027920034202A173B0710F4E0E02EC02CC00E9420
:1027A2001420EC5DFB4F0E943920E85DFB4F0E9434
:1027B2003F200E942A20A017B10728F00E942A2059
:1027C2002A173B0710F4E0E017C00E942F20EA5DB1
:1027D200FB4F0E943920E75DFB4F0E943F200E9481
:1027E2003420A017B10728F00E9434202A173B0793
:1027F20010F4E0E001C0E1E00E94BC2325960895B8
:1028020024970E94B523A69AAE98A79AAF9AD69813
:10281200DE98D598DD98A6E0F2DD9F01A5E0EFDD18
:102822002E1B3F0BEFEFF3E0E21BF30B9F01209314
:10283200060430930704283CE0E03E071CF403DB67
:10284200E0E075C0D698DE98A798AF98A69AAE9A9F
:10285200D59ADD9810E0123060F40E944620FF9372
:10286200EF93A6E0CCDDAF91BF91ED93FC931F5F98
:10287200F2CF0E944B202530E0E03E075CF70E9439
:102882005620E0930204F0930304A698AE98D598DC
:10289200DD98D69ADE9AA79AAF9810E0123060F4CB
:1028A2000E944620FF93EF93A5E0A9DDAF91BF916F
:1028B200ED93FC931F5FF2CF0E944B202530E0E0A6
:1028C2003E075CF70E945620AFEFB3E0AE1BBF0B92
:1028D200A0930404B0930504B6DA0E946120EDE7E8
:1028E200EA93EBE8F3E00E9468200E946B1FF3DE9C
:1028F200E0930204F09303040E946D20E2E8EA935D
:10290200E7EAF3E00E9468200E94701FE4DEE09391
:102912000404F09305040E9461200E946D200E942D
:1029220074200E947420AFEFB7E005D9E1E00E9465
:10293200BC23289608950E94B32340E030E0361568
:1029420008F06FC00E94BC21A5E50E940522A9E003
:102952003A9FF001E356FC4F0E94792020E0283094
:1029620038F40E947E20A0810E9405222F5FF7CFBB
:10297200E7EEF3E00E947920AEEB0E94052220E010
:10298200283058F40E947E20FF93EF930E94002289
:10299200AF91BF91EC932F5FF3CF0E9400225E2F85
:1029A200E7EEF3E00E947920E091DF03F091E0038B
:1029B200FA93EA93A8E00E947E225E1701F540E0B6
:1029C2000091E7031091E803112352F4F8010E94E9
:1029D2009D228F010E9487208F010E949D2202C0AA
:1029E2000E9487208F01A091E903AA3A39F4E0916D
:1029F200EA03F0E0E7FDFFEF0E0F1F1F06C04F5F77
:102A0200433018F006EC17E040E0E32FA1EEB3E00C
:102A1200F0E00E94031F00831183403009F43F5FFE
:102A22008ECF0E9492200E94BA2326960895AA93DE
:102A3200A881A53610F0E4E6E883E881EE0FE8838A
:102A4200EE5CE88321960895BA93AA93A981AA23FA
:102A520042F4E881F9810E949D22E883F983EDE244
:102A620001C0E0E2BE2EA881B981EAE0F0E00E9456
:102A72003E23DE2EA881B981EAE0F0E00E940F2316
:102A8200AE2E229608951A930E943420A93CE0E0CB
:102A9200BE0780F010E0143030F4A12F53DEE03096
:102AA20011F41F5FF8CF143028F4E4E15E2E412EBA
:102AB200E1E07E2E1991089522970E94B32320E02F
:102AC2003AEF4FEF5FEF772009F177240E94661FFC
:102AD2000E949A200E949E200E94AE20E0E0EA938B
:102AE2000E94B5200E94661F0E94661F0E94B920A4
:102AF2000E94BE200E94661F0E94B9200E94C5202B
:102B02000E94661F0E94B9200E94CC20E3E09E2E04
:102B120021FE3CC0E0EDEA930E94661FE8EBF3E081
:102B2200FA93EA93A7E0B0E0B7DA0E94E01FECEE76
:102B3200F7E1FA93EA93E091BA030E94D220E0917E
:102B4200B9030E94D220E091BC030E94D220E091FE
:102B5200BD030E94D220E091BE030E94D22084E1F4
:102B62000E94ED1C68960E94D8200E94F11F0E94CC
:102B7200B9200E94661FA1E000D90E94D8200E94BD
:102B8200F11F0E94661FEFEFFFEF18C00E94E01FC7
:102B9200E9E0F8E10E94E51F0E94D8200E94F11F9F
:102BA2000E94E1200E94FC1F0E94D8200E94F11F77
:102BB200EFEFF7E0FA93EA93EFE1F0E0FA93EA93AA
:102BC200A1E0DBD8E6E19E0E1BDEE03009F05BDF20
:102BD200A0E0B0E00E9495230E94E820E8E1F8E13D
:102BE2000E94EF20ED2D0E94D2200E94F3200E942D
:102BF20074200E94F8200E94F11F0E94FE200E9471
:102C02007420E92DF0E07996FA93EA93E7E9F2E08D
:102C12000E9409200E94FE20A091C903B091CA031C
:102C2200A33EE4E0BE073CF00E94E01FEDE2F8E1C3
:102C32000E94E51F0FC0E091C903F091CA030E94F0
:102C4200E820E2E3F8E10E94EF20ED2D0E94D2207D
:102C52000E94F320ECE8F0E00E9405210E940A2184
:102C62000E94F11F0E940D21E091BF03F0E0309716
:102C720039F0E130A0E0FA0719F4EFEFF7E002C013
:102C8200EFE1F8EFEE83FF83E8E1F1E00E94052136
:102C92000E941421E7E39E0EB3DDE03009F0F3DE7B
:102CA2000E94E01FE9E3F8E1FA93EA93A8E0B0E0BA
:102CB2000E9495230E9423210E9474200E94F820E2
:102CC2000E94F11F0E94FE200E947420E92DF0E074
:102CD2007996FA93EA93E3EAF2E00E9409200E94CD
:102CE200FE200E94901FA536E0E0BE072CF00E9455
:102CF200E01FEBE4F8E104C00E94E01FE1E5F8E127
:102D0200FA93EA93E091CD03F091CE030E9423213E
:102D1200EEE8F0E00E9405210E940A210E94F11FC4
:102D22000E940D21E091C003F0E0309739F0E130CC
:102D3200A0E0FA0719F4EFEFF7E002C0EFE1F8EFD5
:102D4200EE83FF83E8E1F1E00E9405210E94142155
:102D520057DDE03009F097DEE7E39E0E26FE39C02C
:102D6200C3FE0DC00E942C21FA93EA93EDEAF2E031
:102D72000E9409200E94E120FA93EA9326C00E9451
:102D8200E01FECE6F8E1FA93EA93E091D103F091C7
:102D9200D2030E942321E4E1F0E00E9405210E9477
:102DA2000A210E94F11F0E942F21A2E00E94BE0E62
:102DB200EAEFF0E00E9405213A96FA93EA93E1ECF9
:102DC200F2E00E9409200E942F21A1E00E94BE0E83
:102DD2000AC00E942C21FA93EA93E5ECF2E00E94E9
:102DE20009200E94FE20E3E29E0E24FE3CC0C3FEA8
:102DF2000DC00E942C21FA93EA93EBEDF2E00E94BF
:102E020009200E94E120FA93EA9329C0E091D303BA
:102E1200F091D4030E94E820E3EAF8E10E94EF2057
:102E2200ED2D0E94D2200E94F320E4E1F0E00E9406
:102E320005210E940A210E94F11F0E942F21A2E077
:102E42000E94BE0EE6EEF0E00E9405213A96FA9349
:102E5200EA93EEEEF2E00E9409200E942F21A1E007
:102E62000E94BE0E0AC00E942C21FA93EA93E6EF5A
:102E7200F2E00E9409200E94FE20C2DCE03009F04C
:102E820002DE82C222970E94B32301E020EF32E0E9
:102E92004FEF5FEFE7E09E2E772069F177240E94E3
:102EA200661F0E949A200E949E200E94661F0E9416
:102EB200661FEFEFFFEF0E9468200E94B5200E947C
:102EC200AE200E94BE200E94661F0E94B9200E946E
:102ED200C5200E94661F0E94B9200E94CC20E4E611
:102EE200F0E00E940521FA93EA93ECE0F3E00E94FD
:102EF20009200E94FE20E4E19E0E10E0161508F063
:102F02004AC00E94E01FE9EDF8E1FA93EA93E12F4B
:102F1200F0E031960E9423210E947420E92DF0E016
:102F22003C960E940A210E94F11F0E94FE20E12F7E
:102F3200A1EEB3E0F0E0EE0FFF1FAE0FBF1F0E9445
:102F42003421A33EE4E0BE0738F00E94E01FEDE228
:102F5200F8E10E94E51F0EC0AE81BF8175DD0E94BF
:102F6200E01FE2E3F8E10E94EF20ED2D0E94D22063
:102F72000E94F320E8E7F0E00E9405210E940A2166
:102F82000E94F11F0E942F21A2E00E94BE0EE3E2E6
:102F92009E0E1F5FB3CF34DCE03009F074DDF4C164
:102FA20022970E94B3232FEE3BE74FEF5FEFE7E05C
:102FB2009E2E772009F447C077240E94661F0E9444
:102FC2009A200E949E200E94661F0E94661FEFEFB9
:102FD200FFEF0E9468200E94B5200E94661F0E9497
:102FE200661F0E94B920E1E0EA93A8EDB7E1DFDABB
:102FF2000E94AE200E94C5200E94661F0E94B92036
:103002000E94CC20E92DE75EEA93E8E0EA93A0E192
:1030120005DA10E0E09101040E943B21F0E0AE17D6
:10302200BF072CF41A93D9010EDB1F5FF3CFEAE539
:10303200F0E00E940521FA93EA93E8E1F3E00E94AE
:1030420009200E94FE20DCDBE03009F447C00E9428
:103052002A20AD3DE0E0BE0730F00E943420A436C5
:10306200E0E0BE0708F039C010E0183034F4A12FB8
:1030720096DBE03011F41F5FF8CF18306CF5E4E115
:103082005E2E0E943B21E2E0F0E00E943E23309758
:1030920011F00FEF01C001E00E943B21E2E0F0E0FD
:1030A2000E940F231E2FA12FB0E0A550BC4FEC9120
:1030B200E00FEC930E944021A081A33024F00E94F3
:1030C2004021A0E008C00E944021A081A03024F449
:1030D2000E944021A2E0A08301C0D5DCE4E19E0E63
:1030E20010E014300CF05BC00E94E01FE3EFF8E147
:1030F2000E9445210E944021E081F0E0E7FDFFEFC0
:10310200E230A0E0FA0739F40E94E01FA8E2B3E03F
:103112000E94901E16C0E130A0E0FA0741F40E941E
:10312200E01FACE2B3E00E944D21A1E009C030975C
:1031320041F40E94E01FA0E3B3E00E944D21A0E011
:10314200A0830E947420E92DF0E00E940A210E94CF
:10315200F11F0E94FE20E12FF0E0E759FC4FE081D1
:10316200E03019F0EFE1F0E002C0EFEFFFEFEE83A5
:10317200FF83E0EAF0E00E940521FA93EA93E8E295
:10318200F0E0FA93EA93E2E1F0E0FA93EA93AE8593
:10319200BF850E949C0DE6E19E0E1F5FA2CF30DB31
:1031A200E03009F4AEC00E94E01FEBE0F9E1FA93CF
:1031B200EA93E0910204F0910304662777270E94C4
:1031C2008923E0910404F0910504662777270E9481
:1031D20089230E94F3200E947420ECE8F0E00E9410
:1031E2000A210E94F11F0E94661F0E9454210E9420
:1031F2002A20AD3DE0E0BE0760F00E943420A536F3
:10320200E0E0BE0730F00E943420A83CE0E0BE07B8
:1032120008F076C018E0103134F4A12FC0DAE030A3
:1032220011F41F5FF8CF0E94E01FE6E1F9E10E946E
:1032320057210E945F210E947420EAEAF0E00E9476
:103242000A210E94F11F0E94661F0E945421103120
:103252000CF055C0E4E15E2E0E943B21E2E0F0E07A
:103262000E943E23309711F00FEF01C001E00E944F
:103272003B21E2E0F0E00E940F231E2F14500E9437
:10328200E01FECE1F9E10E945721E02F0E94BF22EA
:103292000E9489230E94F3200E947420EBE9F0E04F
:1032A2000E940A210E94F11F0E94661F0E9454215F
:1032B2000E9464217E2F8F2F6081AAE00A02F00112
:1032C200E60FA72FB82FEC930E946421A081A536A8
:1032D20024F00E946421A4E611C00E946421A0810E
:1032E200A93021F40E946421AAE008C00E9464214E
:1032F200A081AF3F24F40E946421AFEFA08301C0FC
:10330200C2DB10E014300CF03FC00E94E01FE9E283
:10331200F9E10E9445210E946421A081AF3F39F466
:103322000E94E01FA4E3B3E00E94901E0AC00E9424
:10333200E01FA8E3B3E00E94901E0E946921E08191
:10334200EC93E4E5F4E0FA93EA93E9E3F9E1FA9322
:10335200EA930E946E21E0810E94D2200E945F21A6
:103362000E94E01FA4E5B4E00E94901E0E94742017
:10337200E92DF0E00E940A210E94F11F0E94FE2026
:10338200E6E19E0E1F5FBECF0E94BA2328960895E3
:103392002497EFEFEA83EB830E94B3234FE85AEFBF
:1033A200E7E09E2E772061F1E75EEA93E4E0EA939C
:1033B200AEE134D810E0E09101041E1728F41A930C
:1033C200DA0141D91F5FF7CF0E94E01FE1E4F9E182
:1033D200FA93EA93E92D0E94D2200E945F21E2E350
:1033E200F0E00E9405210E940A210E94F11FEA8951
:1033F200FB89FA93EA935A934A93A1E00E94BE0E84
:103402000E94BA232A960895E42DF0E0309791F0B5
:10341200E130A0E0FA0711F435DD0DC0E230A0E0A2
:10342200FA0711F4BDDD07C0E330A0E0FA0711F49A
:10343200AFDF01C041DB0895AA93BA93EA93FA93EE
:10344200EFB7EA93AEE5B4E00E947321E991EFBFD2
:10345200F991E991B991A9911895EA93EFB7689416
:1034620020F8EFBFE9911895E0E0E2BBE1BBEFBDC8
:10347200E5E0EEBDE0E0EDBDECBDEBB7E064EBBF37
:10348200E2E0E5BFE0E0E4BFE0E4EABFE4E0E9BF98
:10349200E0E0EBB9E8EDEAB9E6E8E0BDE0E0E0BD86
:1034A200E7E6E9B9E0E8E8B9E0E0E0BFE8E4E0B97E
:1034B200E0E0E2B9E4E4E6BFE0E0E1B9E0E4E7B984
:1034C200E4E8E6B9A0E2B0E00E949523E093CB03E2
:1034D200F093CC03A2E2B0E00E949523E093CF03E5
:1034E200F093D003A4E2B0E00E9499230E94AE239D
:1034F20025F8A8EEB3E00E94B2210E9463110E9457
:10350200AE2322F8E0EFEA93ADE9B3E00E940F2286
:103512006E2E0E947921AE0FBF1F149734F0E0E0A7
:1035220022FCE1E0A3E0AE1B6A2E662011F00E94AD
:103532009220E0E0E093B803E093B903E0EDEA9370
:10354200EEE0F0E0FA93EA93E8EBF3E0FA93EA9321
:10355200A2E00E94DF100E94AE2321F878940E941C
:10356200240F0E94E00F0E94661F0E949A20E091A1
:10357200C503F091C603FA93EA93A091C703B091F1
:10358200C8030E944C0FEAE09E2EECE3F0E00E949A
:103592000521FA93EA93ECE3F3E00E9409200E94EA
:1035A200661F0E9480210E94FC1F0E948521FA93BF
:1035B200EA93E0E5F3E00E9409200E94661F0E9460
:1035C2008A210E948521FA93EA93E8E5F3E00E94BA
:1035D20009200E94661F0E948A21EDE29E0E0E942F
:1035E200E01FE5E7F9E1FA93EA930E947921EA0FF5
:1035F200FB1F0E9423210E942C210E940A210E946B
:10360200F11F0E94661F0E9480210E94FC1FE4E1BC
:103612009E0E0E94E01FEDE8F9E1FA93EA93E0E0E2
:1036220022FCE1E00E94D2200E945F210E942C2114
:103632000E940A210E94F11F0E94661F0E9480219F
:103642000E94FC1FE1E07E2E76D920FE4EC0E89457
:1036520020F8662009F06FD922FE15C00E9463117E
:10366200E03019F0E3E08E2E0EC0882011F08A942B
:103672000AC0ECE6F7E0E093C903F093CA03EEEB6D
:10368200F0E00E948B1F10E0143078F40E94402179
:10369200A081A23044F4A12FB0E0A759BC4F0E94F0
:1036A2004021E081EC931F5FEFCF10E01430E8F48B
:1036B2000E946421A081A0302CF00E946921E08147
:1036C200EC9304C00E946E21A0E0A083E12FF0E001
:1036D200EF58FC4FFF93EF930E946E21A081A7D970
:1036E200AF91BF91EC931F5FE1CF8EDEAECFFFCFE4
:1036F200BA93AA931A930A93AA81BB8112960E9443
:103702006D23309729F1AA81BB8114960E946D2303
:103712008F01309761F00230E0E01E0780F0F8017F
:1037220031978F01AA81BB811496ED93FC93AA81F4
:10373200BB8112960E9473213197AC81A083AA812A
:10374200BB810E946D23FF2312F00E94732106C0E9
:10375200AA81BB81EFEFFFEFED93FC931981088102
:1037620025960895BA93AA9326970E94B32310E050
:10377200AC85BD85E0E0F0E0ED93FC93EA89FB893E
:103782003196EA8BFB8B3197E4912E2FE03009F4CE
:103792001BC1E12FE03039F4253211F411E002C0EF
:1037A2000E94902110C1E130A9F4253219F40E943F
:1037B200902108C112E040E000E02D3211F401E056
:1037C20002C12B3211F44BE2FEC0203211F440E26E
:1037D200FAC002C0E23039F450E013E0203311F4B1
:1037E2000068F1C003C0E33009F0EDC0203310F0EF
:1037F2002A3308F007C0AAE05A9F502DE22FE05367
:103802005E0FE1C0E22FE33649F40E949721E88976
:10381200F989A481AA930E949D21D4C0E33759F467
:103822000E949721A889B98914960E9434210E9486
:10383200A11E1E2F0DC0E03779F40E949721A8899E
:10384200B98914960E9434210E94AD1E1E2F086071
:1038520002600F7730E034C0E43611F0E93611F43B
:10386200046002C0E53731F4E0EBF6E1EE83FF835A
:1038720015E00CC0E83511F4086003C0E83709F020
:10388200A1C0EAEBF6E1EE83FF8314E002FF14C06D
:103892000E9497210E94A321AB85AA233AF4EA85CC
:1038A200FB850E949D22EA87FB874DE2403011F0A2
:1038B2001F5F01C00B7F04C00E9497210E94A321B9
:1038C20000FD11C0151778F407FF08C002FF04C0FD
:1038D2000B7F242F115001C020E301C020E20E947F
:1038E20090215150EFCF312F01FF17C03030A1F09E
:1038F20003FF06C0EE81FF812591EE83FF8305C0A1
:10390200AE81BF812D91AE83BF830E949021503042
:1039120009F051503150EACF4BC020E3EE81FF81D4
:103922000E947123E887F987EE81FF813296EE8348
:10393200FF83E885F985AA85BB85AE17BF0750F0DE
:103942002F5FA885B985EA85FB85EA1BFB0BEA8711
:10395200FB87EFCF2A3328F003FF02C0295F01C0A3
:10396200295D04FD1AC0213320F4A885B985119779
:1039720009F409C0531710F000FF01C013C020E280
:1039820007FF0BC020E3006102FF07C00B7F4A93D1
:103992000E949D21503009F051500E9490215030D8
:1039A20009F051503150A885B985129708F0B5CF6A
:1039B20000FF08C0503031F05150E0E2EA930E941B
:1039C2009D21F8CF10E0DACEAC85BD850E946D2333
:1039D2000E94BA2364960895FF92F82E26970E94B9
:1039E200B5230E94AB21309719F4EFEFFFEF23C00C
:1039F200DE0116960E9494228D010E94AB21EE8375
:103A0200FF83E0E0E887E987DE011A960E949422AC
:103A12000E946D23FA93EA931A930A93E9E7FBE172
:103A2200FA93EA93DE011A969DDE9F01AE81BF8171
:103A3200E0E0EC93F9010E94BC232A96FF900895DE
:103A42000A921A92FA926A937A938A939A93AA930F
:103A5200BA93EA93FA93EFB7EA930E94B3231091D1
:103A62006103009160033091630420916203E12FAE
:103A7200A0916404B0916504F0E0EA0FFB1FAF016E
:103A8200E1B1E87FE83011F420E002C0E03119F43E
:103A9200E091600410C0E83111F0E83221F503171B
:103AA20080F4E02F0F5FA0916104B0916204F0E016
:103AB200AE0FBF1FEC91E3B9E6B7EF70E068E6BF67
:103AC20011C0E09166041E1760F4E0916004E160A9
:103AD200E0936004E89430F8E6B7EF70E06AE6BF7E
:103AE200FBC033C0F9C0E03529F4E3B1DA01EC934D
:103AF2001F5F02C0E03471F4E0916604E1501E17CA
:103B020020F0E6B7EF70E06803C0E6B7EF70E06C54
:103B1200E6BFE2C0E83529F4E3B1DA01EC931F5FB6
:103B220002C0E03209F402C0E03309F402C0E83412
:103B320069F4203051F430FE03C0031728F005C0A9
:103B4200E09166041E1708F424E0C0C0E83329F4AB
:103B520022E0E6B7EF70E068BCC0E83611F0E83763
:103B620011F422E005C0E03611F0E03791F420E0D4
:103B720010E0E89430F8E0916704E03029F421E0A5
:103B8200E6B7EF70E06803C0E6B7EF70E06CE6BF3F
:103B9200A3C0E03811F0E03929F530FE02C021E07F
:103BA20095C0E3B1DA01EC931F5FE09167041E1741
:103BB200B0F4E0916804F0916904309711F426E0C2
:103BC20085C0A0E0E0916804F09169040995E030B5
:103BD20029F0E6B7EF70E06CE6BF7EC002C06894E1
:103BE20030F802C0E83809F402C0E83929F4E6B72F
:103BF200EF70E068E6BF70C0E03AA9F4E6B7EF7094
:103C0200E06CE6BF689431F8E0916804F0916904D1
:103C1200309739F0A1E0E0916804F09169040995C8
:103C220001C026E059C0E03B11F422E002C0E83AAC
:103C3200B9F4E0916A04F0916B04309759F0A0E076
:103C4200E0916A04F0916B0409953E2FE03011F087
:103C520020E002C026E03AC000E0E89430F802C05A
:103C6200E83BE1F430FE02C021E030C0E02F0F5FFC
:103C7200A0916104B0916204F0E0AE0FBF1FEC911D
:103C8200E3B9031720F4E6B7EF70E06C05C068945F
:103C920030F8E6B7EF70E068E6BF1EC0E03C11F016
:103CA200E83C89F4E6B7EF70E06CE6BFE0916A04A5
:103CB200F0916B04309731F0A1E0E0916A04F09149
:103CC2006B04099507C0E03039F423E0E6B7EF70E2
:103CD200E06DE6BF689431F81093610300936003CE
:103CE20020936203309363040E94BA232696E991DB
:103CF200EFBFF991E991B991A9919991899179913E
:103D02006991F990199009901895BA93AA93E9913B
:103D1200F99130971AF4E095F09531960895BA9397
:103D2200AA93E991F991A991B991CD016D91662377
:103D3200E9F7119761916D936623E1F7FC0108950C
:103D4200BA93AA93A991B991EE27FF276D916623A1
:103D520011F03196FBCF0895BA93AA93AA27BB27F5
:103D6200E991F9910590002011F01196FBCFFD0128
:103D72000895AA93EBB3EC7FAE2FE881E370EA2BB0
:103D8200EBBBE5B3E370AE2FE881EC7FEA2BE5BB3A
:103D92000895AB810E94740DEA81AE2F0C94740DCC
:103DA200A9810E94740DE881AE2F0C94740DEE81EE
:103DB200FF81FA93EA9308950E94800DACE20C947D
:103DC2006C0DEC81FD81A885B9850895E885F9859A
:103DD200FA93EA930895E885F985AC85BD85AE0F1F
:103DE200BF1F11970895BA93AA931A930A93EECF1D
:103DF200AE81BF810E94FB0DE9CFEA0FFB1FFA9350
:103E0200EA93E4CFEE0FFF1FEA0FFB1F0895662728
:103E12007727EC83FD836E837F8308950E947A2344
:103E22000895EC85F0E0A881B9810E94CA22A88D8C
:103E3200B98DEA0FFB1FFA93EA93EE85F0E0AA85AB
:103E4200BB850E94CA22A88DB98DEA0FFB1FFA9387
:103E5200EA93E889F0E0FA93EA93EA89F0E0FA93C8
:103E6200EA9308950E947523EF5FFF4F6F4F7F4FD4
:103E72000E947F230895EC85FD85FA93EA930895C5
:103E8200EE85FF85A889B9890895EA85FB85AC8509
:103E9200BD850895FA93EA93E0E0F0E0FA93EA939D
:103EA200A091C303B091C4030C94340FE0E0F0E09E
:103EB200FA93EA93A091C503B091C6030C94340F10
:103EC2000E946C0DA0E00C94740DE0E0F0E0FA9317
:103ED200EA930895A091C303B091C4030895A091F9
:103EE200C503B091C6030895E6BF0E943710E030C3
:103EF2000895E3B9E4E8F8CFE12FF0E0DE01169689
:103F0200AE0FBF1F0895B0E0E0E0F1E00E94F222A0
:103F1200DF010895E093CD03F093CE030895A091BD
:103F2200CD03B091CE030895BF01A12FBB27E22F8D
:103F3200F0E035960E94F2220895DB01ED93FC93A6
:103F4200A6E03A9FF001089522970E94B323EA85E2
:103F52000895E091C303F091C40308954081552769
:103F6200EA85A6E0EA9FF0010895E081F0E0EE83A1
:103F7200FF83EA85A6E0EA9FF0010895008111819E
:103F8200EA85A6E0EA9FF00108951A930A933A930C
:103F92002A935A934A936FCFDA01E2E0F0E00E944B
:103FA2000F23E00FF11F0895AE81BF81E2E0F0E040
:103FB2000E940F23E20FF31F38979F010895E5E750
:103FC200F3E0FA93EA930895FA93EA9380E00E9469
:103FD200ED1C249608951A930A933A932A9308950E
:103FE200E0916303F091640360916503709166034D
:103FF2000E9489230895FA93EA93A1E00C94BE0EDD
:10400200AA85BB27E2E0F0E00E943E2330970895A4
:10401200FA93EA93E5CF0E948E23EA1BFB0B0895E5
:104022000E947F230895AA930E94B523EC81A6E003
:10403200EA9FF001089500811181EC81A6E0EA9FD8
:10404200F0010895E081F0E0E00FF11F33979F0146
:104052000895A0910204B09103040895EC81A6E0B2
:10406200EA9FF0010895A0910404B0910504089517
:10407200DF010E946D2333978F01F0CFE081F0E0E2
:10408200E00FF11F33969F010895E12FF0E0DE016A
:104092001496B8CEAE81BF81EC81FD81EA1BFB0B89
:1040A200DF010E94861E9F010895EE81FF81AC818F
:1040B200BD81AE0FBF1FE2E0F0E00E940F23089522
:1040C200E0910204F0910304FA93EA930895FA93BB
:1040D200EA93E0E0EA930895E0910404F091050484
:1040E200FA93EA930895E5E0F0E0FA93EA930895EB
:1040F200E093DF03F093E0030895AFEDB3E0ED91B9
:10410200FD913196FE93EE9331970895F801AAE05E
:10411200B0E00E94F222DF01E0E1F0E00E940F2312
:1041220008950E94BC21ACEC0E940522A4E40C94E8
:1041320005220FDFFA93EA93C8CEE091C503F0910E
:10414200C603FA93EA93D9010E944C0FE4E0EA9382
:10415200E1E0EA93A9E10C9460123A932A933A932C
:104162002A935A934A930895A0EDB7E10C94D8127A
:10417200EFEFFFEFFA93EA930895E1E0EA93A8EDF7
:10418200B7E10E94D812A1CEE2E0EA93AEEDB7E128
:104192000E94D8129ACEE3E0EA93A5EEB7E10C941E
:1041A200D812FF27662777270E9489230895E6E41D
:1041B200F0E0FA93EA93E92DF0E0FA93EA93FFCE66
:1041C200EFE1F0E0FA93EA93EFEFF7E00895EE8380
:1041D200FF83AE81BF810E942515F1CEFA93EA9347
:1041E200EA2DDFCF88E00E94ED1C2C960895E92D80
:1041F200F0E03596FA93EA93E2CE5A934A933A93D1
:104202002A93A1E00C94BE0EFA93EA93E92DF0E012
:104212000895FA93EA93D3CE5A934A933A932A9300
:10422200A3E00C94BE0E3296FA93EA93EEE1F0E02C
:10423200FA93EA93EDE2F0E0FA93EA93AE85BF8552
:104242000C949C0D0E94C5220E94892384E00E9446
:10425200ED1C28960895EAE0F0E0D6CF5A934A93EF
:104262003A932A9308950E946D23EE83FF83AE81D1
:10427200BF810895A12FB0E0A7FDBFEF0895E12F00
:10428200F0E0E550FC4F0895FA93EA93E12FF0E055
:10429200E7FDFFEF3196D6CF0E94901EE12FF0E0AE
:1042A200E759FC4F0895EFEFFFEFA5CEFA93EA939B
:1042B200E12F0E94BF220E948923089584E00E9478
:1042C200ED1C28960895E12FF0E0E950FC4F089587
:1042D200A12FB0E0A359BC4FF6CFE12FF0E0E35994
:1042E200FC4F0895ED91FD913196FE93EE93089562
:1042F200A62DBB27E0E022FCE1E0F0E00895E0918A
:10430200C703F091C8030895EEE19E0EE0E5F0E0E8
:104312007BCFF5DFFA93EA93A2E00C94BE0E2A93C8
:10432200AD85BE85EF85F88909950895E889F989F3
:104332003497E88BF98B0895AD85BE85EF85F889B2
:1043420009950895A889B98914960E946D23EA8770
:10435200FB870895DE011C960E9494220E946D2321
:104362000895109639F080EA9FE00197F1F7A89539
:104372001197C9F70895EE27C498BC9A80E897E090
:104382000197F1F7BC988BE48A95F1F7B49B0895F5
:1043920080E391E00197F1F7B49BE1E088E196E0D8
:1043A2000197F1F70895BC9A8BE08A95F1F7BC98D2
:1043B2008BE38A95F1F78894B4990894E79580E4A1
:1043C20091E00197F1F70895E894BC9A8BE08A9501
:1043D200F1F770FDBC9885E48A95F1F7B49903C0B2
:1043E20070FF03C0089570FF08958CE291E0019779
:1043F200F1F7BC988BE18A95F1F76894089568E02B
:10440200D2DF6A95E9F708957A2F68E0EE27DCDFBC
:1044120026F477956A95D9F7E39508954F935F93BC
:1044220011244427012C1124A6DFEE2301F1AF93BE
:10443200A881EADFAF9151E0501598F4B4DFE7FDAF
:1044420008C0B1DFE7FD06C03FD0892319F4152E5D
:1044520001C0A9DF39D0892370E009F071E0B4DF2F
:104462001EC0A1DFE7FF0BC09EDFE7FF05C0E42F00
:104472005F914F9121960895689437D0EFCF93DFE3
:10448200E7FF01C003C0501531F0152EE8942DD07E
:1044920077279ADF04C0689428D071E095DF53959E
:1044A200513454F280DFEE1FEE1FE1701896EC9348
:1044B200189743951120D9F259E0EC911996EC9393
:1044C20018975A95D1F7AECFE52FEA956E2FE6955C
:1044D200E695E695FF27EA0FFB1F808191E0677062
:1044E20019F0990F6A95FCCF0895EEDF1EF09095B2
:1044F200892301C0892B80830895EE27AA2389F09E
:104502008A2F68E1A881B98198E0FD917F2F7E27EB
:10451200779508F4E627E795F6959A95B9F78A957F
:1045220099F7229608950024AF0DB01D0895EA0F61
:10453200FB1F681F791F0895F195E195F0400895DA
:10454200F09560957095E195FF4F6F4F7F4F0895FD
:10455200EE230E2EFD01BC0131F0EE0FFF1F661F90
:10456200771F0A94D1F70895F695E795F695E795A2
:104572000895EF2FFF27E7FDFFEF0895FE2FFF0FAE
:10458200FF0B6F2F7F2F08956F2F660F660B762F0D
:104592000895FA9FF02DEB9FF00DEA9FE02DF10DAB
:1045A20008957A9F702D6B9F700DF89F700DE99F93
:1045B200700D6A9F602D710DFB9F600D711DE89F4C
:1045C200600D711D8827FA9FF02D610D781FEB9FFA
:1045D200F00D611D781FEA9FE02DF10D681F781F15
:1045E200089559D0D6DF0EF4A7DF089562D0D9DF3F
:1045F2000EF4A6DF08950024112490E1AA0FBB1F38
:10460200001C111C0E1A1F0A18F40E0E1F1E01C0E8
:10461200A1609A9599F7FD01D00108953CD0EBDF96
:104622000EF48ADF08953F934F935F930024112481
:104632004427552730E2AA0FBB1F881F991F001C71
:10464200111C441F551F0E1A1F0A460B570B28F444
:104652000E0E1F1E461F571F01C0A1603A9559F743
:10466200FD01BC01D001CA015F914F913F910895B4
:1046720020D0D9DF0EF464DF0895E894B7FF04C0B8
:10468200A095B09511966894F7FD56DFB4DFFD0151
:104692000EF452DF0895E894F7FF02C04DDF6894EC
:1046A200B7FF06C0A095B095119600F8039400FAE2
:1046B2000895E89477FF02C043DF689497FF0BC028
:1046C2000024A095B095809590951196801D901D1F
:1046D20000F8039400FA0895ED91FC911197089562
:1046E2000590F491E02D0895E881F9816A817B813A
:1046F2000895A881B9818A819B810895E883F9830D
:104702006A837B830895E883E983EA83EB830895D0
:104712007A936A93FA93EA9308951B2EBF2FF12D91
:104722001A2EAE2FE12D0895119602D0FE2F119769
:10473200E199FECFFF93FFB7F894AEBBBFBBE09AFF
:10474200EDB3FFBFFF91089500240A160B060895EA
:10475200AE17BF07860797070895E894EE2309F07E
:10476200689408955A934A933A932A931A930A9310
:1047720008955D814C813B812A81198108810895C8
:00000001FF
