:0A0000000C94330D0C9489190C9434
:10000A0000000C9400000C9400000C9400000C9466
:10001A0000000C9400000C9400000C949A190C94A3
:10002A0000000C9400000C9400000C9400000C9446
:10003A0000000C9400000C9400000C9400000C9436
:10004A0000000C948D1C0C940000000000000000BD
:10005A000000000000000000000000000000000096
:10006A000000000000000000000000000000000086
:10007A00000C000C000C000C000C000C000C000C16
:10008A00000C000C000C0000000C000C000000002A
:10009A0000000000001B001B001B001B001B0000CF
:1000AA000000000000000000000000000000000046
:1000BA0000000000000000008019801980198019D2
:1000CA00C07FC07F80190033C07FC07F00330033F8
:1000DA00003300330000000000000000001E003F53
:1000EA00807580650074003C001E000780058065ED
:1000FA0080658075003F001E0004000400000000B7
:10010A00007000D840D8C0D880D900730006000C0F
:10011A00801BC036C066C046C006800300000000CF
:10012A0000000000001E003F003300330033001EB1
:10013A00000CC03CC066806380618063C03E801C46
:10014A000000000000000000000C000C000C000C75
:10015A00000C000000000000000000000000000089
:10016A000000000000000000000080000001000301
:10017A00000600060004000C000C000C000C000C29
:10018A00000C0004000600060003000180000020A5
:10019A0000100018000C000C0004000600060006FF
:1001AA000006000600060004000C000C00180010EF
:1001BA0000200000000C002D003F001E003300004C
:1001CA000000000000000000000000000000000025
:1001DA00000000000000000000000000000C000CFD
:1001EA00000C000CC0FFC0FF000C000C000C000C3F
:1001FA0000000000000000000000000000000000F5
:10020A0000000000000000000000000000000000E4
:10021A0000000000000C000C0004000400080000AC
:10022A0000000000000000000000000000000000C4
:10023A00001E001E00000000000000000000000078
:10024A0000000000000000000000000000000000A4
:10025A00000000000000000000000000000C000C7C
:10026A000000000000000000000300030003000675
:10027A00000600060006000C000C000C000C00181A
:10028A00001800180000000000000000001E003FD7
:10029A000033806180618061806D806D80618061E2
:1002AA0080610033003F001E0000000000000000D3
:1002BA000006000E001E0036002600060006000694
:1002CA000006000600060006000600060000000000
:1002DA0000000000001E003F807380618061800181
:1002EA0000030006000C001800300060807F807F49
:1002FA000000000000000000001C003E00630063D4
:10030A000003000E000E00038001800180618073EB
:10031A00003F001E00000000000000000006000E62
:10032A00000E001E001E0016003600360066807F92
:10033A00807F0006000600060000000000000000A2
:10034A00007F007F006000600060006E007F8063B5
:10035A008001800180618073003F001E0000000060
:10036A0000000000001E003F803380610060006EC4
:10037A00007F80738061806180618033003F001E4E
:10038A000000000000000000807F807F80010003E1
:10039A00000300060006000C000C000C0008001800
:1003AA00001800180000000000000000001E003FB6
:1003BA008063806180610021001E003F806180614E
:1003CA0080618061003F001E000000000000000004
:1003DA00001E003F00738061806180618073803FEE
:1003EA00801D800180610073003F001E0000000034
:1003FA00000000000000000000000000000C000CDB
:10040A00000000000000000000000000000C000CCA
:10041A0000000000000000000000000000000000D2
:10042A000000000C000C00000000000000000000AA
:10043A00000C000C0004000400080000000000008A
:10044A00000080008003000E003800600038000EB3
:10045A00800380000000000000000000000000008F
:10046A000000000000000000807F807F0000000084
:10047A00807F807F00000000000000000000000074
:10048A000000000000000000000000400070001C96
:10049A00000780010007001C0070004000000000F7
:1004AA000000000000000000001F803FC071C06013
:1004BA00C000C00180030007000E000C000C000001
:1004CA00000C000C0000000000000000001E003FAD
:1004DA00803180718063806F806D806D806F8067EE
:1004EA0000600032003E001C000000000000000016
:1004FA00000E000E001B001B001B001B8031803108
:10050A00803F803F8031C060C060C0600000000052
:10051A0000000000007C007E00630063006300634B
:10052A00007E007E0063806180618063007F007EC0
:10053A000000000000000000001E003F80318061C2
:10054A0000600060006000600060006080618031CF
:10055A00003F001E0000000000000000007C007F39
:10056A0000638063806180618061806180618061F5
:10057A0000630063007E007C0000000000000000B1
:10058A00807F807F0060006000600060007F007FE5
:10059A000060006000600060807F807F00000000D3
:1005AA0000000000807F807F0060006000600060C3
:1005BA00007F007F006000600060006000600060F3
:1005CA000000000000000000001E003F8031806132
:1005DA0000600060006080638063806180618031B8
:1005EA00803F001E00000000000000008061806162
:1005FA008061806180618061807F807F80618061AD
:10060A00806180618061806100000000000000005C
:10061A00003F003F000C000C000C000C000C000C0A
:10062A00000C000C000C000C003F003F0000000012
:10063A0000000000800180018001800180018001AA
:10064A00800180018001806180618073003F001E0B
:10065A000000000000000000C060806100630066C6
:10066A000066006C0078007C0066006600638061AA
:10067A008061C060000000000000000000600060AF
:10068A000060006000600060006000600060006060
:10069A0000600060807F807F000000000000000092
:1006AA00C071C071C07BC07AC06AC06AC06EC064C3
:1006BA00C060C060C060C060C060C0600000000070
:1006CA000000000080718071807980798079806D66
:1006DA00806D806D806580678067806780638063D6
:1006EA000000000000000000001E003F003380618F
:1006FA008061806180618061806180618061003396
:10070A00003F001E0000000000000000007E007F85
:10071A0080638061806180618063007F007E006009
:10072A00006000600060006000000000000000003F
:10073A00001E003F003380618061806180618061BA
:10074A008061806580670033803F401E00000000A2
:10075A0000000000007E007F80638061806180630A
:10076A00007F007E00660063006380618061C06074
:10077A000000000000000000000E001F80318031E0
:10078A0000300038001E00078003806180618031DC
:10079A00003F001E0000000000000000C0FFC0FF74
:1007AA00000C000C000C000C000C000C000C000CDF
:1007BA00000C000C000C000C0000000000000000FF
:1007CA008061806180618061806180618061806117
:1007DA008061806180618073003F001E000000001C
:1007EA0000000000C060C060C0608031803180318C
:1007FA00001B001B001B001B000E000E000E000455
:10080A000000000000000000C0C0C0C0C0C0C0C0DE
:10081A00C0C0C0CC804C804C805E805280528073B5
:10082A00806180610000000000000000C0C080609C
:10083A0080610033003B001E000C000C001E001FEC
:10084A00003B80718061C0C0000000000000000011
:10085A00C0C08061806100330033001E001E000C9E
:10086A00000C000C000C000C000C000C0000000036
:10087A0000000000803F803F800100030003000663
:10088A00000C000C0018001800300060807F807F88
:10089A00000000000000000F000F000C000C000C0C
:1008AA00000C000C000C000C000C000C000C000CDE
:1008BA00000C000C000C000F000F000000180018BC
:1008CA000018000C000C000C000C000600060006C4
:1008DA000006000300030003000000000000001EE1
:1008EA00001E0006000600060006000600060006B6
:1008FA000006000600060006000600060006001EA6
:10090A00001E0000000C000C001E00120033003311
:10091A00806180610000000000000000000000000B
:10092A0000000000000000000000000000000000BD
:10093A0000000000000000000000000000000000AD
:10094A00000000000000E0FF00000000003800186E
:10095A00000C000000000000000000000000000081
:10096A00000000000000000000000000000000007D
:10097A000000000000000000001F803F806180012D
:10098A00801F803F80618063807FC0380000000044
:10099A00000000000060006000600060006E007FE0
:1009AA00807380618061806180618073007F006EE6
:1009BA00000000000000000000000000000000002D
:1009CA00001E003F80738061006000608061807358
:1009DA00003F001E000000000000000080018001AE
:1009EA0080018001801D803F807380618061806109
:1009FA0080618073803F801D0000000000000000BD
:100A0A000000000000000000001E003F007380612B
:100A1A00807F807F00608071003F001E0000000020
:100A2A0000000000C007C00F000C000C807F807F10
:100A3A00000C000C000C000C000C000C000C000C4C
:100A4A000000000000000000000000000000801DFF
:100A5A00803F807380618061806180618073803FA4
:100A6A00801D80018063007F003E000000600060FE
:100A7A0000600060006F807F8071806180618061AA
:100A8A0080618061806180610000000000000000D8
:100A9A000006000600000000003E003E00060006B8
:100AAA000006000600060006000600060000000018
:100ABA0000000006000600000000003E003E00069E
:100ACA0000060006000600060006000600060006EC
:100ADA000046007E003C000000600060006000608C
:100AEA00806100630066006C007C0076006300632E
:100AFA008061C0600000000000000000003E003E6F
:100B0A0000060006000600060006000600060006AB
:100B1A0000060006000600060000000000000000B3
:100B2A00000000000000000080DDC0FFC0CEC0CC85
:100B3A00C0CCC0CCC0CCC0CCC0CCC0CC0000000063
:100B4A00000000000000000000000000006F807F2D
:100B5A008071806180618061806180618061806173
:100B6A00000000000000000000000000000000007B
:100B7A00001E003F807380618061806180618073A4
:100B8A00003F001E000000000000000000000000FE
:100B9A000000006E007F80738061806180618061E7
:100BAA008073007F006E00600060006000600000DB
:100BBA00000000000000801D803F8073806180611A
:100BCA00806180618073803F801D80018001800187
:100BDA008001000000000000000000000067803F64
:100BEA000039003000300030003000300030003072
:100BFA0000000000000000000000000000000000EB
:100C0A00001E803F80610060007F803F800180611C
:100C1A00007F001E00000000000000000000000825
:100C2A0000180018007F007F00180018001800182C
:100C3A0000180018801F800F00000000000000004C
:100C4A000000000000000000806180618061806116
:100C5A008061806180618063807F803D0000000048
:100C6A00000000000000000000000000C0608031A9
:100C7A0080318031001B001B001B000E000E000695
:100C8A00000000000000000000000000000000005A
:100C9A0080DD80DD80DD0055005500550077007746
:100CAA0000220022000000000000000000000000F6
:100CBA0000000000806100330033001E000C000CAD
:100CCA00001E0033003380610000000000000000B5
:100CDA000000000000008061806180310033003331
:100CEA00001B001B001B000E000E000E001C007CE7
:100CFA00007000000000000000000000C07FC07FFC
:100D0A00800100030006000C00180030C07FC07F7D
:100D1A0000000000000080038007000600060006AD
:100D2A0000060006000E001C001C000E000600064D
:100D3A00000600060006800780030006000600067B
:100D4A000006000600060006000600060006000669
:100D5A000006000600060006000600060006003827
:100D6A00003C000C000C000C000C000C000E0007EC
:100D7A000007000E000C000C000C000C000C003CDC
:100D8A000038000000000000000000000000000021
:100D9A008038807F0047000000000000000000004B
:100DAA000000000000000000000E000E001B001BE7
:100DBA00001B001B80318031803F803F8031C06042
:100DCA00C060C0600000000000000000007F007FDB
:100DDA000060006000600060007E007E0063806149
:100DEA0080618063007F007C00000000000000003A
:100DFA00007C007E0063006300630063007E007E67
:100E0A000063806180618063007F007E00000000D3
:100E1A0000000000007F007F00600060006000604A
:100E2A0000600060006000600060006000600060B8
:100E3A000000000000000000803F803F80318031C8
:100E4A008031803180318031803180318031803110
:100E5A00E0FFE0FF60C0000000000000807F807FAC
:100E6A000060006000600060007F007F006000603A
:100E7A0000600060807F807F0000000000000000AA
:100E8A0060C4C064C06480358035001F001F001F25
:100E9A00001F80358035C064C06460C40000000053
:100EAA0000000000003C007E000300030003000372
:100EBA00007E007E0003800180018003007F003EE7
:100ECA000000000000000000806180618061806194
:100EDA0080638067806F807D8079807180618061A6
:100EEA0080618061000000000000000C806D80615C
:100EFA008061806180638067806F807D8079807186
:100F0A008061806180618061000000000000000053
:100F1A00C0608061006300660066006C0078007C37
:100F2A0000660066006380618061C06000000000A6
:100F3A0000000000C03FC03FC030C030C030C030E9
:100F4A00C030C030C030C030C030C030C0F0C0F097
:100F5A000000000000000000C071C071C07BC07AB0
:100F6A00C06AC06AC06EC064C060C060C060C06051
:100F7A00C060C06000000000000000008061806165
:100F8A008061806180618061807F807F8061806113
:100F9A0080618061806180610000000000000000C3
:100FAA00001E003F00338061806180618061806142
:100FBA008061806180610033003F001E00000000F4
:100FCA0000000000C07FC07FC060C060C060C06019
:100FDA00C060C060C060C060C060C060C060C06007
:100FEA000000000000000000007E007F8063806136
:100FFA00806180618063007F007E00600060006025
:10100A00006000600000000000000000001E003FB9
:10101A0080318061006000600060006000600060F4
:10102A0080618031003F001E0000000000000000C7
:10103A00C0FFC0FF000C000C000C000C000C000CE0
:10104A00000C000C000C000C000C000C000000004E
:10105A0000000000C0C08061806100330033001FBF
:10106A00001E000E000E000C001C0038007000E08C
:10107A0000000000000000000004001F8035C0646A
:10108A00C06460C460C4C064C0648035001F0004CA
:10109A00000400040000000000000000C0C08060DE
:1010AA0080610033003B001E000C000C001E001F74
:1010BA00003B80718061C0C0000000000000000099
:1010CA00C060C060C060C060C060C060C060C06016
:1010DA00C060C060C060C060C07FC07F6000600048
:1010EA0000000000806180618061806180618061B0
:1010FA00807F803F8001800180018001C001C001A2
:10110A000000000000000000C0CCC0CCC0CCC0CCA5
:10111A00C0CCC0CCC0CCC0CCC0CCC0CCC0CCC0CC65
:10112A00C0FFC0FF0000000000000000C0CCC0CC1F
:10113A00C0CCC0CCC0CCC0CCC0CCC0CCC0CCC0CC45
:10114A00C0CCC0CCC0FFC0FF60006000000000003F
:10115A00003F003F000C000C000C000C000C000CBF
:10116A00000C000C000C000C003F003F00000000C7
:10117A0000000000003F003F000C000C000C000CB7
:10118A00000C000C000C000C000C000C003F003F8F
:10119A000000000000000000003000300030003085
:1011AA00003C003F00338031C030C030C031803352
:1011BA00003F003E00000000000000000078001E12
:1011CA000007800380018001807F807F8001800189
:1011DA0080030007001E00780000000000000000E5
:1011EA0000C780CD80CDC0D8C0D8C0F0C0F0C0F054
:1011FA00C0D8C0D8C0CC80CD80CD00C700000000C8
:10120A0000000000801F807F806180C180C180C192
:10121A008061807F801F800F80198031806180C14A
:10122A0000000000000000000000000000000000B4
:10123A00001F803F80618001801F803F8061806342
:10124A00807FC0380000000000000000000000009D
:10125A0000000001003F007F0060007E007F806187
:10126A0080618061007F003E0000000000000000F5
:10127A000000000000000000003E007F0061007EC8
:10128A00007F806180618061007F003E0000000075
:10129A00000000000000000000000000007F007F46
:1012AA000060006000600060006000600060006034
:1012BA000000000000000000000000000000000024
:1012CA00807F807F806180618061806180618061D0
:1012DA008061C0FFC0FFC0C0000000000000000025
:1012EA0000000000001E003F00738061807F807F45
:1012FA0000608071003F001E000000000000000036
:10130A00000000000000000060C4C0648035001FB7
:10131A00000E001F8035C06460C4208400000000F5
:10132A00000000000000000000000000003E003F36
:10133A000001003E003F800180018001003F003E25
:10134A000000000000000000000000000000000093
:10135A0080618061806180638067806D807980713F
:10136A0080618061000000000000000000000000B1
:10137A00000C000C80618061806180638067806DF1
:10138A0080798071806180610000000000000000A7
:10139A000000000000000000806100630066006C2D
:1013AA00007C0076006300638061C060000000007A
:1013BA00000000000000000000000000803F803FA5
:1013CA0080318031803180318031803180F180F10B
:1013DA000000000000000000000000000000000003
:1013EA0060C0E0E0E0F160DB60CE60C460C460C071
:1013FA0060C060C0000000000000000000000000A3
:10140A00000000008061806180618061807F807F50
:10141A00806180618061806100000000000000003E
:10142A000000000000000000001E003F8073806181
:10143A008061806180618073003F001E00000000AF
:10144A00000000000000000000000000807F807F94
:10145A00806180618061806180618061806180617A
:10146A000000000000000000000000000000006E04
:10147A00007F807380618061806180618073007FFA
:10148A00006E006000600060006000000000000064
:10149A0000000000001E003F807380610060006051
:1014AA0080618073003F001E000000000000000001
:1014BA000000000000000000807F807F000C000C0C
:1014CA00000C000C000C000C000C000C00000000CA
:1014DA00000000000000000000000000C060C060C2
:1014EA0080318019000F00070006000E000C00383A
:1014FA0000000000000000000000000000000000E2
:10150A00000C807FC0CC408C408CC0CC807F000C0B
:10151A00000C000C000000000000000000000000A9
:10152A0000000000806100330033001E000C000C34
:10153A00001E00330033806100000000000000003C
:10154A00000000000000000080618061806180610D
:10155A008061806180618061807F807F800100007E
:10156A0000000000000000000000000080618061AF
:10157A0080618061807F807F80018001C001C0011D
:10158A000000000000000000000000000000000051
:10159A00C0CCC0CCC0CCC0CCC0CCC0CCC0CCC0CCE1
:1015AA00C0FFC0FF000000000000000000000000B3
:1015BA0000000000C0CCC0CCC0CCC0CCC0CCC0CCD9
:1015CA00C0CCC0CCC0FFE0FF6000000000000000FB
:1015DA000006000600000000003E003E000600066D
:1015EA0000060006000600060006000600000000CD
:1015FA00000000000006000600000000003E003E59
:10160A0000060006000600060006000600060006A0
:10161A0000000000000000000000000000000000C0
:10162A00006000600060006E007F806380618063FC
:10163A00007F006E000000000000000000000000B3
:10164A0000000000001E003F80038001803F803FB1
:10165A0080018003003F001E00000000000000001F
:10166A00000000000000000000C380C7C0CC60D8A2
:10167A0060F860F860D8E0CC80C700C300000000C2
:10168A00000000000000000000000000801F803100
:10169A008061806180618031801F8007801980614C
:1016AA000000000000001027E80364000A0001009F
:1016BA0000100001100001000000320002020202C4
:1016CA00FFFFC607C607081714171E1725172F1777
:1016DA003C1744174C1754175A1762176B1774178D
:1016EA00781783178F179917A017A717AC17B11771
:1016FA00B717FF1E5AFF020202020B125400D2E56C
:10170A00ECEFE5F0E0F2F3F0E000C2EBE0E6EDEE3C
:10171A00F1F2FC00D2E0E9ECE5F000CDE0F1F2F004
:10172A00EEE9EAE800C2F0E5ECFF20E820C4E0F2C6
:10173A00E000C7E0E4E0EDE8E500CEF2EAEBEEED2A
:10174A002E00C3E8F1F2E5F02E00D0E5E6E8EC0061
:10175A00C2EAEBFEF7E5ED00C2FBEAEBFEF7E5EDC8
:10176A0000D0E0E7ECE5F0ED2E00D8E0E300CAEEA9
:10177A00F0E5EAF6E8FF20D200CAEEF0E5EAF6E87C
:10178A00FF20C2EB00C4E0F2F7E8EA20C2EB00D087
:10179A00E5E7E5F0E200ECE8EDF3F2FB00F7E0F153
:1017AA00FB00E4E5EDFC00ECE5F1FFF600E3EEE416
:1017BA00002D002B00C2DBCFCECBCDDFDE2020C731
:1017CA00C0CFC8D1DC00CFEEE2FBF2F0FF00C3F0DD
:1017DA00F3EDF200D3EFF0E0E2EB00CDE0EBE0F85E
:1017EA00F200253032783A25303278202020253010
:1017FA0032782E253032782E32302530327800CFAA
:10180A00EEECE8EBEAE020F7E0F1FBE221005B25F1
:10181A0032752E25755D00F2E5ECEFE5F0E0F2F3A6
:10182A00F0E0002A2A2E2A002532752E2575005B43
:10183A0025337525255D00E2EEEBEEE3FBF1F2FCC4
:10184A00002A2A2A25250025337525252000434FFD
:10185A003220EFEEECE8EBEAE020ECEEE4F3EBFF0B
:10186A002100434F322020202534750070706D000E
:10187A00434F3220ECEEE4F3EBFC20E2FBE4F1F31D
:10188A00F2EDFBE92E00F0CD20EFEEECE8EBEAE01A
:10189A0020ECEEE4F3EBFF2100F0CD2020202532EE
:1018AA00752E257500EEE4E8EDE8F6FC00F0CD2093
:1018BA0020ECEEE4F3EBFC20E2FBE4F1F3F2EDFBC7
:1018CA00E92E00D1D2C0CD20C3D0D3CDD2D300E4EB
:1018DA00E0F2F7E8EA20257500D1D2C0CD20D3CFB7
:1018EA00D0C0C2CBDBCDCDDF00D0C5CBC520204ECA
:1018FA0025753A2000C0C2D2004F4E20004F4646FE
:10190A0000693D25327500C2C8D5DBC4204E257555
:10191A003A2000D0D3D7002025337525252000C7CB
:10192A00C0C4C0CDC8DF20D4C0C7DB20257500776E
:10193A0077772E6772617669746F6E2E636F6D2E7C
:10194A00756100D0EEE7F3ECEDE000F2E5EFEBE8CD
:10195A00F6FF00C4E0F2F7E8EAFBE220F2E5ECEF7A
:10196A00E5F0E0F2F3F0E820257500C4E0F2F7E8CC
:10197A00EA20E2EEEBEEE3EEF1F2FB202575000041
:10198A00070001002D4E414E00494E46000002005C
:10199A000200C21601007103C4160400BF03C61672
:1019AA000200C703CA160200C903CC160200CD03FF
:1019BA00CE160400F703FC160400FB03001704000C
:1019CA006303041702006002BB1702006202BD171C
:1019DA0011006402BF1711007502BF1711008602B9
:1019EA00BF170C00970221180A00A302411814001D
:1019FA00AD0258180400C10276181600C5027A18FA
:101A0A001300DB0290180800EE02AF181600F60267
:101A1A00B7180C000C03CD1810001803E3180400C3
:101A2A002803FF1804002C030319040030030719C4
:101A3A0004003403FF18040038031D1914003C0382
:101A4A003919080050034D190800580355190100A7
:101A5A0062038A1901009C048C190000F894EE278D
:101A6A00ECBBF1E0FBBFEBBFE5BF8DE0A2E0BB271B
:101A7A00ED938A95E9F780E098E0A0E6ED93019767
:101A8A00E9F7E8E9F9E185919591009761F0A59167
:101A9A00B59105901590BF01F00105900D9201973F
:101AAA00E1F7FB01F0CFEFE5EDBFE8E0EEBFC0E6FE
:101ABA00D2E00C94A1190E94261EDC98DD98DF9AC8
:101ACA00DE98000005C00E94261EDD9ADE980000FE
:101ADA00DE9A21960895BA93AA93AAE203C0BA930A
:101AEA00AA93ABE2E8DF0E94361E0E943D1EDC9AF2
:101AFA0024960895BA93AA930E94441EAC81BD818C
:101B0A00EADFEC81FD81FA93EA93AA81BB810E9404
:101B1A00491E28960895BA93AA93A885B985A03430
:101B2A00E1E0BE0730F4AE81BF81A03FE0E0BE072E
:101B3A0008F0AEC00E944E1EAE0FBF1F1197A03410
:101B4A00E1E0BE0740F0A885B985E0E4F1E0EA1BD0
:101B5A00FB0BEC83FD83EA81FB81AE81BF81AE0F73
:101B6A00BF1F1197A03FE0E0BE0740F0AE81BF81E2
:101B7A00E0EFF0E0EA1BFB0BEA83FB830E94531EB3
:101B8A000E94531E0E94581EBA93AA930E94581E7E
:101B9A00B1DFEA81FB81EE83FF83AE81BF810E94C0
:101BAA00F922B8F4EC81FD81E887F987A885B9851F
:101BBA000E94F92240F40E943D1EE885F98531977A
:101BCA00E887F987F3CFEE81FF813197EE83FF83B0
:101BDA00E4CF5EC00E94601EEE81FF81AA85BB85AC
:101BEA00AE0FBF1F78DF0E94441EA885B9850E94E8
:101BFA00491E00E010E0EC81FD810E171F0728F452
:101C0A000E94361E0F5F1F4FF6CFDC9A198108819A
:101C1A003FC00E94601EAA85BB855DDF0E94441EEC
:101C2A00EE81FF81A885B985AE0FBF1F0E94491EAC
:101C3A0000E010E0EC81FD810E171F0728F40E94D6
:101C4A00361E0F5F1F4FF6CFDC9A1981088120C01C
:101C5A00BA93AA930E94531E0E94531E0E94531EB7
:101C6A000E94651E0E944E1E0E946A1E0E94651EE8
:101C7A000E94531E0E94441EAE81BF81CADF0E9489
:101C8A004E1E0E946A1E0E94441EAE81BF81C1DFA1
:101C9A002A960895AA932C97E0E0E887E987EA87CD
:101CAA00EB87EA89A885B9858A859B85FF276627F8
:101CBA0077270E94FD2208F04EC0AD89A03210F0AD
:101CCA00AF3708F004C0ED89F0E0B09704C0ED89A1
:101CDA00F0E0E156F040DF01EA89F0E00E94462296
:101CEA00A885B985EA0FFB1FAB89BC890E946F1EC4
:101CFA000E94C5220E94741EE0E00E94D822E9894F
:101D0A000E947B1EFF27662777270E94FD22B0F4D8
:101D1A00E881AC81BD818E819F810E94FD21F0788E
:101D2A0029F00E947E1EAF89B88D04C00E947E1ED3
:101D3A00AD89BE89F0DE0E949F1EE1CFE885F98554
:101D4A006A857B85EF5FFF4F6F4F7F4FE887F98783
:101D5A006A877B87A6CF6A960895AA93E881E030BE
:101D6A0011F4E1E0E883A985BA85EC91E03009F441
:101D7A0058C0ED81F0E0AD85BE85AE0FBF1FA0341F
:101D8A00E1E0BE0720F1E0E0ED87EE87AE81BB27F8
:101D9A00E881F0E00E944622AB85BC85EA0FFB1F72
:101DAA00EB87FC87EE81F0E0AB85BC85AE0FBF1FE9
:101DBA00A03FE0E0BE07A8F5A985BA85AC91A0329C
:101DCA0031F4E985FA853196E987FA87CCCFED8532
:101DDA00FE85FA93EA93ED85FE85FA93EA93AD853B
:101DEA00BE85EC91EA93EA85FB856C857D850E9428
:101DFA00DD220E94A81E0E94A81EAD854BDFAD8180
:101E0A00BB27E881F0E00E944622AD85BE85EA0F35
:101E1A00FB1FED87FE87E985FA853196E987FA8700
:101E2A00A2CF2F960895EAB3E46FEABBEAB3E36060
:101E3A00EABBEBB3E06FEBBBE4B3EC6FE4BBE5B337
:101E4A00E370E5BB0895BA93AA93EA81FB81AC815A
:101E5A00BD81AE17BF0708F40CC0EC81FD81A881D3
:101E6A00B981AE17BF0718F4E881F98102C0EC8185
:101E7A00FD8126960895BA93AA932897E0E0E8830D
:101E8A00E983EA83EB83EC83ED83EE83EF830E949D
:101E9A00AD1EEA17FB0790F40E94AD1EEA27FB2746
:101EAA00E88BF98B0E94AD1EEA27FB27EE87FF8796
:101EBA000E94AD1EEA27FB27E88BF98B0E94B21E0F
:101ECA00EA17FB0790F40E94B21EEA27FB27EC8769
:101EDA00FD870E94B21EEA27FB27EA87FB870E943A
:101EEA00B21EEA27FB27EC87FD87E889F9890E9459
:101EFA00B71EE88BF98BEE85FF850E94B71EEE8729
:101F0A00FF870E94A81E0E94C31EEC87FD87EA85F0
:101F1A00FB85FA93EA930E94C31EEA87FB87A88986
:101F2A00B989EE85FF85EA1BFB0B31960E94741E68
:101F3A00AC85BD85EA85FB85EA1BFB0B3196AC8136
:101F4A00BD818E819F81662777270E942622EC8396
:101F5A00FD836E837F83E889F989FA93EA93A889D6
:101F6A00B989B9DD0E94A81EAC85BD850E94491EAB
:101F7A00E0E00E94D822EC81FD816E817F810E947F
:101F8A007B1E0E94FD2240F4A9859DDDE885AE2FC7
:101F9A009ADD0E949F1EEFCFDC9A62960895DA9A24
:101FAA00A1E0B0E00E940621A1E00E94CD1EA2E3BA
:101FBA00B0E00E940621A8E20E94CD1EA0EC7BDDC3
:101FCA00A3E281DDA1EC77DDA0E17DDDA5EC73DD87
:101FDA00ABE279DDABE277DDA7EC6DDDA0EC73DD7A
:101FEA00A6E369DDA8E26FDDEFE3F1E0E093C30366
:101FFA00F093C403EFEEF0E0E093C503F093C60359
:10200A000E94D21E0E94D71E66DD0E94D21E0E9426
:10201A00DC1E65DDAAE34FDDA5E555DDA1EB0E94D7
:10202A00CD1EABE150DDA7EB46DDA7E04CDDA1E11B
:10203A000E94CD1EA6E9B0E00E940621A9E20E94F4
:10204A00CD1EA4EFB1E00E94062108951A930A93C7
:10205A0010E000E0E6B7E07859F41F5F193C38F069
:10206A00E0E0E0B9E6BF01E0E4E6E0B901C0F2CFA2
:10207A00E02F099119910895BA93AA930E9409230E
:10208A0011E0E4EA0E94E11E11F010E081C0E1B122
:10209A00E87FE83011F010E07BC0EA850E94E61E76
:1020AA0011F010E075C0E1B1E87FE83111F010E0FD
:1020BA006FC0EA85E07FE03A99F4E885F9850E94E5
:1020CA000E221E2F13B911E0E4E80E94E11E11F05E
:1020DA0010E05EC0E1B1E87FE83211F010E058C0CC
:1020EA00E8850E94E61E11F010E052C0E1B1E87FD7
:1020FA00E83211F010E04CC0E4EA0E94E11E11F04F
:10210A0010E046C0E1B1E87FE03111F010E040C0D4
:10211A00EA85EF5F0E94E61E11F010E039C0E1B1D6
:10212A00E87FE03411F010E033C0AC81BD81129732
:10213A00FCF020E030E0EC81FD8131972E173F075B
:10214A00BCF4E4EC0E94E11E11F010E021C0E1B100
:10215A00E87FE03511F010E01BC0AE81BF81119617
:10216A00AE83BF831197E3B1EC932F5F3F4FE3CF69
:10217A00E4E80E94E11E11F010E00AC0E1B1E87F34
:10218A00E83511F010E004C0E3B1AE81BF81EC93F1
:10219A00E4E9E6BFE12F0E94102390C2AA931A93A2
:1021AA000A9301E0E4EAE6BFE6B7E078E9F3E1B1D1
:1021BA00E87FE83011F000E047C0EF81E3B9E4E8D6
:1021CA00E6BFE6B7E078E9F3E1B1E87FE83111F07C
:1021DA0000E03AC0EF81E07FE03A91F4ED81FE81C0
:1021EA000E940E220E2F03B901E0E4E8E6BFE6B72B
:1021FA00E078E9F3E1B1E87FE83211F000E024C0C9
:10220A00ED81E3B9E4E8E6BFE6B7E078E9F3E1B1E6
:10221A00E87FE83211F000E017C010E0EA811E17EB
:10222A0098F4AB81BC81ED91AB83BC83E3B9E4E85C
:10223A00E6BFE6B7E078E9F3E1B1E87FE83211F00A
:10224A0000E002C01F5FEACFE4E9E6BFE02F198190
:10225A00088159C31A9310E0C098B89A25FE02C0A3
:10226A00AEE101C0AAE0B0E00E940621B89880EF72
:10227A0090E00197F1F7B09913C0B09902C01F5FBF
:10228A00FCCF1A3010F4E0E0FFC310E0B09B02C0AC
:10229A001F5FFCCF1A3010F4E0E0F6C3E1E0F4C3AC
:1022AA00E0E0F2C325970E94072330E0D3DFE03055
:1022BA0009F492C010E0153028F50E94E91EE0E00A
:1022CA00EC9300E00830E0F40E94E91EEC91EE0F76
:1022DA00EC93F894B09902C03F5FFCCF8BEA8A95E1
:1022EA00F1F730E0B09B02C03F5FFCCF3B3028F0F3
:1022FA000E94E91EEC91E160EC9378940F5FE2CFC3
:10230A001F5FD9CFEF81AE81EA0FA885EA0FA985B1
:10231A00EA0F3E2FEA85E31709F054C025FE08C0EC
:10232A00AE81EAE0EA9FA001A885EA9FF0010FC00A
:10233A00AE810E94F01EEF81F0E0EA0FFB1FAF01B1
:10234A00A8850E94F01EE985F0E0EA0FFB1FE093E2
:10235A00C903F093CA03E091CB03F091CC03A09197
:10236A00C903B091CA03EA0FFB1FE093C903F093B4
:10237A00CA03DA01EAE0F0E00E9450220E94F71E46
:10238A00E091CF03F091D0030E94FC1EEA0FFB1FDD
:10239A000E94F71EE0E0E093FF030E94FC1EA536B0
:1023AA00E0E0BE071CF0E4E6F0E006C00E94FC1E76
:1023BA00119734F4E1E0F0E0E093CD03F093CE031B
:1023CA00E1E07AC1A091FF03AF5FA093FF03A430BD
:1023DA0010F0E0E071C102C0E0E06EC16DC1AA93E5
:1023EA00E881E064E883E7B985E38A95F1F7369AEC
:1023FA00349BFECF349AE4B1F5B10EC3AA930E947E
:10240A00072330E0AE81AE3010F4EEE0EE83A8850B
:10241A00A43018F0E885E450E88700E0EF810E1751
:10242A0080F546EE50E010E0123020F5A6E03A9F23
:10243A00F001EC5DFB4FDF01EDE2E19FF001E40FFB
:10244A00F51FED93FC93A6E03A9FF001E85DFB4F80
:10245A00A8E20E94011FE75DFB4FAE810E94011FA7
:10246A00EA5DFB4FDF01E885F0E0ED93FC933F5F07
:10247A001F5FDACFEE81EA5FA885EA0FE8870F5F70
:10248A00CDCF40930A0450930B04EF81EE0FE093F3
:10249A0001040E940E2329960895AA930E94061FFA
:1024AA00F0E0E430A0E0FA0729F40E940B1F0E9432
:1024BA00092217C0E330A0E0FA0739F40E94D71EB8
:1024CA00E3E0F0E00E9450220CC0E230A0E0FA07FC
:1024DA0031F40E940B1FF695E795E95003C0E0918D
:1024EA00C303E6502E2FA885A43110F4E4E1E8874F
:1024FA00E885F0E00E94DC1EAE1BBF0B1497AE838A
:10250A00BF8330E000E0E9850E17C8F544E050E0EB
:10251A0010E0EA851E1740F5A6E03A9FF001E45F55
:10252A00FB4FBF01A12FBB27E22FF0E035960E9497
:10253A004622E40FF51FDB01ED93FC93A6E03A9FD8
:10254A00F001E05FFB4F20833A9FF001EF5EFB4F03
:10255A00A8850E94011FE25FFB4FAE81BF81A08365
:10256A00B1833F5F1F5FD5CFE885F0E03596AE8136
:10257A00BF81AE1BBF0BAE83BF830F5FC4CFEE819B
:10258A00FF81E0930804F0930904E985AA85EA0229
:10259A00F001E093000490C0BA93AA930E94061F28
:1025AA00A6E0EA9FF001E05FFB4F0E94101FEF5E7A
:1025BA00FB4F0E94171FE45FFB4F0E94201FE25F40
:1025CA00FB4F208131810E94271FAF89B88DA3DA82
:1025DA000E94271FAD89BE893BDB0E942E1FFF93F5
:1025EA00EF93A885B9850E94191EA5E0B0E00E9464
:1025FA001E22AF91BF91AE1BBF0B8D010E94361FE9
:10260A000E94411FEA85FB850E94461F0E944D1FBA
:10261A000E94411F0E94521FED89FE89FA93EA9394
:10262A00EB8DFC8D0E945D1F0E940E23619608951A
:10263A00BA93AA930E94061FA6E0EA9FF001E85DFA
:10264A00FB4F0E94101FE75DFB4F0E94171FEC5DB6
:10265A00FB4F0E94201FEA5DFB4F208131810E94BF
:10266A00621F29F00E94271FA0EEBFEF04C00E943C
:10267A00271FAFEFB7E0ECDA0E942E1F35978F01C4
:10268A000E94361F0E94621F49F00E944D1FE0E619
:10269A00F2E00E946A1FE0EEFFEF08C00E944D1FA1
:1026AA00E2E6F2E00E946A1FEFEFF7E0FA93EA939C
:1026BA00EC89FD890E945D1F0E940E232B960895C6
:1026CA00BA93AA932497E985F0E0AA85BB850E946C
:1026DA006D1F662777270E94721FEE81F0E0AC819A
:1026EA00BD810E946D1F0E947B1E662777270E946C
:1026FA004B220E94721FE985F0E0AF81B8850E94E3
:10270A006D1F0E947B1E662777270E948D220E94DA
:10271A00721FEE81F0E00E947B1E0E9419220E9425
:10272A00EC210E94721FE881F9812C9608950E947B
:10273A00751FE45FFB4F0E947D1FE05FFB4FE08146
:10274A00F0E0E00FF11F0E94871F18F00E948F1F10
:10275A0010F4E0E03EC0EC81A6E0EA9FF001E25FFF
:10276A00FB4F0E947D1FEF5EFB4F0E94961F0E9447
:10277A009B1F18F00E94A31F10F4E0E02AC028C093
:10278A000E94751FEC5DFB4F0E947D1FE85DFB4FA9
:10279A000E94961F33960E94871F18F00E948F1F6F
:1027AA0010F4E0E016C0EC81A6E0EA9FF001EA5DD1
:1027BA00FB4F0E947D1FE75DFB4F0E94961F3396D9
:1027CA000E949B1F18F00E94A31F10F4E0E001C0B2
:1027DA00E1E00E9410232596089524970E94092378
:1027EA00A69AAE98A79AAF9AD698DE98D598DD9809
:1027FA00A6E0F5DD9F01A5E0F2DD2E1B3F0BEFEF12
:10280A00F3E0E21BF30B9F012093060430930704C5
:10281A00283CE0E03E071CF406DBE0E072C0D698F4
:10282A00DE98A798AF98A69AAE9AD59ADD9810E046
:10283A00123060F40E94AA1FFF93EF93A6E0CFDD47
:10284A00AF91BF91ED93FC931F5FF2CF0E94AF1F30
:10285A002530E0E03E075CF70E94BA1FE0930204CD
:10286A00F0930304A698AE98D598DD98D69ADE9A86
:10287A00A79AAF9810E0123060F40E94AA1FFF9343
:10288A00EF93A5E0ACDDAF91BF91ED93FC931F5F91
:10289A00F2CF0E94AF1F2530E0E03E075CF70E94AE
:1028AA00BA1FAFEFB3E0AE1BBF0BA0930404B09303
:1028BA000504B9DAE0910204F0910304FA93EA9369
:1028CA00EDE7EA93EBE8F3E00E94C51F0E94D71EEA
:1028DA00F7DEE0930204F0930304E0910404F0911C
:1028EA000504FA93EA93E2E8EA93E7EAF3E00E943E
:1028FA00C51F0E94DC1EE4DEE0930404F093050485
:10290A00E1E00E941023289608950E94072340E0E0
:10291A0030E0361508F06FC00E941021A5E50E942C
:10292A005921A9E03A9FF001E356FC4F0E94CA1FC1
:10293A0020E0283038F40E94CF1FA0810E9459213C
:10294A002F5FF7CFE7EEF3E00E94CA1FAEEB0E94BB
:10295A00592120E0283058F40E94CF1FFF93EF93AB
:10296A000E945421AF91BF91EC932F5FF3CF0E9445
:10297A0054215E2FE7EEF3E00E94CA1FE091DF03C5
:10298A00F091E003FA93EA93A8E00E94D2215E173D
:10299A0001F540E00091E7031091E803112352F496
:1029AA00F8010E94F1218F010E94D81F8F010E9415
:1029BA00F12102C00E94D81F8F01A091E903AA3A0F
:1029CA0039F4E091EA03F0E0E7FDFFEF0E0F1F1F75
:1029DA0006C04F5F433018F006EC17E040E0E32FE3
:1029EA00A1EEB3E0F0E00E946F1E00831183403035
:1029FA0009F43F5F8ECF0E94E31F0E940E232696A2
:102A0A000895AA93A881A53610F0E4E6E883E88140
:102A1A00EE0FE883EE5CE88321960895BA93AA93B1
:102A2A00A981AA2342F4E881F9810E94F121E8836D
:102A3A00F983EDE201C0E0E2BE2EA881B981EAE0A5
:102A4A00F0E00E949222DE2EA881B981EAE0F0E04D
:102A5A000E946322AE2E229608951A930E94EB1FBB
:102A6A00A93CE0E0BE0780F010E0143030F4A12F5A
:102A7A005EDEE03011F41F5FF8CF143028F4E4E191
:102A8A005E2E412EE1E07E2E1991089522970E9432
:102A9A00072320E03AEF4FEF5FEF772009F1772421
:102AAA000E94D21E0E94F01F0E94F41F0E9404205E
:102ABA00E0E0EA930E940B200E94D21E0E94D21EDE
:102ACA000E940F200E9414200E94D21E0E940F20F2
:102ADA000E941B200E94D21E0E940F200E942220C8
:102AEA00E3E09E2E21FE3CC0E0EDEA930E94D21E56
:102AFA00E8EBF3E0FA93EA93A7E0B0E0BDDA0E94CC
:102B0A00411FECEEF7E1FA93EA93E091BA030E94CF
:102B1A002820E091B9030E942820E091BC030E947A
:102B2A002820E091BD030E942820E091BE030E9464
:102B3A00282084E10E94591C68960E942E200E9437
:102B4A00521F0E940F200E94D21EA1E006D90E94A5
:102B5A002E200E94521F0E94D21EEFEFFFEF18C0D4
:102B6A000E94411FE9E0F8E10E94461F0E942E20C0
:102B7A000E94521F0E9437200E945D1F0E942E2031
:102B8A000E94521FEFEFF7E0FA93EA93EFE1F0E0C9
:102B9A00FA93EA93A1E0E1D8E6E19E0E1EDEE03068
:102BAA0009F05BDFA0E0B0E00E94E9220E943E202B
:102BBA00E8E1F8E10E944520ED2D0E9428200E94BC
:102BCA0049200E944E2035960E9455200E94521F8D
:102BDA000E9458200E944E207996FA93EA93E7E9D8
:102BEA00F2E00E946A1F0E945820A091C903B09186
:102BFA00CA03A33EE4E0BE073CF00E94411FEDE297
:102C0A00F8E10E94461F0FC0E091C903F091CA0380
:102C1A000E943E20E2E3F8E10E944520ED2D0E9449
:102C2A0028200E944920ECE8F0E00E945F200E94E0
:102C3A0055200E94521F0E946420E091BF03F0E0D9
:102C4A00309739F0E130A0E0FA0719F4EFEFF7E036
:102C5A0002C0EFE1F8EFEE83FF83E8E1F1E00E94C2
:102C6A005F200E946B20E7E39E0EB7DDE03009F09B
:102C7A00F4DE0E94411FE9E3F8E1FA93EA93A8E03F
:102C8A00B0E00E94E9220E947A200E944E203596E6
:102C9A000E9455200E94521F0E9458200E944E20D6
:102CAA007996FA93EA93E3EAF2E00E946A1F0E9495
:102CBA0058200E94FC1EA536E0E0BE072CF00E94B8
:102CCA00411FEBE4F8E104C00E94411FE1E5F8E18D
:102CDA00FA93EA93E091CD03F091CE030E947A2011
:102CEA00EEE8F0E00E945F200E9455200E94521FE9
:102CFA000E946420E091C003F0E0309739F0E1309F
:102D0A00A0E0FA0719F4EFEFF7E002C0EFE1F8EFFD
:102D1A00EE83FF83E8E1F1E00E945F200E946B20CE
:102D2A005CDDE03009F099DEE7E39E0E26FE39C04D
:102D3A00C3FE0DC00E948320FA93EA93EDEAF2E003
:102D4A000E946A1F0E943720FA93EA9326C00E94C3
:102D5A00411FECE6F8E1FA93EA93E091D103F0918E
:102D6A00D2030E947A20E4E1F0E00E945F200E94F0
:102D7A0055200E94521F0E948620A2E00E94B20E95
:102D8A00EAEFF0E00E945F203A96FA93EA93E1ECC8
:102D9A00F2E00E946A1F0E948620A1E00E94B20E01
:102DAA000AC00E948320FA93EA93E5ECF2E00E94BB
:102DBA006A1F0E945820E3E29E0E24FE3CC0C3FE16
:102DCA000DC00E948320FA93EA93EBEDF2E00E9491
:102DDA006A1F0E943720FA93EA9329C0E091D3032D
:102DEA00F091D4030E943E20E3EAF8E10E944520D4
:102DFA00ED2D0E9428200E944920E4E1F0E00E9483
:102E0A005F200E9455200E94521F0E948620A2E045
:102E1A000E94B20EE6EEF0E00E945F203A96FA9324
:102E2A00EA93EEEEF2E00E946A1F0E948620A1E079
:102E3A000E94B20E0AC00E948320FA93EA93E6EF38
:102E4A00F2E00E946A1F0E945820C7DCE03009F0B5
:102E5A0004DE44C222970E94072301E020EF32E0F9
:102E6A004FEF5FEFE7E09E2E772069F177240E940B
:102E7A00D21E0E94F01F0E94F41F0E94D21E0E94BE
:102E8A00D21EEFEFFFEF0E94C51F0E940B200E9487
:102E9A0004200E9414200E94D21E0E940F200E9429
:102EAA001B200E94D21E0E940F200E942220E4E6CC
:102EBA00F0E00E945F20FA93EA93ECE0F3E00E94CC
:102ECA006A1F0E945820E4E19E0E10E0161508F0D1
:102EDA0048C00E94411FE9EDF8E1FA93EA93E12F15
:102EEA00F0E031960E947A200E944E203C960E9481
:102EFA0055200E94521F0E945820E12FA1EEB3E0F4
:102F0A00F0E0EE0FFF1FAE0FBF1F0E948B20A33E03
:102F1A00E4E0BE0738F00E94411FEDE2F8E10E94AA
:102F2A00461F0EC0AE81BF8179DD0E94411FE2E3D8
:102F3A00F8E10E944520ED2D0E9428200E94492098
:102F4A00E8E7F0E00E945F200E9455200E94521F8D
:102F5A000E948620A2E00E94B20EE3E29E0E1F5F4C
:102F6A00B5CF3BDCE03009F078DDB8C122970E948A
:102F7A0007232FEE3BE74FEF5FEFE7E09E2E772028
:102F8A0009F447C077240E94D21E0E94F01F0E94B3
:102F9A00F41F0E94D21E0E94D21EEFEFFFEF0E9482
:102FAA00C51F0E940B200E94D21E0E94D21E0E94A0
:102FBA000F20E1E0EA93A8EDB7E1EEDA0E940420DF
:102FCA000E941B200E94D21E0E940F200E942220D3
:102FDA00E92DE75EEA93E8E0EA93A0E10FDA10E070
:102FEA00E09101040E949220F0E0AE17BF072CF492
:102FFA001A93D9011DDB1F5FF3CFEAE5F0E00E94C7
:10300A005F20FA93EA93E8E1F3E00E946A1F0E94C4
:10301A005820E3DBE03009F444C00E94972030F0E6
:10302A000E94EB1FA436E0E0BE0708F039C010E0AA
:10303A00183034F4A12FA4DBE03011F41F5FF8CF6D
:10304A0018306CF5E4E15E2E0E949220E2E0F0E096
:10305A000E949222309711F00FEF01C001E00E9406
:10306A009220E2E0F0E00E9463221E2FA12FB0E03E
:10307A00A550BC4FEC91E00FEC930E949F20A081D9
:10308A00A33024F00E949F20A0E008C00E949F2045
:10309A00A081A03024F40E949F20A2E0A08301C056
:1030AA00DCDCE4E19E0E10E014300CF059C00E9402
:1030BA00411FE3EFF8E10E94A4200E949F20E081D3
:1030CA00F0E0E7FDFFEFE230A0E0FA0739F40E94F2
:1030DA00411FA8E2B3E00E94FC1D16C0E130A0E047
:1030EA00FA0741F40E94411FACE2B3E00E94AC200F
:1030FA00A1E009C0309741F40E94411FA0E3B3E068
:10310A000E94AC20A0E0A0830E944E200E9455207D
:10311A000E94521F0E945820E12FF0E0E759FC4F0D
:10312A00E081E03019F0EFE1F0E002C0EFEFFFEFED
:10313A00EE83FF83E0EAF0E00E945F20FA93EA93CD
:10314A00E8E2F0E0FA93EA93E2E1F0E0FA93EA9334
:10315A00AE85BF850E94900DE6E19E0E1F5FA4CF4B
:10316A003CDBE03009F476C00E94972060F00E94B0
:10317A00EB1FA536E0E0BE0730F00E94EB1FA83C2B
:10318A00E0E0BE0708F065C018E0103134F4A12F62
:10319A00F7DAE03011F41F5FF8CF0E94411FEBE02D
:1031AA00F9E1FA93EA93E12F0E9413220E94DD22A9
:1031BA000E94B320E5E0F0E0FA93EA93EAEAF0E04D
:1031CA000E9455200E94521F0E94D21EEFEFFFEF6D
:1031DA000E945D1F1031E4F5E4E15E2E0E94922008
:1031EA00E2E0F0E00E949222309711F00FEF01C066
:1031FA0001E00E949220E2E0F0E00E9463221E2F8A
:10320A0014500E94B8207E2F8F2F6081AAE00A02F4
:10321A00F001E60FA72FB82FEC930E94B820A081E7
:10322A00A53624F00E94B820A4E611C00E94B82056
:10323A00A081A93021F40E94B820AAE008C00E9407
:10324A00B820A081AF3F24F40E94B820AFEFA0833A
:10325A0001C003DC10E01430ECF50E94411FE1E1EB
:10326A00F9E10E94A4200E94B820A081AF3F39F45E
:10327A000E94411FA4E3B3E00E94FC1D0AC00E9401
:10328A00411FA8E3B3E00E94FC1D0E94BD20E0811B
:10329A00EC93E4E8F4E0FA93EA93E1E2F9E1FA93D1
:1032AA00EA930E94C220E0810E9428200E94B32053
:1032BA000E94411FA4E8B4E00E94FC1D0E944E2017
:1032CA000E9455200E94521F0E945820E6E19E0E3D
:1032DA001F5FC1CF82DAE03009F0BFDB0E940E2304
:1032EA0028960895E42DF0E0309761F0E130A0E0EF
:1032FA00FA0711F4AFDD07C0E230A0E0FA0711F4D3
:10330A0035DE01C0C3DB0895AA93BA93EA93FA9310
:10331A00EFB7EA93AEE8B4E00E94C720E991EFBFA5
:10332A00F991E991B991A9911895EA93EFB768943F
:10333A0020F8EFBFE9911895E0E0E2BBE1BBEFBDF1
:10334A00E5E0EEBDE0E0EDBDECBDEBB7E064EBBF60
:10335A00E2E0E5BFE0E0E4BFE0E4EABFE4E0E9BFC1
:10336A00E0E0EBB9E8EDEAB9E6E8E0BDE0E0E0BDAF
:10337A00E7E6E9B9E0E8E8B9E0E0E0BFE8E4E0B9A7
:10338A00E0E0E2B9E4E4E6BFE0E0E1B9E0E4E7B9AD
:10339A00E4E8E6B9A0E2B0E00E94E922E093CB03B8
:1033AA00F093CC03A2E2B0E00E94E922E093CF03BB
:1033BA00F093D003A4E2B0E00E94ED220E9402231F
:1033CA0025F8A8EEB3E00E9406210E9457110E9438
:1033DA00022322F8E0EFEA93ADE9B3E00E94632109
:1033EA006E2E0E94CD20AE0FBF1F149734F0E0E07E
:1033FA0022FCE1E0A3E0AE1B6A2E662011F00E94D7
:10340A00E31FE0E0E093B803E093B903E0EDEA9349
:10341A00EEE0F0E0FA93EA93E8EBF3E0FA93EA934A
:10342A00A2E00E94D3100E94022321F878940E94FD
:10343A00180F0E94D40F0E94D21E0E94F01FE09122
:10344A00C503F091C603FA93EA93A091C703B0911A
:10345A00C8030E94400FEAE09E2EECE3F0E00E94CF
:10346A005F20FA93EA93ECE3F3E00E946A1F0E945A
:10347A00D21E0E94D4200E945D1F0E94D920FA9376
:10348A00EA93E0E5F3E00E946A1F0E94D21E0E94BE
:10349A00DE200E94D920FA93EA93E8E5F3E00E943D
:1034AA006A1F0E94D21E0E94DE20EDE29E0E0E943A
:1034BA00411FEDE5F9E1FA93EA930E94CD20EA0F64
:1034CA00FB1F0E947A200E9483200E9455200E949E
:1034DA00521F0E94D21E0E94D4200E945D1FE4E166
:1034EA009E0E0E94411FE5E7F9E1FA93EA93E0E0B4
:1034FA0022FCE1E00E9428200E94B3200E9483203F
:10350A000E9455200E94521F0E94D21E0E94D4205F
:10351A000E945D1FE1E07E2EF8D920FE4EC0E8949D
:10352A0020F8662009F0F1D922FE15C00E94571131
:10353A00E03019F0E3E08E2E0EC0882011F08A9454
:10354A000AC0ECE6F7E0E093C903F093CA03EEEB96
:10355A00F0E00E94F71E10E0143078F40E949F20D9
:10356A00A081A23044F4A12FB0E0A759BC4F0E9419
:10357A009F20E081EC931F5FEFCF10E01430E8F456
:10358A000E94B820A081A0302CF00E94BD20E081CA
:10359A00EC9304C00E94C220A0E0A083E12FF0E0D7
:1035AA00EF58FC4FFF93EF930E94C220A08129DAC3
:1035BA00AF91BF91EC931F5FE1CF94DEAECFFFCF07
:1035CA00BA93AA931A930A93AA81BB8112960E946C
:1035DA00C122309729F1AA81BB8114960E94C12287
:1035EA008F01309761F00230E0E01E0780F0F801A9
:1035FA0031978F01AA81BB811496ED93FC93AA811E
:10360A00BB8112960E94C7203197AC81A083AA8100
:10361A00BB810E94C122FF2312F00E94C72006C06C
:10362A00AA81BB81EFEFFFEFED93FC93198108812B
:10363A0025960895BA93AA9326970E94072310E025
:10364A00AC85BD85E0E0F0E0ED93FC93EA89FB8967
:10365A003196EA8BFB8B3197E4912E2FE03009F4F7
:10366A001BC1E12FE03039F4253211F411E002C018
:10367A000E94E42010C1E130A9F4253219F40E9415
:10368A00E42008C112E040E000E02D3211F401E02C
:10369A0002C12B3211F44BE2FEC0203211F440E297
:1036AA00FAC002C0E23039F450E013E0203311F4DA
:1036BA000068F1C003C0E33009F0EDC0203310F018
:1036CA002A3308F007C0AAE05A9F502DE22FE05390
:1036DA005E0FE1C0E22FE33649F40E94EB20E8894D
:1036EA00F989A481AA930E94F120D4C0E33759F43E
:1036FA000E94EB20A889B98914960E948B200E9407
:10370A000D1E1E2F0DC0E03779F40E94EB20A88908
:10371A00B98914960E948B200E94191E1E2F0860D8
:10372A0002600F7730E034C0E43611F0E93611F464
:10373A00046002C0E53731F4E0EBF6E1EE83FF8383
:10374A0015E00CC0E83511F4086003C0E83709F049
:10375A00A1C0EAEBF6E1EE83FF8314E002FF14C096
:10376A000E94EB200E94F720AB85AA233AF4EA854F
:10377A00FB850E94F121EA87FB874DE2403011F078
:10378A001F5F01C00B7F04C00E94EB200E94F7203C
:10379A0000FD11C0151778F407FF08C002FF04C026
:1037AA000B7F242F115001C020E301C020E20E94A8
:1037BA00E4205150EFCF312F01FF17C03030A1F074
:1037CA0003FF06C0EE81FF812591EE83FF8305C0CA
:1037DA00AE81BF812D91AE83BF830E94E420503019
:1037EA0009F051503150EACF4BC020E3EE81FF81FE
:1037FA000E94C522E887F987EE81FF813296EE831F
:10380A00FF83E885F985AA85BB85AE17BF0750F007
:10381A002F5FA885B985EA85FB85EA1BFB0BEA873A
:10382A00FB87EFCF2A3328F003FF02C0295F01C0CC
:10383A00295D04FD1AC0213320F4A885B9851197A2
:10384A0009F409C0531710F000FF01C013C020E2A9
:10385A0007FF0BC020E3006102FF07C00B7F4A93FA
:10386A000E94F120503009F051500E94E42050305B
:10387A0009F051503150A885B985129708F0B5CF93
:10388A0000FF08C0503031F05150E0E2EA930E9444
:10389A00F120F8CF10E0DACEAC85BD850E94C122B6
:1038AA000E940E2364960895FF92F82E26970E948E
:1038BA0009230E94FF20309719F4EFEFFFEF23C08E
:1038CA00DE0116960E94E8218D010E94FF20EE83F8
:1038DA00FF83E0E0E887E987DE011A960E94E82183
:1038EA000E94C122FA93EA931A930A93E5EEFAE147
:1038FA00FA93EA93DE011A969DDE9F01AE81BF819B
:10390A00E0E0EC93F9010E9410232A96FF900895B3
:10391A000A921A92FA926A937A938A939A93AA9338
:10392A00BA93EA93FA93EFB7EA930E9407231091A6
:10393A006103009160033091930420916203E12FA7
:10394A00A0919404B0919504F0E0EA0FFB1FAF0137
:10395A00E1B1E87FE83011F420E002C0E03119F467
:10396A00E091900410C0E83111F0E83221F5031714
:10397A0080F4E02F0F5FA0919104B0919204F0E0DF
:10398A00AE0FBF1FEC91E3B9E6B7EF70E068E6BF90
:10399A0011C0E09196041E1760F4E0919004E16072
:1039AA00E0939004E89430F8E6B7EF70E06AE6BF77
:1039BA00FBC033C0F9C0E03529F4E3B1DA01EC9376
:1039CA001F5F02C0E03471F4E0919604E1501E17C3
:1039DA0020F0E6B7EF70E06803C0E6B7EF70E06C7E
:1039EA00E6BFE2C0E83529F4E3B1DA01EC931F5FE0
:1039FA0002C0E03209F402C0E03309F402C0E8343C
:103A0A0069F4203051F430FE03C0031728F005C0D2
:103A1A00E09196041E1708F424E0C0C0E83329F4A4
:103A2A0022E0E6B7EF70E068BCC0E83611F0E8378C
:103A3A0011F422E005C0E03611F0E03791F420E0FD
:103A4A0010E0E89430F8E0919704E03029F421E09E
:103A5A00E6B7EF70E06803C0E6B7EF70E06CE6BF68
:103A6A00A3C0E03811F0E03929F530FE02C021E0A8
:103A7A0095C0E3B1DA01EC931F5FE09197041E173A
:103A8A00B0F4E0919804F0919904309711F426E08B
:103A9A0085C0A0E0E0919804F09199040995E0307E
:103AAA0029F0E6B7EF70E06CE6BF7EC002C068940A
:103ABA0030F802C0E83809F402C0E83929F4E6B758
:103ACA00EF70E068E6BF70C0E03AA9F4E6B7EF70BD
:103ADA00E06CE6BF689431F8E0919804F09199049B
:103AEA00309739F0A1E0E0919804F0919904099592
:103AFA0001C026E059C0E03B11F422E002C0E83AD6
:103B0A00B9F4E0919A04F0919B04309759F0A0E03F
:103B1A00E0919A04F0919B0409953E2FE03011F050
:103B2A0020E002C026E03AC000E0E89430F802C083
:103B3A00E83BE1F430FE02C021E030C0E02F0F5F25
:103B4A00A0919104B0919204F0E0AE0FBF1FEC91E6
:103B5A00E3B9031720F4E6B7EF70E06C05C0689488
:103B6A0030F8E6B7EF70E068E6BF1EC0E03C11F03F
:103B7A00E83C89F4E6B7EF70E06CE6BFE0919A049E
:103B8A00F0919B04309731F0A1E0E0919A04F09112
:103B9A009B04099507C0E03039F423E0E6B7EF70DB
:103BAA00E06DE6BF689431F81093610300936003F7
:103BBA0020936203309393040E940E232696E99180
:103BCA00EFBFF991E991B991A99199918991799167
:103BDA006991F990199009901895BA93AA93E99165
:103BEA00F99130971AF4E095F09531960895BA93C1
:103BFA00AA93E991F991A991B991CD016D916623A1
:103C0A00E9F7119761916D936623E1F7FC01089535
:103C1A00BA93AA93A991B991EE27FF276D916623CA
:103C2A0011F03196FBCF0895BA93AA93AA27BB271E
:103C3A00E991F9910590002011F01196FBCFFD0151
:103C4A000895AA93EBB3EC7FAE2FE881E370EA2BD9
:103C5A00EBBBE5B3E370AE2FE881EC7FEA2BE5BB63
:103C6A000895AB810E94680DEA81AE2F0C94680D0D
:103C7A00A9810E94680DE881AE2F0C94680DEE812F
:103C8A00FF81FA93EA9308950E94740DACE20C94B2
:103C9A00600DEC81FD81A885B9850895E885F985CF
:103CAA00FA93EA930895E885F985AC85BD85AE0F48
:103CBA00BF1F11970895BA93AA931A930A93EECF46
:103CCA00AE81BF810E94EF0DE9CFEA0FFB1FFA9385
:103CDA00EA93E4CFEE0FFF1FEA0FFB1F0895662752
:103CEA007727EC83FD836E837F8308950E94CE221B
:103CFA000895EC85F0E0A881B9810E941E22A88D62
:103D0A00B98DEA0FFB1FFA93EA93EE85F0E0AA85D4
:103D1A00BB850E941E22A88DB98DEA0FFB1FFA935C
:103D2A00EA93E889F0E0FA93EA93EA89F0E0FA93F1
:103D3A00EA9308950E94C922EF5FFF4F6F4F7F4FAA
:103D4A000E94D3220895EC85FD85FA93EA9308959B
:103D5A00EE85FF85A889B9890895EA85FB85AC8532
:103D6A00BD850895FA93EA93E0E0F0E0FA93EA93C6
:103D7A00A091C303B091C4030C94280FE0E0F0E0D3
:103D8A00FA93EA93A091C503B091C6030C94280F45
:103D9A000E94600DA0E00C94680DE0E0F0E0FA9358
:103DAA00EA930895A091C303B091C4030895A09122
:103DBA00C503B091C6030895E6BF0E942B10E030F8
:103DCA000895E3B9E4E8F8CFE12FF0E0DE011696B2
:103DDA00AE0FBF1F0895B0E0E0E0F1E00E94462276
:103DEA00DF010895E093CD03F093CE030895A091E7
:103DFA00CD03B091CE030895A083A6E03A9FF001C7
:103E0A00089522970E940723EA850895E091C30343
:103E1A00F091C403089540815527EA85A6E0EA9FF8
:103E2A00F0010895E081F0E0EE83FF83EA85A6E0E1
:103E3A00EA9FF001089500811181EA85A6E0EA9FD0
:103E4A00F00108951A930A933A932A935A934A933C
:103E5A007ACFDA01E2E0F0E00E946322E00FF11F7C
:103E6A000895AE81BF81E2E0F0E00E946322E20F92
:103E7A00F31F38979F010895E5E7F3E0FA93EA9371
:103E8A000895FA93EA9380E00E94591C24960895B3
:103E9A001A930A933A932A930895E0916303F0914F
:103EAA00640360916503709166030E94DD220895A0
:103EBA00FA93EA93A1E00C94B20EAA85BB27E2E03A
:103ECA00F0E00E94922230970895FA93EA93E5CFA0
:103EDA000E94E222EA1BFB0B08950E94D322089556
:103EEA00AA930E940923EC81A6E0EA9FF0010895B3
:103EFA00DF010E94C12233978F01EC81A6E0EA9F7D
:103F0A00F00108959F01A0910204B0910304A01743
:103F1A00B1070895A0910204B09103042A173B0740
:103F2A000895E081F0E0E00FF11F08959F01A0914C
:103F3A000404B0910504A017B1070895A0910404E0
:103F4A00B09105042A173B070895E12FF0E0DE013E
:103F5A001496C0CEAE81BF81EC81FD81EA1BFB0BBA
:103F6A00DF010E94F21D9F010895EE81FF81AC815D
:103F7A00BD81AE0FBF1FE2E0F0E00E946322089508
:103F8A00FA93EA93E0E0EA930895E093DF03F0936B
:103F9A00E0030895AFEDB3E0ED91FD913196FE9304
:103FAA00EE9331970895F801AAE0B0E00E94462204
:103FBA00DF01E0E1F0E00E94632208950E941021EF
:103FCA00ACEC0E945921A4E40C945921A091040458
:103FDA00B091050408951ADFFA93EA93DECEE091D0
:103FEA00C503F091C603FA93EA93D9010E94400FE0
:103FFA00E4E0EA93E1E0EA93A9E10C9452123A93DD
:10400A002A933A932A935A934A930895A0EDB7E1D3
:10401A000C94D112EFEFFFEFFA93EA930895E1E0DF
:10402A00EA93A8EDB7E10E94D112B7CEE2E0EA9393
:10403A00AEEDB7E10E94D112B0CEE3E0EA93A5EE6D
:10404A00B7E10C94D112FF27662777270E94DD2259
:10405A000895E6E4F0E0FA93EA93E92DF0E0FA93A2
:10406A00EA930ACFEFE1F0E0FA93EA93EFEFF7E091
:10407A000895EE83FF83AE81BF810E941315FCCEA3
:10408A00FA93EA93EA2DDFCF88E00E94591C2C9616
:10409A000895E5E0F0E0FA93EA93E92DF0E0089557
:1040AA00FA93EA93E9CE5A934A933A932A93A1E070
:1040BA000C94B20EFA93EA93E92DF0E008955A931C
:1040CA004A933A932A93A3E00C94B20E3296FA9347
:1040DA00EA93EEE1F0E0FA93EA93EDE2F0E0FA9384
:1040EA00EA93AE85BF850C94900D0E9419220E9416
:1040FA00DD2284E00E94591C28960895EAE0F0E047
:10410A00D9CF5A934A933A932A9308950E94C12287
:10411A00EE83FF83AE81BF810895A12FB0E0A7FD92
:10412A00BFEF0895A0910204B0910304AD3DE0E011
:10413A00BE070895E12FF0E0E550FC4F0895FA9389
:10414A00EA93E12FF0E0E7FDFFEF3196CECF0E9430
:10415A00FC1DE12FF0E0E759FC4F089584E00E942E
:10416A00591C28960895E12FF0E0E950FC4F089574
:10417A00A12FB0E0A359BC4FF6CFE12FF0E0E359ED
:10418A00FC4F0895ED91FD913196FE93EE930895BB
:10419A00A62DBB27E0E022FCE1E0F0E00895E091E3
:1041AA00C703F091C8030895EEE19E0EE0E5F0E042
:1041BA0081CFF5DFFA93EA93A2E00C94B20E2A9328
:1041CA00AD85BE85EF85F88909950895E889F9894D
:1041DA003497E88BF98B0895AD85BE85EF85F8890C
:1041EA0009950895A889B98914960E94C122EA8777
:1041FA00FB870895DE011C960E94E8210E94C122D5
:10420A000895109639F080EA9FE00197F1F7A89592
:10421A001197C9F70895EE27C498BC9A80E897E0E9
:10422A000197F1F7BC988BE48A95F1F7B49B08954E
:10423A0080E391E00197F1F7B49BE1E088E196E031
:10424A000197F1F70895BC9A8BE08A95F1F7BC982B
:10425A008BE38A95F1F78894B4990894E79580E4FA
:10426A0091E00197F1F70895E894BC9A8BE08A955A
:10427A00F1F770FDBC9885E48A95F1F7B49903C00B
:10428A0070FF03C0089570FF08958CE291E00197D2
:10429A00F1F7BC988BE18A95F1F76894089568E084
:1042AA00D2DF6A95E9F708957A2F68E0EE27DCDF16
:1042BA0026F477956A95D9F7E39508954F935F9316
:1042CA0011244427012C1124A6DFEE2301F1AF9318
:1042DA00A881EADFAF9151E0501598F4B4DFE7FD09
:1042EA0008C0B1DFE7FD06C03FD0892319F4152EB7
:1042FA0001C0A9DF39D0892370E009F071E0B4DF89
:10430A001EC0A1DFE7FF0BC09EDFE7FF05C0E42F59
:10431A005F914F9121960895689437D0EFCF93DF3C
:10432A00E7FF01C003C0501531F0152EE8942DD0D7
:10433A0077279ADF04C0689428D071E095DF5395F7
:10434A00513454F280DFEE1FEE1FE1701896EC93A1
:10435A00189743951120D9F259E0EC911996EC93EC
:10436A0018975A95D1F7AECFE52FEA956E2FE695B5
:10437A00E695E695FF27EA0FFB1F808191E06770BB
:10438A0019F0990F6A95FCCF0895EEDF1EF090950B
:10439A00892301C0892B80830895EE27AA2389F0F7
:1043AA008A2F68E1A881B98198E0FD917F2F7E2745
:1043BA00779508F4E627E795F6959A95B9F78A95D9
:1043CA0099F7229608950024AF0DB01D0895EA0FBB
:1043DA00FB1F681F791F0895F195E195F040089534
:1043EA00F09560957095E195FF4F6F4F7F4F089557
:1043FA00EE230E2EFD01BC0131F0EE0FFF1F661FEA
:10440A00771F0A94D1F70895F695E795F695E795FB
:10441A000895EF2FFF27E7FDFFEF0895FE2FFF0F07
:10442A00FF0B6F2F7F2F08956F2F660F660B762F66
:10443A000895FA9FF02DEB9FF00DEA9FE02DF10D04
:10444A0008957A9F702D6B9F700DF89F700DE99FEC
:10445A00700D6A9F602D710DFB9F600D711DE89FA5
:10446A00600D711D8827FA9FF02D610D781FEB9F53
:10447A00F00D611D781FEA9FE02DF10D681F781F6E
:10448A00089559D0D6DF0EF4A7DF089562D0D9DF98
:10449A000EF4A6DF08950024112490E1AA0FBB1F91
:1044AA00001C111C0E1A1F0A18F40E0E1F1E01C042
:1044BA00A1609A9599F7FD01D00108953CD0EBDFF0
:1044CA000EF48ADF08953F934F935F9300241124DB
:1044DA004427552730E2AA0FBB1F881F991F001CCB
:1044EA00111C441F551F0E1A1F0A460B570B28F49E
:1044FA000E0E1F1E461F571F01C0A1603A9559F79D
:10450A00FD01BC01D001CA015F914F913F9108950D
:10451A0020D0D9DF0EF464DF0895E894B7FF04C011
:10452A00A095B09511966894F7FD56DFB4DFFD01AA
:10453A000EF452DF0895E894F7FF02C04DDF689445
:10454A00B7FF06C0A095B095119600F8039400FA3B
:10455A000895E89477FF02C043DF689497FF0BC081
:10456A000024A095B095809590951196801D901D78
:10457A0000F8039400FA0895ED91FC9111970895BB
:10458A000590F491E02D0895E881F9816A817B8193
:10459A000895A881B9818A819B810895E883F98366
:1045AA006A837B830895E883E983EA83EB8308952A
:1045BA007A936A93FA93EA9308951B2EBF2FF12DEB
:1045CA001A2EAE2FE12D0895119602D0FE2F1197C3
:1045DA00E199FECFFF93FFB7F894AEBBBFBBE09A59
:1045EA00EDB3FFBFFF91089500240A160B06089544
:1045FA00AE17BF07860797070895E894EE2309F0D8
:10460A00689408955A934A933A932A931A930A9369
:10461A0008955D814C813B812A8119810881089521
:00000001FF
