:100000000C94240D0C945F1D0C9400000C940000C3
:100010000C9400000C9400000C9400000C94000060
:100020000C9400000C94701D0C9400000C940000C3
:100030000C9400000C9400000C9400000C94000040
:100040000C9400000C9400000C9400000C943B20D5
:100050000C94000000000000000000000000000000
:100060000000000000000000000000000000000090
:1000700000000000000000000000000C000C000C5C
:10008000000C000C000C000C000C000C000C000C10
:100090000000000C000C0000000000000000001B2D
:1000A000001B001B001B001B0000000000000000E4
:1000B0000000000000000000000000000000000040
:1000C00000008019801980198019C07FC07F8019B5
:1000D0000033C07FC07F00330033003300330000A3
:1000E000000000000000001E003F80758065007465
:1000F000003C001E00078005806580658075003F1C
:10010000001E0004000400000000007000D840D869
:10011000C0D880D900730006000C801BC036C066B2
:10012000C046C00680030000000000000000001E62
:10013000003F003300330033001E000CC03CC0669B
:10014000806380618063C03E801C0000000000006E
:100150000000000C000C000C000C000C0000000063
:10016000000000000000000000000000000000008F
:1001700000000000800000010003000600060004EB
:10018000000C000C000C000C000C000C000400061D
:100190000006000300018000002000100018000C81
:1001A000000C00040006000600060006000600061B
:1001B0000004000C000C0018001000200000000CCF
:1001C000002D003F001E0033000000000000000072
:1001D000000000000000000000000000000000001F
:1001E000000000000000000C000C000C000CC0FF20
:1001F000C0FF000C000C000C000C00000000000010
:1002000000000000000000000000000000000000EE
:100210000000000000000000000000000000000CD2
:10022000000C0004000400080000000000000000B2
:1002300000000000000000000000001E001E000082
:1002400000000000000000000000000000000000AE
:10025000000000000000000000000000000000009E
:10026000000000000000000C000C00000000000076
:10027000000000030003000300060006000600065D
:10028000000C000C000C000C0018001800180000F6
:10029000000000000000001E003F0033806180610C
:1002A0008061806D806D8061806180610033003F7E
:1002B000001E00000000000000000006000E001EEE
:1002C00000360026000600060006000600060006AE
:1002D0000006000600060000000000000000001EEE
:1002E000003F807380618061800100030006000C84
:1002F000001800300060807F807F00000000000058
:100300000000001C003E006300630003000E000EAE
:1003100000038001800180618073003F001E0000A7
:100320000000000000000006000E000E001E001E6F
:100330000016003600360066807F807F00060006CB
:1003400000060000000000000000007F007F006049
:1003500000600060006E007F80638001800180612A
:100360008073003F001E0000000000000000001E1F
:10037000003F803380610060006E007F8073806189
:10038000806180618033003F001E0000000000009B
:100390000000807F807F80010003000300060006CC
:1003A000000C000C000C00080018001800180000D9
:1003B000000000000000001E003F8063806180613B
:1003C0000021001E003F8061806180618061003FEC
:1003D000001E0000000000000000001E003F00732F
:1003E0008061806180618073803F801D80018061B9
:1003F0000073003F001E000000000000000000002D
:10040000000000000000000C000C000000000000D4
:10041000000000000000000C000C000000000000C4
:10042000000000000000000000000000000C000CB4
:1004300000000000000000000000000C000C0004A0
:10044000000400080000000000000000800080039D
:10045000000E003800600038000E800380000000AD
:10046000000000000000000000000000000000008C
:100470000000807F807F00000000807F807F000080
:10048000000000000000000000000000000000006C
:100490000000000000400070001C00078001000701
:1004A000001C007000400000000000000000000080
:1004B0000000001F803FC071C060C000C001800309
:1004C0000007000E000C000C0000000C000C0000E7
:1004D000000000000000001E003F8031807180633A
:1004E000806F806D806D806F806700600032003E9D
:1004F000001C0000000000000000000E000E001BA9
:10050000001B001B001B80318031803F803F803109
:10051000C060C060C0600000000000000000007CFF
:10052000007E0063006300630063007E007E006362
:10053000806180618063007F007E00000000000019
:100540000000001E003F803180610060006000609C
:1005500000600060006080618031003F001E00008C
:10056000000000000000007C007F00638063806169
:100570008061806180618061806100630063007ED2
:10058000007C0000000000000000807F807F006091
:10059000006000600060007F007F0060006000601D
:1005A0000060807F807F0000000000000000807FEE
:1005B000807F0060006000600060007F007F00605E
:1005C000006000600060006000600000000000004B
:1005D0000000001E003F803180610060006000600C
:1005E00080638063806180618031803F001E0000F5
:1005F0000000000000008061806180618061806196
:100600008061807F807F80618061806180618061A6
:1006100080610000000000000000003F003F000C6F
:10062000000C000C000C000C000C000C000C000C6A
:10063000000C003F003F00000000000000008001AF
:1006400080018001800180018001800180018001A2
:10065000806180618073003F001E00000000000088
:100660000000C0608061006300660066006C007876
:10067000007C00660066006380618061C0600000ED
:10068000000000000000006000600060006000608A
:100690000060006000600060006000600060807FBB
:1006A000807F0000000000000000C071C071C07BAE
:1006B000C07AC06AC06AC06EC064C060C060C060FA
:1006C000C060C060C06000000000000000008071D9
:1006D0008071807980798079806D806D806D806592
:1006E000806780678067806380630000000000008F
:1006F0000000001E003F00338061806180618061E6
:1007000080618061806180610033003F001E0000D5
:10071000000000000000007E007F80638061806137
:1007200080618063007F007E006000600060006088
:1007300000600000000000000000001E003F0033C9
:100740008061806180618061806180618065806797
:100750000033803F401E0000000000000000007ECB
:10076000007F8063806180618063007F007E00661F
:100770000063006380618061C060000000000000D1
:100780000000000E001F8031803100300038001E54
:1007900000078003806180618031003F001E0000FF
:1007A000000000000000C0FFC0FF000C000C000CA7
:1007B000000C000C000C000C000C000C000C000CD9
:1007C000000C00000000000000008061806180617A
:1007D0008061806180618061806180618061806111
:1007E0008073003F001E0000000000000000C06099
:1007F000C060C060803180318031001B001B001B55
:10080000001B000E000E000E00040000000000009F
:100810000000C0C0C0C0C0C0C0C0C0C0C0CC804C00
:10082000804C805E805280528073806180610000C5
:10083000000000000000C0C0806080610033003B09
:10084000001E000C000C001E001F003B8071806128
:10085000C0C00000000000000000C0C080618061D6
:1008600000330033001E001E000C000C000C000CB6
:10087000000C000C000C0000000000000000803F95
:10088000803F8001000300030006000C000C0018EC
:10089000001800300060807F807F000000000000B2
:1008A000000F000F000C000C000C000C000C000CE2
:1008B000000C000C000C000C000C000C000C000CD8
:1008C000000F000F0000001800180018000C000CAA
:1008D000000C000C000600060006000600030003E2
:1008E0000003000000000000001E001E00060006BD
:1008F00000060006000600060006000600060006C8
:100900000006000600060006001E001E0000000C87
:10091000000C001E00120033003380618061000073
:1009200000000000000000000000000000000000C7
:1009300000000000000000000000000000000000B7
:1009400000000000000000000000000000000000A7
:10095000E0FF0000000000380018000C000000005C
:100960000000000000000000000000000000000087
:100970000000000000000000000000000000000077
:100980000000001F803F80618001801F803F8061E8
:100990008063807FC038000000000000000000601D
:1009A000006000600060006E007F80738061806185
:1009B000806180618073007F006E00000000000095
:1009C00000000000000000000000001E003F8073D7
:1009D00080610060006080618073003F001E000045
:1009E0000000000000008001800180018001801D66
:1009F000803F807380618061806180618073803F0F
:100A0000801D000000000000000000000000000049
:100A10000000001E003F00738061807F807F0060C7
:100A20008071003F001E0000000000000000C007B1
:100A3000C00F000C000C807F807F000C000C000CAD
:100A4000000C000C000C000C000C0000000000006A
:100A50000000000000000000801D803F8073806166
:100A60008061806180618073803F801D8001806330
:100A7000007F003E00000060006000600060006FCA
:100A8000807F807180618061806180618061806130
:100A90008061000000000000000000060006000069
:100AA0000000003E003E00060006000600060006AC
:100AB0000006000600060000000000000006000618
:100AC00000000000003E003E000600060006000692
:100AD000000600060006000600060046007E003CF8
:100AE00000000060006000600060806100630066DC
:100AF000006C007C0076006300638061C0600000D1
:100B0000000000000000003E003E00060006000657
:100B100000060006000600060006000600060006A5
:100B200000060000000000000000000000000000BF
:100B3000000080DDC0FFC0CEC0CCC0CCC0CCC0CCDB
:100B4000C0CCC0CCC0CC0000000000000000000001
:100B5000000000000000006F807F80718061806174
:100B60008061806180618061806100000000000020
:100B700000000000000000000000001E003F807325
:100B800080618061806180618073003F001E000091
:100B9000000000000000000000000000006E007F68
:100BA000807380618061806180618073007F006EEE
:100BB00000600060006000600000000000000000B5
:100BC000801D803F8073806180618061806180735F
:100BD000803F801D800180018001800100000000B5
:100BE0000000000000000067803F00390030003046
:100BF0000030003000300030003000000000000005
:100C000000000000000000000000001E803F806126
:100C10000060007F803F80018061007F001E000037
:100C20000000000000000000000800180018007F0D
:100C3000007F001800180018001800180018801F06
:100C4000800F000000000000000000000000000015
:100C5000000080618061806180618061806180616D
:100C60008063807F803D00000000000000000000E5
:100C7000000000000000C060803180318031001B26
:100C8000001B001B000E000E00060000000000000C
:100C90000000000000000000000080DD80DD80DD3D
:100CA0000055005500550077007700220022000013
:100CB0000000000000000000000000000000806153
:100CC00000330033001E000C000C001E0033003304
:100CD0008061000000000000000000000000000033
:100CE00080618061803100330033001B001B001BDA
:100CF000000E000E000E001C007C007000000000C2
:100D0000000000000000C07FC07F800100030006DB
:100D1000000C00180030C07FC07F00000000000001
:100D20008003800700060006000600060006000E8D
:100D3000001C001C000E000600060006000600064F
:100D40008007800300060006000600060006000675
:100D50000006000600060006000600060006000663
:100D600000060006000600060038003C000C000CDF
:100D7000000C000C000C000E00070007000E000C19
:100D8000000C000C000C000C003C003800000000BF
:100D9000000000000000000000008038807F004755
:100DA0000000000000000000000000000000000043
:100DB0000000000E000E001B001B001B001B8031FA
:100DC0008031803F803F8031C060C060C0600000E3
:100DD000000000000000007F007F006000600060F5
:100DE0000060007E007E0063806180618063007F20
:100DF000007C0000000000000000007C007E00631A
:100E0000006300630063007E007E00638061806198
:100E10008063007F007E0000000000000000007F73
:100E2000007F0060006000600060006000600060A3
:100E300000600060006000600060000000000000D2
:100E40000000803F803F80318031803180318031AF
:100E500080318031803180318031E0FFE0FF60C03F
:100E6000000000000000807F807F00600060006064
:100E70000060007F007F0060006000600060807F95
:100E8000807F000000000000000060C4C064C064F7
:100E900080358035001F001F001F001F8035803502
:100EA000C064C06460C40000000000000000003C9A
:100EB000007E0003000300030003007E007E0003A9
:100EC000800180018003007F003E000000000000E0
:100ED0000000806180618061806180638067806FD5
:100EE000807D807980718061806180618061000097
:100EF00000000000000C806D806180618061806373
:100F00008067806F807D8079807180618061806181
:100F100080610000000000000000C060806100638C
:100F200000660066006C0078007C00660066006366
:100F300080618061C0600000000000000000C03FD0
:100F4000C03FC030C030C030C030C030C030C03012
:100F5000C030C030C030C0F0C0F000000000000061
:100F60000000C071C071C07BC07AC06AC06AC06E28
:100F7000C064C060C060C060C060C060C06000008D
:100F800000000000000080618061806180618061FC
:100F90008061807F807F806180618061806180610D
:100FA00080610000000000000000001E003F0033D0
:100FB0008061806180618061806180618061806129
:100FC0000033003F001E0000000000000000C07F52
:100FD000C07FC060C060C060C060C060C060C060F2
:100FE000C060C060C060C060C06000000000000061
:100FF0000000007E007F806380618061806180638B
:10100000007F007E00600060006000600060000003
:10101000000000000000001E003F80318061006081
:101020000060006000600060006080618031003F0F
:10103000001E0000000000000000C0FFC0FF000C08
:10104000000C000C000C000C000C000C000C000C40
:10105000000C000C000C0000000000000000C0C0EC
:101060008061806100330033001F001E000E000EFF
:10107000000C001C0038007000E0000000000000C0
:1010800000000004001F8035C064C06460C460C4F8
:10109000C064C0648035001F000400040004000028
:1010A000000000000000C0C0806080610033003B91
:1010B000001E000C000C001E001F003B80718061B0
:1010C000C0C00000000000000000C060C060C06040
:1010D000C060C060C060C060C060C060C060C06010
:1010E000C060C07FC07F60006000000000008061C1
:1010F00080618061806180618061807F803F80014C
:10110000800180018001C001C001000000000000DA
:101110000000C0CCC0CCC0CCC0CCC0CCC0CCC0CCFB
:10112000C0CCC0CCC0CCC0CCC0CCC0FFC0FF000085
:10113000000000000000C0CCC0CCC0CCC0CCC0CCF3
:10114000C0CCC0CCC0CCC0CCC0CCC0CCC0CCC0FF0C
:10115000C0FF6000600000000000003F003F000C86
:10116000000C000C000C000C000C000C000C000C1F
:10117000000C003F003F0000000000000000003FA6
:10118000003F000C000C000C000C000C000C000CCC
:10119000000C000C000C003F003F000000000000AD
:1011A00000000030003000300030003C003F0033D1
:1011B0008031C030C030C0318033003F003E00007D
:1011C0000000000000000078001E0007800380017E
:1011D0008001807F807F8001800180030007001EE6
:1011E0000078000000000000000000C780CD80CD26
:1011F000C0D8C0D8C0F0C0F0C0F0C0D8C0D8C0CCF3
:1012000080CD80CD00C70000000000000000801FDE
:10121000807F806180C180C180C18061807F801FAC
:10122000800F80198031806180C1000000000000C3
:1012300000000000000000000000001F803F8061EF
:101240008001801F803F80618063807FC038000004
:101250000000000000000000000000000001003F4E
:10126000007F0060007E007F806180618061007F80
:10127000003E000000000000000000000000000030
:101280000000003E007F0061007E007F8061806181
:101290008061007F003E00000000000000000000B0
:1012A000000000000000007F007F00600060006020
:1012B000006000600060006000600000000000004E
:1012C00000000000000000000000807F807F80613F
:1012D000806180618061806180618061C0FFC0FF4A
:1012E000C0C0000000000000000000000000001E60
:1012F000003F00738061807F807F00608071003FCD
:10130000001E0000000000000000000000000000BF
:10131000000060C4C0648035001F000E001F8035CF
:10132000C06460C4208400000000000000000000D1
:10133000000000000000003E003F0001003E003FB2
:10134000800180018001003F003E0000000000009D
:1013500000000000000000000000806180618061EA
:1013600080638067806D807980718061806100001A
:1013700000000000000000000000000C000C806174
:101380008061806180638067806D80798071806119
:10139000806100000000000000000000000000006C
:1013A0000000806100630066006C007C00760063D2
:1013B00000638061C06000000000000000000000C9
:1013C000000000000000803F803F8031803180318C
:1013D00080318031803180F180F100000000000018
:1013E0000000000000000000000060C0E0E0E0F14C
:1013F00060DB60CE60C460C460C060C060C00000DC
:1014000000000000000000000000000000008061FB
:10141000806180618061807F807F80618061806188
:1014200080610000000000000000000000000000DB
:101430000000001E003F80738061806180618061D8
:101440008073003F001E000000000000000000004C
:10145000000000000000807F807F806180618061EB
:101460008061806180618061806100000000000017
:101470000000000000000000006E007F80738061AB
:101480008061806180618073007F006E0060006019
:101490000060006000000000000000000000001E6E
:1014A000003F807380610060006080618073003F56
:1014B000001E00000000000000000000000000000E
:1014C0000000807F807F000C000C000C000C000CE2
:1014D000000C000C000C00000000000000000000E8
:1014E000000000000000C060C06080318019000F63
:1014F00000070006000E000C00380000000000008D
:1015000000000000000000000000000C807FC0CC44
:10151000408C408CC0CC807F000C000C000C000084
:1015200000000000000000000000000000008061DA
:1015300000330033001E000C000C001E003300338B
:1015400080610000000000000000000000000000BA
:101550000000806180618061806180618061806164
:101560008061807F807F800100000000000000001B
:101570000000000000008061806180618061807FE8
:10158000807F80018001C001C001000000000000D8
:1015900000000000000000000000C0CCC0CCC0CCA7
:1015A000C0CCC0CCC0CCC0CCC0CCC0FFC0FF000001
:1015B0000000000000000000000000000000C0CC9F
:1015C000C0CCC0CCC0CCC0CCC0CCC0CCC0CCC0FF88
:1015D000E0FF6000000000000000000600060000C0
:1015E0000000003E003E0006000600060006000661
:1015F00000060006000600000000000000000006D3
:10160000000600000000003E003E00060006000646
:1016100000060006000600060006000000000000AC
:10162000000000000000000000000060006000609A
:10163000006E007F806380618063007F006E000029
:101640000000000000000000000000000000001E7C
:10165000003F80038001803F803F80018003003F86
:10166000001E00000000000000000000000000005C
:10167000000000C380C7C0CC60D860F860F860D8B4
:10168000E0CC80C700C300000000000000000000A4
:10169000000000000000801F803180618061806157
:1016A0008031801F800780198061000000000000E9
:1016B0001027E80364000A00010000100001100078
:1016C0000100000002020202FFFFC607C60706175C
:1016D00012171C1723172D173A1742174A175217BC
:1016E0005817601769177217761781178D17971794
:1016F0009E17A517AA17AF17B517FF1E5AFF0202AC
:1017000002020B125400D2E5ECEFE5F0E0F2F3F048
:10171000E000C2EBE0E6EDEEF1F2FC00D2E0E9EC35
:10172000E5F000CDE0F1F2F0EEE9EAE800C2F0E524
:10173000ECFF20E820C4E0F2E000C7E0E4E0EDE8E0
:10174000E500CEF2EAEBEEED2E00C3E8F1F2E5F0B3
:101750002E00D0E5E6E8EC00C2EAEBFEF7E5ED008E
:10176000C2FBEAEBFEF7E5ED00D0E0E7ECE5F0EDDB
:101770002E00D8E0E300CAEEF0E5EAF6E8FF20D25A
:1017800000CAEEF0E5EAF6E8FF20C2EB00C4E0F2A2
:10179000F7E8EA20C2EB00D0E5E7E5F0E200ECE88C
:1017A000EDF3F2FB00F7E0F1FB00E4E5EDFC00EC0B
:1017B000E5F1FFF600E3EEE4002D002B00C2DBCFE5
:1017C000CECBCDDFDE2020C7C0CFC8D1DC00CFEE2E
:1017D000E2FBF2F0FF00C3F0F3EDF200D3EFF0E034
:1017E000E2EB00CDE0EBE0F8F200253032783A256C
:1017F000303278202020253032782E253032782E55
:1018000032302530327800CFEEECE8EBEAE020F71A
:10181000E0F1FBE221005B2532752E25755D00F2BB
:10182000E5ECEFE5F0E0F2F3F0E0002A2A2E2A00E2
:101830002532752E2575005B25337525255D00E263
:10184000EEEBEEE3FBF1F2FC002A2A2A2525002527
:10185000337525252000434F3220EFEEECE8EBEA0C
:10186000E020ECEEE4F3EBFF2100434F3220202098
:101870002534750070706D00434F3220ECEEE4F3B8
:10188000EBFC20E2FBE4F1F3F2EDFBE92E00F0CDFE
:1018900020EFEEECE8EBEAE020ECEEE4F3EBFF21E6
:1018A00000F0CD2020202532752E257500EEE4E8CD
:1018B000EDE8F6FC00F0CD2020ECEEE4F3EBFC20AC
:1018C000E2FBE4F1F3F2EDFBE92E00D1D2C0CD2032
:1018D000C3D0D3CDD2D300E4E0F2F7E8EA202575F7
:1018E00000D1D2C0CD20D3CFD0C0C2CBDBCDCDDF95
:1018F00000D0C5CBC520204E25753A2000C0C2D2ED
:10190000004F4E20004F464600C2C8D5DBC4204ED3
:1019100025753A2000D0D3D7002025337525252002
:10192000007777772E6772617669746F6E2E636FBA
:101930006D2E756100D0EEE7F3ECEDE000F2E5EF1F
:10194000EBE8F6FF00C4E0F2F7E8EAFBE220F2E59C
:10195000ECEFE5F0E0F2F3F0E820257500C4E0F2EA
:10196000F7E8EA20E2EEEBEEE3EEF1F2FB2025757C
:101970000000070001002D4E414E00494E46000078
:1019800002000200C2160400BC03C4160200C40315
:10199000C8160200C603CA160200CA03CC16040009
:1019A000F403FA160400F803FE160400630302179A
:1019B00002006002B91702006202BB171100640244
:1019C000BD1711007502BD1711008602BD170C006E
:1019D00097021F180A00A3023F181400AD02561800
:1019E0000400C10274181600C50278181300DB0247
:1019F0008E180800EE02AD181600F602B5180C009D
:101A00000C03CB1810001803E11804002803FD187C
:101A100004002C03011904003003051904003403E9
:101A2000FD1804003803151914003C03211908009F
:101A300050033519080058033D190100620372195B
:101A40000100690474190000F894EE27ECBBF1E082
:101A5000FBBFEBBFE5BF8DE0A2E0BB27ED938A950E
:101A6000E9F780E098E0A0E6ED930197E9F7E0E878
:101A7000F9E185919591009761F0A591B591059057
:101A80001590BF01F00105900D920197E1F7FB0160
:101A9000F0CFEFE5EDBFE8E0EEBFC0E6D2E00C949A
:101AA000771D0E94D421DC98DD98DF9ADE98000033
:101AB000DE9A99C40E94D421DD9ADE980000DE9A55
:101AC00092C4BA93AA93AAE203C0BA93AA93ABE2D0
:101AD000E8DF0E94E4210E94EB21DC9A249608951D
:101AE000BA93AA930E94F221AC81BD81EADFEC8116
:101AF000FD81FA93EA93AA81BB810E94F72128967F
:101B00000895BA93AA93A885B985A034E1E0BE07E9
:101B100030F4AE81BF81A03FE0E0BE0708F0AEC068
:101B20000E94FC21AE0FBF1F1197A034E1E0BE0759
:101B300040F0A885B985E0E4F1E0EA1BFB0BEC83FB
:101B4000FD83EA81FB81AE81BF81AE0FBF1F11977C
:101B5000A03FE0E0BE0740F0AE81BF81E0EFF0E0E3
:101B6000EA1BFB0BEA83FB830E9401220E940122F5
:101B70000E940622BA93AA930E940622B1DFEA814C
:101B8000FB81EE83FF83AE81BF810E944427B8F4BE
:101B9000EC81FD81E887F987A885B9850E944427F3
:101BA00040F40E94EB21E885F9853197E887F987B1
:101BB000F3CFEE81FF813197EE83FF83E4CF5EC0E8
:101BC0000E940E22EE81FF81AA85BB85AE0FBF1F4A
:101BD00078DF0E94F221A885B9850E94F72100E0F4
:101BE00010E0EC81FD810E171F0728F40E94E4210C
:101BF0000F5F1F4FF6CFDC9A198108813FC00E940A
:101C00000E22AA85BB855DDF0E94F221EE81FF8155
:101C1000A885B985AE0FBF1F0E94F72100E010E034
:101C2000EC81FD810E171F0728F40E94E4210F5F4D
:101C30001F4FF6CFDC9A1981088120C0BA93AA936E
:101C40000E9401220E9401220E9401220E9413226E
:101C50000E94FC210E9418220E9413220E9401224D
:101C60000E94F221AE81BF81CADF0E94FC210E9446
:101C700018220E94F221AE81BF81C1DF2A96089509
:101C8000AA932C97E0E0E887E987EA87EB87EA895F
:101C9000A885B9858A859B85FF27662777270E94B7
:101CA000482708F04EC0AD89A03210F0AF3708F0D9
:101CB00004C0ED89F0E0B09704C0ED89F0E0E15692
:101CC000F040DF01EA89F0E00E947826A885B98516
:101CD000EA0FFB1FAB89BC890E941D220E94F726D8
:101CE0000E942222E0E00E940A27E9890E9429221C
:101CF000FF27662777270E944827B0F4E881AC8148
:101D0000BD818E819F810E942C26F07829F00E944F
:101D10002C22AF89B88D04C00E942C22AD89BE89C7
:101D2000F0DE0E944D22E1CFE885F9856A857B854A
:101D3000EF5FFF4F6F4F7F4FE887F9876A877B8799
:101D4000A6CF6A960895AA93E881E03011F4E1E005
:101D5000E883A985BA85EC91E03009F458C0ED819B
:101D6000F0E0AD85BE85AE0FBF1FA034E1E0BE0739
:101D700020F1E0E0ED87EE87AE81BB27E881F0E05F
:101D80000E947826AB85BC85EA0FFB1FEB87FC879A
:101D9000EE81F0E0AB85BC85AE0FBF1FA03FE0E059
:101DA000BE07A8F5A985BA85AC91A03231F4E985C2
:101DB000FA853196E987FA87CCCFED85FE85FA93CF
:101DC000EA93ED85FE85FA93EA93AD85BE85EC91A5
:101DD000EA93EA85FB856C857D850E940F270E942A
:101DE00056220E945622AD854BDFAD81BB27E8818C
:101DF000F0E00E947826AD85BE85EA0FFB1FED87D7
:101E0000FE87E985FA853196E987FA87A2CF2F9672
:101E10000895EAB3E46FEABBEAB3E360EABBEBB36D
:101E2000E06FEBBBE4B3EC6FE4BBE5B3E370E5BBA1
:101E30000895BA93AA93EA81FB81AC81BD81AE1764
:101E4000BF0708F445C5EC81FD81A881B981AE17B3
:101E5000BF0718F4E881F9813BC5EC81FD8138C5E5
:101E6000BA93AA932897E0E0E883E983EA83EB83B7
:101E7000EC83ED83EE83EF830E945B22EA17FB077E
:101E800090F40E945B22EA27FB27E88BF98B0E94E3
:101E90005B22EA27FB27EE87FF870E945B22EA2767
:101EA000FB27E88BF98B0E946022EA17FB0790F46E
:101EB0000E946022EA27FB27EC87FD870E946022B0
:101EC000EA27FB27EA87FB870E946022EA27FB2795
:101ED000EC87FD87E889F9890E946522E88BF98BF8
:101EE000EE85FF850E946522EE87FF870E945622BD
:101EF0000E947122EC87FD87EA85FB85FA93EA93BD
:101F00000E947122EA87FB87A889B989EE85FF853F
:101F1000EA1BFB0B31960E942222AC85BD85EA8527
:101F2000FB85EA1BFB0B3196AC81BD818E819F81C5
:101F3000662777270E945826EC83FD836E837F8374
:101F4000E889F989FA93EA93A889B989BADD0E94E8
:101F50005622AC85BD850E94F721E0E00E940A2749
:101F6000EC81FD816E817F810E9429220E94482799
:101F700040F4A9859FDDE885AE2F9CDD0E944D22AF
:101F8000EFCFDC9A62960895DA9AA1E0B0E00E9461
:101F90003525A1E00E947B22A2E3B0E00E94352516
:101FA000A8E20E947B22A0EC7CDDA3E283DDA1EC11
:101FB00078DDA0E17FDDA5EC74DDABE27BDDABE29B
:101FC00079DDA7EC6EDDA0EC75DDA6E36ADDA8E2A5
:101FD00071DDEFE3F1E0E093C003F093C103EFEEB6
:101FE000F0E0E093C203F093C3030E9480220E94BA
:101FF000852267DD0E9480220E948A2266DDAAE394
:1020000050DDA5E557DDA1EB0E947B22ABE152DD5F
:10201000A7EB47DDA7E04EDDA1E10E947B22A6E908
:10202000B0E00E943525A9E20E947B22A4EFB1E036
:102030000E94352508951A930A9310E000E0E6B750
:10204000E07859F41F5F193C38F0E0E0E0B9E6BFF2
:1020500001E0E4E6E0B901C0F2CFE02F0991199167
:102060000895BA93AA930E94542711E0E4EA0E94CB
:102070008F2211F010E081C0E1B1E87FE83011F06B
:1020800010E07BC0EA850E94942211F010E075C038
:10209000E1B1E87FE83111F010E06FC0EA85E07F40
:1020A000E03A99F4E885F9850E9446261E2F13B977
:1020B00011E0E4E80E948F2211F010E05EC0E1B16F
:1020C000E87FE83211F010E058C0E8850E949422C1
:1020D00011F010E052C0E1B1E87FE83211F010E0F9
:1020E0004CC0E4EA0E948F2211F010E046C0E1B13A
:1020F000E87FE03111F010E040C0EA85EF5F0E9418
:10210000942211F010E039C0E1B1E87FE03411F021
:1021100010E033C0AC81BD811297FCF020E030E0CC
:10212000EC81FD8131972E173F07BCF4E4EC0E944F
:102130008F2211F010E021C0E1B1E87FE03511F00D
:1021400010E01BC0AE81BF811196AE83BF83119793
:10215000E3B1EC932F5F3F4FE3CFE4E80E948F227F
:1021600011F010E00AC0E1B1E87FE83511F010E0AD
:1021700004C0E3B1AE81BF81EC93E4E9E6BFE12F97
:102180000E945B27B6C1AA931A930A9301E0E4EA7E
:10219000E6BFE6B7E078E9F3E1B1E87FE83011F0B7
:1021A00000E047C0EF81E3B9E4E8E6BFE6B7E078D6
:1021B000E9F3E1B1E87FE83111F000E03AC0EF81E6
:1021C000E07FE03A91F4ED81FE810E9446260E2FD9
:1021D00003B901E0E4E8E6BFE6B7E078E9F3E1B18E
:1021E000E87FE83211F000E024C0ED81E3B9E4E8D3
:1021F000E6BFE6B7E078E9F3E1B1E87FE83211F055
:1022000000E017C010E0EA811E1798F4AB81BC8192
:10221000ED91AB83BC83E3B9E4E8E6BFE6B7E078D1
:10222000E9F3E1B1E87FE83211F000E002C01F5F9E
:10223000EACFE4E9E6BFE02F19810881B6C21A931C
:1022400010E0C098B89A25FE02C0AEE101C0AAE035
:10225000B0E00E943525B89880EF90E00197F1F743
:10226000B09913C0B09902C01F5FFCCF1A3010F4B0
:10227000E0E00CC010E0B09B02C01F5FFCCF1A3042
:1022800010F4E0E003C0E1E001C0E0E0199108953E
:1022900025970E94522730E0D2DFE03009F492C047
:1022A00010E0153028F50E949722E0E0EC9300E062
:1022B0000830E0F40E949722EC91EE0FEC93F89432
:1022C000B09902C03F5FFCCF8BEA8A95F1F730E00E
:1022D000B09B02C03F5FFCCF3B3028F00E949722AA
:1022E000EC91E160EC9378940F5FE2CF1F5FD9CF60
:1022F000EF81AE81EA0FA885EA0FA985EA0F3E2F8C
:10230000EA85E31709F054C025FE08C0AE81EAE073
:10231000EA9FA001A885EA9FF0010FC0AE810E944C
:102320009E22EF81F0E0EA0FFB1FAF01A8850E941B
:102330009E22E985F0E0EA0FFB1FE093C603F093CD
:10234000C703E091C803F091C903A091C603B091FF
:10235000C703EA0FFB1FE093C603F093C703DA013C
:10236000EAE0F0E00E9482260E94A522E091CC03E0
:10237000F091CD030E94AA22EA0FFB1F0E94A52222
:10238000E0E0E093FC030E94AA22A536E0E0BE074D
:102390001CF0E4E6F0E006C00E94AA22119734F493
:1023A000E1E0F0E0E093CA03F093CB03E1E09FC0EB
:1023B000A091FC03AF5FA093FC03A43010F0E0E019
:1023C00096C002C0E0E093C092C0AA93E881E064A6
:1023D000E883E7B985E38A95F1F7369A349BFECF17
:1023E000349AE4B1F5B121960895AA9322970E94F8
:1023F0005227EA85F0E0E430A0E0FA0729F40E94D1
:10240000AF220E94412617C0E330A0E0FA0739F45A
:102410000E948522E3E0F0E00E9482260CC0E230B8
:10242000A0E0FA0731F40E94AF22F695E795E95053
:1024300003C0E091C003E6502E2FA885A43110F40C
:10244000E4E1E887E885F0E00E948A22AE1BBF0B3A
:102450001497AE83BF8330E000E0E9850E17D8F50E
:1024600044E050E010E0EA851E1750F5A6E03A9FE0
:10247000F001E75FFB4FBF01A12FBB27E22FF0E088
:1024800035960E947826E40FF51FDB01ED93FC934F
:10249000A6E03A9FF001E35FFB4F20833A9FF001F3
:1024A000E25FFB4FA885A083A6E03A9FF001E55FBD
:1024B000FB4FAE81BF81A083B1833F5F1F5FD3CF4E
:1024C000E885F0E03596AE81BF81AE1BBF0BAE83D1
:1024D000BF830F5FC2CFEE81FF81E0930504F093CD
:1024E0000604E985AA85EA02F001E093FD030E9453
:1024F00059272B960895BA93AA9322970E945227A0
:102500000E94B422E35FFB4F408155270E94B42212
:102510000E94B922EE83FF830E94B422E75FFB4F43
:10252000008111810E94B422E55FFB4F208131813F
:102530000E94BE22AF89B88DE4DA0E94BE22AD8926
:10254000BE897CDBDA010E94C522E00FF11FFF93F8
:10255000EF93A885B9850E94C721A5E0B0E00E944D
:102560005026AF91BF91AE1BBF0B8D01AE81BF81D5
:102570000E94C522E20FF31F38979F010E94CA22D2
:10258000EA85FB850E94CF221A930A933A932A93F5
:102590000E94CA220E94D622ED89FE89FA93EA930C
:1025A000EB8DFC8D0E94E1220E94592761960895CF
:1025B000BA93AA932497E985F0E0AA85BB850E9487
:1025C000E622662777270E94EB22EE81F0E0AC81BD
:1025D000BD810E94E6220E942922662777270E9459
:1025E0007D260E94EB22E985F0E0AF81B8850E944C
:1025F000E6220E942922662777270E94BF260E9492
:10260000EB22EE81F0E00E9429220E944B260E94DC
:102610001B260E94EB22E881F9812C960895AA934B
:102620000E9454270E94EE22E75FFB4F0081118138
:102630000E94EE220E94F322E00FF11F33979F01C8
:10264000AF81B885A017B1071CF02A173B0714F417
:10265000E0E019C00E94EE22E55FFB4F008111818E
:102660000E94EE220E94B922E00FF11F33979F01D2
:10267000AD81BE81A017B1071CF02A173B0714F4E7
:10268000E0E001C0E1E00E945B27299608952497CD
:102690000E945427A69AAE98A79AAF9AD698DE9829
:1026A000D598DD98A6E091DE9F01A5E08EDE2E1B79
:1026B0003F0BEFEFF3E0E21BF30B9F0120930304CA
:1026C00030930404283CE0E03E071CF4A2DBE0E089
:1026D0006AC0D698DE98A798AF98A69AAE9AD59A6F
:1026E000DD9810E0123060F40E94F822FF93EF931F
:1026F000A6E06BDEAF91BF91ED93FC931F5FF2CF2D
:102700000E94FD222530E0E03E075CF70E9408238E
:10271000E093FF03F0930004A698AE98D598DD9857
:10272000D69ADE9AA79AAF9810E0123060F40E9411
:10273000F822FF93EF93A5E048DEAF91BF91ED93B0
:10274000FC931F5FF2CF0E94FD222530E0E03E07A0
:102750005CF70E940823AFEFB3E0AE1BBF0BA09362
:102760000104B093020455DB0E940F23EDE7EA93C6
:10277000EBE8F3E00E9416230E94852219DFE09324
:10278000FF03F09300040E941B23E2E8EA93E7EAC8
:10279000F3E00E9416230E948A220ADFE0930104DC
:1027A000F0930204E1E00E945B2728960895AA9323
:1027B0001A9310E0E9811E1750F40E940F230E9423
:1027C0001B23A12F2CDFE03011F41F5FF3CFE98131
:1027D0001E1710F4E4E15E2EE12F9BC00E945227E9
:1027E00040E030E0391508F06FC00E943F25A5E5B4
:1027F0000E948825A9E03A9FF001E656FC4F0E940E
:10280000222320E0283038F40E942723A0810E9450
:1028100088252F5FF7CFE4EEF3E00E942223AEEB92
:102820000E94882520E0283058F40E942723FF9337
:10283000EF930E948325AF91BF91EC932F5FF3CF6D
:102840000E9483255E2FE4EEF3E00E942223E091B4
:10285000DC03F091DD03FA93EA93A8E00E940126DD
:102860005E1701F540E00091E4031091E5031123A8
:1028700052F4F8010E9420268F010E9430238F011C
:102880000E94202602C00E9430238F01A091E603FF
:10289000AA3A39F4E091E703F0E0E7FDFFEF0E0F0D
:1028A0001F1F06C04F5F433018F006EC17E040E0F2
:1028B000E32FAEEDB3E0F0E00E941D220083118310
:1028C000403009F43F5F8ECF0E943B230E9459277E
:1028D00026960895AA931A9310E0A981AA3028F0A9
:1028E0001F5FE981EA50E983F8CFE12FE295E07FAD
:1028F000A981EA2B0EC0AA931A9310E0E981E07F28
:10290000F0E00E943826AAE0EA02102DE981EF707B
:10291000E10F188122960895AA931A9313E0E42DEB
:10292000F0E0309739F40E94432318F44980E1E045
:102930006E2EF1C4E130A0E0FA0761F40E94432357
:1029400018F44980E1E06E2EE3E0E41511F4E6E0CE
:102950004E2EE1C4E230A0E0FA0761F40E94432366
:1029600018F44980E1E06E2EE3E0E41511F4E7E0AD
:102970004E2ED1C4E330A0E0FA0779F5E981F0E00A
:10298000309711F4442424C0E130A0E0FA0759F450
:10299000A0916803A150A0936803A0301CF4E0E06C
:1029A000E093680317C0E230A0E0FA0759F4A09161
:1029B0006803AF5FA0936803A5301CF0E4E0E093E8
:1029C000680308C0E330A0E0FA0721F4E4E04E2EEB
:1029D000E1E06E2EEAE0E9839EC4E430A0E0FA076D
:1029E00009F0C9C0A0916803A43009F41F5FE98110
:1029F000F0E0309729F4E3E04E2EE1E06E2EB8C00F
:102A0000E130A0E0FA0739F40E9448231CF4E0E02A
:102A1000E0936903ADC0E230A0E0FA0769F40E94D8
:102A20004F23E12FB0E0A7FDBFEFF0E0EA17FB076F
:102A300014F4109369039CC0E330A0E0FA0709F096
:102A400097C0E5E04E2EE1E06E2E0E94552391F4F2
:102A5000E0E0E983A981A43060F40E945C230F01C7
:102A6000E981A0E0B0E00E946123E981EF5FE983A2
:102A7000F1CF7EC0E130A0E0FA07D1F4E0E0E983D5
:102A8000A981A430A0F422FE06C00E945C230F019D
:102A9000A8E0B0E005C00E945C230F01A0E1B0E017
:102AA000E9810E946123E981EF5FE983E9CF60C09A
:102AB000E230A0E0FA0791F4E0E0E983A981A430D4
:102AC00060F40E945C230F01A8E1B0E0E9810E945C
:102AD0006123E981EF5FE983F1CF4AC0E330A0E0F1
:102AE000FA0791F4E0E0E983A981A43060F40E9440
:102AF0005C230F01A0E2B0E0E9810E946123E9813B
:102B0000EF5FE983F1CF34C0E430A0E0FA0781F54C
:102B1000E0E0E983A981A23098F40E945C23FF934E
:102B2000EF93E981F0E0EA54FC4FA081E4DEAF913D
:102B3000BF91F0E0ED93FC93E981EF5FE983EACF89
:102B4000E2E0E983A981A53098F40E945C23FF9319
:102B5000EF93E981F0E0E954FC4FA081CCDEAF9126
:102B6000BF91F0E0ED93FC93E981EF5FE983EACF59
:102B7000EAE0E983D0C3E530A0E0FA0709F0B3C288
:102B8000E981F0E0309709F4A7C2E130A0E0FA074C
:102B900009F02AC10E946C230E9476230E945523CB
:102BA00009F042C00E947C2379F40E946C230E94A9
:102BB000F326E13BA4E0FA0734F00E946C23E0EB3B
:102BC000F4E0ED93FC932FC0E130A0E0FA0779F434
:102BD0000E946C230E94F326E53FA1E0FA0734F03F
:102BE0000E946C23E4EFF1E0ED93FC931CC0E23013
:102BF000A0E0FA0751F40E946C230E94832324F082
:102C00000E946C230E9489230EC0E330A0E0FA07E3
:102C100051F40E946C230E94F326329724F00E9404
:102C20006C230E948E23DFC0E130A0E0FA0709F098
:102C300084C022FE40C00E947C2351F40E946C2379
:102C40000E94832324F00E946C230E94892332C0B7
:102C5000E130A0E0FA0779F40E946C230E94F32689
:102C6000EB35A0E0FA0734F00E946C23EAE5F0E0CF
:102C7000ED93FC931FC0E230A0E0FA0769F40E94D4
:102C80006C230E94F326F39734F00E946C23E2E356
:102C9000F0E0ED93FC930EC0E330A0E0FA0751F4AE
:102CA0000E946C230E94F326329724F00E946C232A
:102CB0000E948E2341C00E947C2379F40E946C23E1
:102CC0000E94F326E13BA4E0FA0734F00E946C2353
:102CD000E0EBF4E0ED93FC932FC0E130A0E0FA07C5
:102CE00079F40E946C230E94F326E53FA1E0FA07E5
:102CF00034F00E946C23E4EFF1E0ED93FC931CC0F0
:102D0000E230A0E0FA0751F40E946C230E94832372
:102D100024F00E946C230E9489230EC0E330A0E0BF
:102D2000FA0751F40E946C230E94F326329724F094
:102D30000E946C230E948E2356C0E230A0E0FA0766
:102D400009F042C00E947C2379F40E946C230E9407
:102D5000F326E131AEE0FA0734F00E946C23E0E1A3
:102D6000FEE0ED93FC932FC0E130A0E0FA0779F488
:102D70000E946C230E94F326E131AEE0FA0734F0A2
:102D80000E946C23E0E1FEE0ED93FC931CC0E23076
:102D9000A0E0FA0759F40E946C230E94F3263297B0
:102DA00024F00E946C230E948E230DC0E330A0E02B
:102DB000FA0749F40E946C230E94832324F00E94A6
:102DC0006C230E9489230FC0E330A0E0FA0721F4AE
:102DD0000E947C2301F007C0E430A0E0FA0719F458
:102DE0000E947C2301F07CC1E230A0E0FA0709F0E8
:102DF000D5C00E946C230E9493230E94552309F0A2
:102E00003FC00E947C2379F40E946C230E94F32629
:102E1000EC30AEEFFA0734F40E946C23ECE0FEEFE6
:102E2000ED93FC932CC0E130A0E0FA0759F40E9426
:102E30006C230E94F326319724F40E946C230E9495
:102E40008E231DC0E230A0E0FA0759F40E946C23E3
:102E50000E94F326319724F40E946C230E948E2353
:102E60000EC0E330A0E0FA0751F40E946C230E94E8
:102E7000F326FF2322F40E946C230E9499238DC025
:102E8000E130A0E0FA07E9F50E947C2369F40E9492
:102E90006C230E94F3263A9734F40E946C23EAE0F4
:102EA000F0E0ED93FC932CC0E130A0E0FA0759F478
:102EB0000E946C230E94F326319724F40E946C2315
:102EC0000E948E231DC0E230A0E0FA0759F40E9450
:102ED0006C230E94F326319724F40E946C230E94F5
:102EE0008E230EC0E330A0E0FA0751F40E946C2359
:102EF0000E94F326FF2322F40E946C230E94992350
:102F00004CC0E230A0E0FA07D9F50E947C2359F4C6
:102F10000E946C230E94F326319724F40E946C23B4
:102F20000E948E232CC0E130A0E0FA0759F40E94E1
:102F30006C230E94F326319724F40E946C230E9494
:102F40008E231DC0E230A0E0FA0759F40E946C23E2
:102F50000E94F326FF2322F40E946C230E949923EF
:102F60000EC0E330A0E0FA0751F40E946C230E94E7
:102F7000F326319724F40E946C230E948E230DC007
:102F8000E330A0E0FA0719F40E947C2306C0E43085
:102F9000A0E0FA0711F40E947C23A2C0E330A0E075
:102FA000FA0709F09DC00E9480220E949E230E9481
:102FB000A223E4E6F2E00E94B7230E94BA230E9413
:102FC000552369F4E0916903A0E0B0E0F0E00E94CD
:102FD0001D220F010E946C230E94C32379C0E1309F
:102FE000A0E0FA0791F422FE03C0A8E0B0E002C01E
:102FF000A0E1B0E0E0916903F0E00E941D220F0122
:103000000E946C230E94C32363C0E230A0E0FA0751
:1030100069F4A8E1B0E0E0916903F0E00E941D22AC
:103020000F010E946C230E94C32352C0E330A0E032
:10303000FA0769F4A0E2B0E0E0916903F0E00E94D1
:103040001D220F010E946C230E94C32341C0E43063
:10305000A0E0FA07E9F5E0E0E983A981A23078F47D
:10306000E981F0E0EA54FC4FFF93EF930E94C923FB
:10307000AF91BF91EC93E981EF5FE983EECFE2E09E
:10308000E983A981A53078F4E981F0E0E954FC4FA7
:10309000FF93EF930E94C923AF91BF91EC93E98115
:1030A000EF5FE983EECFE0916903E03019F4E0E0EF
:1030B000E093B503E0EDEA930E948022E5EBF3E0B4
:1030C000FA93EA93A7E00E94C3100E944D2721F8CB
:1030D000A4EFB1E00E943525E4E04E2EE1E06E2E33
:1030E000EAE0E98318C1E630A0E0FA07C9F5E98112
:1030F000F0E0309721F4E1E04E2E6E2E2EC0E1304C
:10310000A0E0FA0739F40E9448231CF4E0E0E093C1
:10311000690323C0E230A0E0FA0741F40E944F2384
:10312000A4301CF0E3E0E093690317C0E330A0E0B3
:10313000FA0799F4E8E04E2EE1E06E2EE0E0E98334
:10314000A981A43050F40E94D423EC50FC4F0E947B
:10315000DF23E981EF5FE983F3CFEAE0E983DBC0B6
:10316000E730A0E0FA07D1F5E981F0E0309729F4E3
:10317000E2E04E2EE1E06E2E2EC0E130A0E0FA0734
:1031800039F40E9448231CF4E0E0E093690323C073
:10319000E230A0E0FA0741F40E944F23A4301CF073
:1031A000E3E0E093690317C0E330A0E0FA0799F485
:1031B000E9E04E2EE1E06E2EE0E0E983A981A43043
:1031C00050F40E94D423E850FC4F0E94DF23E98191
:1031D000EF5FE983F3CFEAE0E9839DC0E830A0E048
:1031E000FA0709F049C0E981F0E03097F1F1E130E8
:1031F000A0E0FA0769F40E946C230E947623E5366A
:10320000A0E0FA0724F00E946C230E94892331C0B9
:10321000E230A0E0FA0779F40E946C230E94932325
:10322000EF3FAFEFFA0734F40E946C23EFEFFFEFAC
:10323000ED93FC931EC0E330A0E0FA07D1F40E94A6
:1032400080220E949E230E94A223E5E7F2E00E94D2
:10325000B7230E94BA23E0916903F0E0EC50FC4FE1
:103260000F010E946C230E94E623E6E04E2EE1E06F
:103270006E2EEAE0E9834FC0E930A0E0FA0709F0DA
:1032800047C0E981F0E0309711F4E6E03BC0E1305F
:10329000A0E0FA0769F40E946C230E94762333971A
:1032A00034F00E946C23E2E0F0E0ED93FC932DC03B
:1032B000E230A0E0FA0759F40E946C230E949323A5
:1032C000FF2322F40E946C230E9499231EC0E33046
:1032D000A0E0FA07D1F40E9480220E949E230E945F
:1032E000A223E6E8F2E00E94B7230E94BA23E0910D
:1032F0006903F0E0E850FC4F0F010E946C230E942C
:10330000E623E7E04E2EE1E06E2EEAE0E98303C01B
:103310004424E1E06E2E18811DC0BA93AA93A981BE
:10332000AA2342F4E881F9810E942026E883F983E8
:10333000EDE201C0E0E2AE2EA881B981EAE0F0E062
:103340000E94C426CE2EA881B981EAE0F0E00E9456
:103350009526DE2E229608951A9310E098D9E03033
:1033600069F0A091FD0323DA1E2FE091FD031E17E3
:1033700010F4712E03C0E4E67E2E10E0E12F1991C7
:10338000089522970E94522720E03AEF4FEF5FEF17
:10339000662009F166240E9480220E949E230E94DA
:1033A000ED230E94FD23E0E0EA930E9404240E94A2
:1033B00080220E9480220E9408240E940D240E94E4
:1033C00080220E9408240E9414240E9480220E94CD
:1033D00008240E941B24E3E08E2E21FE3EC0E0ED77
:1033E000EA930E948022E5EBF3E0FA93EA93A7E0E8
:1033F000B0E00E9431100E94CA22EAEEF7E1FA938F
:10340000EA93E091B7030E942124E091B6030E9461
:103410002124E091B9030E942124E091BA030E9483
:103420002124E091BB030E94212484E10E94072013
:1034300068960E9427240E94D6220E9408240E9497
:103440008022A1E00E94A30E0E9427240E94D6227F
:103450000E948022EFEFFFEF18C00E94CA22E7E02F
:10346000F8E10E94CF220E9427240E94D6220E94C7
:1034700030240E94E1220E9427240E94D622EFEFEE
:10348000F7E0FA93EA93EFE1F0E0FA93EA93A1E030
:103490000E94A30E0E94372409F0FBC2A0E0B0E016
:1034A0000E941B270E943D24E6E1F8E10E9444248B
:1034B000EC2D0E9421240E9448240E944D24359620
:1034C0000E9454240E94D6220E9457240E944D2418
:1034D0007996FA93EA93E7E9F2E00E94B7230E9413
:1034E0005724A091C603B091C703A33EE4E0BE07F2
:1034F0003CF00E94CA22EBE2F8E10E94CF220FC00A
:10350000E091C603F091C7030E943D24E0E3F8E197
:103510000E944424EC2D0E9421240E944824ECE8BF
:10352000F0E00E945E240E9454240E94D6220E9451
:103530006324E091BC03F0E0309739F0E130A0E083
:10354000FA0719F4EFEFF7E002C0EFE1F8EFEE83CE
:10355000FF83E8E1F1E00E945E240E946A24E7E331
:103560008E0EFADEE03009F094C20E94CA22E7E330
:10357000F8E1FA93EA93A8E0B0E00E941B270E94CA
:1035800079240E944D2435960E9454240E94D6220C
:103590000E9457240E944D247996FA93EA93E3EA15
:1035A000F2E00E94B7230E9457240E94AA22A53667
:1035B000E0E0BE072CF00E94CA22E9E4F8E104C072
:1035C0000E94CA22EFE4F8E1FA93EA93E091CA0379
:1035D000F091CB030E947924EEE8F0E00E945E2493
:1035E0000E9454240E94D6220E946324E091BD03CD
:1035F000F0E0309739F0E130A0E0FA0719F4EFEF8E
:10360000F7E002C0EFE1F8EFEE83FF83E8E1F1E0DD
:103610000E945E240E946A249FDEE03009F039C2D5
:10362000E7E38E0E26FE3BC0E0916703E87069F089
:103630000E948224FA93EA93EDEAF2E00E94B72313
:103640000E943024FA93EA9326C00E94CA22EAE636
:10365000F8E1FA93EA93E091CE03F091CF030E9450
:103660007924E4E1F0E00E945E240E9454240E9448
:10367000D6220E948524A2E00E94A30EEAEFF0E089
:103680000E945E243A96FA93EA93E1ECF2E00E94FB
:10369000B7230E948524A1E00E94A30E0AC00E94C5
:1036A0008224FA93EA93E5ECF2E00E94B7230E94A9
:1036B0005724E3E28E0E24FE3EC0E0916703E870DB
:1036C00069F00E948224FA93EA93EBEDF2E00E9403
:1036D000B7230E943024FA93EA9329C0E091D003E3
:1036E000F091D1030E943D24E1EAF8E10E944424D4
:1036F000EC2D0E9421240E944824E4E1F0E00E9485
:103700005E240E9454240E94D6220E948524A2E0B6
:103710000E94A30EE6EEF0E00E945E243A96FA9331
:10372000EA93EEEEF2E00E94B7230E948524A1E026
:103730000E94A30E0AC00E948224FA93EA93E6EF45
:10374000F2E00E94B7230E94572406DEE03009F021
:10375000A0C19FC122970E94522701E020EF32E0D2
:103760004FEF5FEFE7E08E2E662009F44AC0662433
:103770000E9480220E949E230E94ED230E948A24A0
:103780000E948A240E948F240E94AC240E94B124AB
:103790000E948022EFEFFFEF0E9416230E94042474
:1037A0000E94FD230E940D240E9480220E94082472
:1037B0000E9414240E9480220E9408240E941B243C
:1037C0000E94B7240E94C0240E94C9240E94CF24D2
:1037D0000E94D9240E94C9240E94B7240E94E32495
:1037E000FA93EA93DA010E94E00DE4E6F0E00E9429
:1037F0005E24FA93EA93ECE0F3E00E94B7230E9480
:103800005724E4E18E0E10E0191508F047C00E941D
:10381000CA22E7EDF8E10E94EF240E944D243C9675
:103820000E9454240E94D6220E945724E12FAEED1C
:10383000B3E0F0E0EE0FFF1FAE0FBF1F0E94F524B4
:10384000A33EE4E0BE0738F00E94CA22EBE2F8E1B2
:103850000E94CF220EC0AE81BF815FDD0E94CA22CE
:10386000E0E3F8E10E944424EC2D0E9421240E9410
:103870004824E8E7F0E00E945E240E9454240E945D
:10388000D6220E948524A2E00E94A30EE3E28E0EBF
:1038900063DDE03009F0FDC01F5FB6CFFAC02297AC
:1038A0000E94522702E02FEE3BE74FEF5FEFE7E089
:1038B0008E2E662009F450C066240E9480220E9449
:1038C0009E230E94ED230E948A240E948A240E9443
:1038D0008F240E94AC240E94B1240E948022EFEF2A
:1038E000FFEF0E9416230E9404240E9480220E945F
:1038F00080220E940824E1E0EA93A6EDB7E10E944D
:103900007B120E94FD230E9414240E9480220E94A8
:1039100008240E941B240E94B7240E94C0240E94F5
:10392000C9240E94CF240E94D9240E94C9240E9445
:10393000B7240E94E324FA93EA93DA010E94E00D8F
:10394000EAE5F0E00E945E24FA93EA93E8E1F3E00E
:103950000E94B7230E945724E4E18E0E10E0143039
:1039600008F056C00E94CA22E1EFF8E10E94EF245D
:10397000E12FF0E0E850FC4FE081F0E0E7FDFFEFE1
:10398000E230A0E0FA0729F40E94CA22A8E2B3E0DC
:103990000FC0E130A0E0FA0729F40E94CA22ACE28D
:1039A000B3E006C0309731F40E94CA22A0E3B3E02E
:1039B0000E94AA210E944D240E9454240E94D622D3
:1039C0000E945724E12FF0E0E659FC4FE081E030FF
:1039D00019F0EFE1F0E002C0EFEFFFEFEE83FF83BD
:1039E000E6E9F0E00E945E24FA93EA93EDE2F0E06B
:1039F000FA93EA93E2E1F0E0FA93EA93AE85BF85A9
:103A00000E94810D0E94372409F043C01F5FA7CF99
:103A100010E01430F0F50E94CA22E9E0F9E10E94BA
:103A2000EF24E12FF0E0EC50FC4FA081AF3F29F4F0
:103A30000E94CA22A4E3B3E004C00E94CA22A8E301
:103A4000B3E00E94AA21E1E5F4E0FA93EA93E9E108
:103A5000F9E1FA93EA93E12FF0E0E259FC4FE081BB
:103A60000E94212484E00E94072028960E94CA22F6
:103A7000A1E5B4E00E94AA210E944D240E94542492
:103A80000E94D6220E9457240E94372411F41F5FFF
:103A9000C0CF0E94592728960895E42DF0E0309772
:103AA00061F0E130A0E0FA0711F454DE07C0E23023
:103AB000A0E0FA0711F4F3DE01C063DC0895AA93D5
:103AC000BA93EA93FA93EFB7EA93ABE5B4E00E94B6
:103AD0007623E991EFBFF991E991B991A9911895F0
:103AE000EA93EFB7689420F8EFBFE9911895E0E00A
:103AF000E2BBE1BBEFBDE5E0EEBDE0E0EDBDECBD5E
:103B0000EBB7E064EBBFE2E0E5BFE0E0E4BFE0E498
:103B1000EABFE4E0E9BFE0E0EBB9E8EDEAB9E6E8E6
:103B2000E0BDE0E0E0BDE7E6E9B9E0E8E8B9E0E003
:103B3000E0BFE8E4E0B9E0E0E2B9E4E4E6BFE0E0F9
:103B4000E1B9E0E4E7B9E4E8E6B9A0E2B0E00E9458
:103B50001B27E093C803F093C903A2E2B0E00E94E0
:103B60001B27E093CC03F093CD03A4E2B0E00E94C6
:103B70001F270E944D2725F8A8EEB3E00E943525A7
:103B80000E9448110E944D2722F8E0EFEA93AAE92B
:103B9000B3E00E9492259E2E0E94FC24AE0FBF1F10
:103BA000149734F0E0E022FCE1E0A3E0AE1B9A2E93
:103BB000992011F00E943B23E0E0E093B503E093ED
:103BC000B603E0EDEA93EEE0F0E0FA93EA93E5EB7A
:103BD000F3E0FA93EA93A2E00E94C3100E944D27FB
:103BE00021F878940E94090F0E94C40F0E9480223D
:103BF0000E949E23E091C203F091C303FA93EA93DB
:103C0000A091C403B091C5030E94300FEAE08E2E4C
:103C1000ECE3F0E00E945E24FA93EA93ECE3F3E035
:103C20000E94B7230E9480220E9403250E94E12265
:103C30000E940825FA93EA93E0E5F3E00E94B72397
:103C40000E9480220E940D250E940825FA93EA9383
:103C5000E8E5F3E00E94B7230E9480220E940D2530
:103C6000EDE28E0E0E94CA22E5E4F9E1FA93EA93AE
:103C70000E94FC24EA0FFB1F0E9479240E948224E8
:103C80000E9454240E94D6220E9480220E94032572
:103C90000E94E122E4E18E0E0E94CA22EDE5F9E1E4
:103CA000FA93EA93E0E022FCE1E00E94212484E020
:103CB0000E94072028960E9482240E9454240E9479
:103CC000D6220E9480220E9403250E94E122E1E088
:103CD0006E2E0E94EE1320FE1DC0E89420F899205D
:103CE00011F00E94EE1322FE15C00E944811E03030
:103CF00019F0E3E0BE2E0EC0BB2011F0BA940AC04A
:103D0000ECE6F7E0E093C603F093C703EEEBF0E0D8
:103D10000E94A522E4E6E71529F0A72D0E948C1445
:103D2000E4E67E2EBADED7CFFFCFBA93AA931A93DA
:103D30000A93AA81BB8112960E94F326309729F13B
:103D4000AA81BB8114960E94F3268F01309761F0FF
:103D50000230E0E01E0780F0F80131978F01AA8160
:103D6000BB811496ED93FC93AA81BB8112960E94AD
:103D700076233197AC81A083AA81BB810E94F32670
:103D8000FF2312F00E94762306C0AA81BB81EFEFC9
:103D9000FFEFED93FC931981088125960895BA935E
:103DA000AA9326970E94522710E0AC85BD850E94F9
:103DB0009923EA89FB893196EA8BFB8B3197E49151
:103DC0002E2FE03009F41BC1E12FE03039F4253209
:103DD00011F411E002C00E94132510C1E130A9F4D2
:103DE000253219F40E94132508C112E040E000E0DA
:103DF0002D3211F401E002C12B3211F44BE2FEC06E
:103E0000203211F440E2FAC002C0E23039F450E04E
:103E100013E0203311F40068F1C003C0E33009F06F
:103E2000EDC0203310F02A3308F007C0AAE05A9FF3
:103E3000502DE22FE0535E0FE1C0E22FE33649F44C
:103E40000E941A25E889F989A481AA930E94202555
:103E5000D4C0E33759F40E941A25A889B989149669
:103E60000E94F5240E94BB211E2F0DC0E03779F47B
:103E70000E941A25A889B98914960E94F5240E94E7
:103E8000C7211E2F086002600F7730E034C0E4368F
:103E900011F0E93611F4046002C0E53731F4E0EBCB
:103EA000F6E1EE83FF8315E00CC0E83511F40860FD
:103EB00003C0E83709F0A1C0EAEBF6E1EE83FF8327
:103EC00014E002FF14C00E941A250E942625AB852B
:103ED000AA233AF4EA85FB850E942026EA87FB871D
:103EE0004DE2403011F01F5F01C00B7F04C00E9403
:103EF0001A250E94262500FD11C0151778F407FF2A
:103F000008C002FF04C00B7F242F115001C020E322
:103F100001C020E20E9413255150EFCF312F01FF45
:103F200017C03030A1F003FF06C0EE81FF8125915C
:103F3000EE83FF8305C0AE81BF812D91AE83BF8329
:103F40000E941325503009F051503150EACF4BC038
:103F500020E3EE81FF810E94F726E887F987EE8152
:103F6000FF813296EE83FF83E885F985AA85BB85BC
:103F7000AE17BF0750F02F5FA885B985EA85FB858E
:103F8000EA1BFB0BEA87FB87EFCF2A3328F003FFFE
:103F900002C0295F01C0295D04FD1AC0213320F44D
:103FA000A885B985119709F409C0531710F000FFCF
:103FB00001C013C020E207FF0BC020E3006102FF35
:103FC00007C00B7F4A930E942025503009F05150C2
:103FD0000E941325503009F051503150A885B98501
:103FE000129708F0B5CF00FF08C0503031F05150A3
:103FF000E0E2EA930E942025F8CF10E0DACEAC850B
:10400000BD850E94F3260E94592764960895FF9269
:10401000F82E26970E9454270E942E25309719F4D7
:10402000EFEFFFEF23C0DE0116960E9417268D01E9
:104030000E942E25EE83FF83E0E0E887E987DE011A
:104040001A960E9417260E94F326FA93EA931A936F
:104050000A93E5E9FEE1FA93EA93DE011A969FDE00
:104060009F01AE81BF81E0E0EC93F9010E945B27E4
:104070002A96FF9008950A921A92FA926A937A9376
:104080008A939A93AA93BA93EA93FA93EFB7EA932F
:104090000E945227109161030091600330916004E7
:1040A00020916203E12FA0916104B0916204F0E0DD
:1040B000EA0FFB1FAF01E1B1E87FE83011F420E027
:1040C00002C0E03119F4E0915D0410C0E83111F054
:1040D000E83221F5031780F4E02F0F5FA0915E0412
:1040E000B0915F04F0E0AE0FBF1FEC91E3B9E6B70B
:1040F000EF70E068E6BF11C0E09163041E1760F442
:10410000E0915D04E160E0935D04E89430F8E6B787
:10411000EF70E06AE6BFFBC033C0F9C0E03529F4B8
:10412000E3B1DA01EC931F5F02C0E03471F4E09177
:104130006304E1501E1720F0E6B7EF70E06803C09B
:10414000E6B7EF70E06CE6BFE2C0E83529F4E3B112
:10415000DA01EC931F5F02C0E03209F402C0E033E1
:1041600009F402C0E83469F4203051F430FE03C091
:10417000031728F005C0E09163041E1708F424E03B
:10418000C0C0E83329F422E0E6B7EF70E068BCC0B5
:10419000E83611F0E83711F422E005C0E03611F0FE
:1041A000E03791F420E010E0E89430F8E091640406
:1041B000E03029F421E0E6B7EF70E06803C0E6B72D
:1041C000EF70E06CE6BFA3C0E03811F0E03929F5EC
:1041D00030FE02C021E095C0E3B1DA01EC931F5F2D
:1041E000E09164041E17B0F4E0916504F091660458
:1041F000309711F426E085C0A0E0E0916504F091CD
:1042000066040995E03029F0E6B7EF70E06CE6BF90
:104210007EC002C0689430F802C0E83809F402C0D9
:10422000E83929F4E6B7EF70E068E6BF70C0E03A1D
:10423000A9F4E6B7EF70E06CE6BF689431F8E0915E
:104240006504F0916604309739F0A1E0E0916504CF
:10425000F0916604099501C026E059C0E03B11F4D5
:1042600022E002C0E83AB9F4E0916704F0916804F2
:10427000309759F0A0E0E0916704F0916804099547
:104280003E2FE03011F020E002C026E03AC000E00E
:10429000E89430F802C0E83BE1F430FE02C021E0CF
:1042A00030C0E02F0F5FA0915E04B0915F04F0E09A
:1042B000AE0FBF1FEC91E3B9031720F4E6B7EF7020
:1042C000E06C05C0689430F8E6B7EF70E068E6BFD0
:1042D0001EC0E03C11F0E83C89F4E6B7EF70E06CFA
:1042E000E6BFE0916704F0916804309731F0A1E0F7
:1042F000E0916704F0916804099507C0E03039F453
:1043000023E0E6B7EF70E06DE6BF689431F81093F4
:1043100061030093600320936203309360040E9462
:1043200059272696E991EFBFF991E991B991A991A1
:104330009991899179916991F990199009901895BD
:10434000BA93AA93E991F99130971AF4E095F09510
:1043500031960895BA93AA93E991F991A991B991E7
:10436000CD016D916623E9F7119761916D936623F5
:10437000E1F7FC010895BA93AA93A991B991EE27A8
:10438000FF276D91662311F03196FBCF0895BA9304
:10439000AA93AA27BB27E991F9910590002011F073
:1043A0001196FBCFFD010895AA93EBB3EC7FAE2FDE
:1043B000E881E370EA2BEBBBE5B3E370AE2FE88155
:1043C000EC7FEA2BE5BB0895AB810E945A0DEA8190
:1043D000AE2F0C945A0DA9810E945A0DE881AE2F80
:1043E0000C945A0DEE81FF81FA93EA9308950E948E
:1043F000650DACE20C94510DEC81FD81A885B98569
:104400000895E885F985FA93EA930895E885F98592
:10441000AC85BD85AE0FBF1F11970895BA93AA93BF
:104420001A930A93EECFAE81BF810E94E00DE9CFCF
:10443000EA0FFB1FFA93EA93E4CFEE0FFF1FEA0F98
:10444000FB1F089566277727EC83FD836E837F83A8
:1044500008950E9400270895EC85F0E0A881B981B5
:104460000E945026A88DB98DEA0FFB1FFA93EA939C
:10447000EE85F0E0AA85BB850E945026A88DB98DF7
:10448000EA0FFB1FFA93EA93E889F0E0FA93EA93C4
:10449000EA89F0E0FA93EA9308950E94FB26EF5F21
:1044A000FF4F6F4F7F4F0E9405270895EC85FD85D4
:1044B000FA93EA930895EE85FF85A889B98908954E
:1044C000EA85FB85AC85BD850895FA93EA93E0E023
:1044D000F0E0FA93EA93A091C003B091C1030C9469
:1044E000190FE0E0F0E0FA93EA93A091C203B091D3
:1044F000C3030C94190F0E94510DA0E00C945A0DA7
:10450000E0E0F0E0FA93EA930895A091C003B0913F
:10451000C1030895A091C203B091C3030895E6BFFB
:104520000E941B10E0300895E3B9E4E8F8CFE12FD2
:10453000F0E0DE011696AE0FBF1F0895B0E0E0E098
:10454000F1E00E947826DF010895E093CA03F0931A
:10455000CB030895A091CA03B091CB030895E091D5
:10456000C003F091C1030895EA85A6E0EA9FF00137
:104570000895E25FFB4FE081F0E008951A930A93FB
:104580003A932A935A934A9391CFE2E0F0E00E9443
:1045900095260895E2E7F3E0FA93EA930895FA93F3
:1045A000EA9380E00E94072024960895E091630337
:1045B000F091640360916503709166030E940F2778
:1045C0000895FA93EA93A1E00C94A30E0E94142795
:1045D000EA1BFB0B08950E9405270895EC81A6E0D5
:1045E000EA9FF0010895E35FFB4FE081F0E008955A
:1045F000E12FF0E0DE01149620CFAE81BF81EC8187
:10460000FD81EA1BFB0BDF010E94A0219F010895A1
:10461000EE81FF81AC81BD81AE0FBF1FB6CFE091AF
:10462000FF03F0910004FA93EA930895FA93EA9352
:10463000E0E0EA930895E0910104F0910204FA9316
:10464000EA930895E093DC03F093DD030895ACED65
:10465000B3E0ED91FD913196FE93EE93319708957D
:10466000F801AAE0B0E00E947826DF01E0E1F0E086
:104670000E94952608950E943F25ACEC0E94882553
:10468000A4E40C948825E091FD03A981AE17089558
:10469000A0916903A150A0936903A0300895A0914F
:1046A0006903AF5FA09369030895E0916803F0E0A8
:1046B000E7FDFFEF30970895E981A2EDB3E0F0E068
:1046C000BCCEF0E0EE0FFF1FAE0FBF1F0E941B27F6
:1046D000D001ED93FC930895E0916903A2EDB3E05E
:1046E000F0E0EE0FFF1FAE0FBF1F0895ED91FD919B
:1046F0003196FE93EE930895E0916903F0E0E7FDB3
:10470000FFEF309708950E94F326E536A0E0FA0700
:104710000895E4E6F0E0ED93FC930895E1E0F0E025
:10472000ED93FC930895ED91FD913197FE93EE93F7
:104730000895E0E0F0E0ED93FC93089510DFFA9324
:10474000EA93DECEE091C203F091C303FA93EA93B9
:10475000A091C403B091C5030E94300FE5E0F0E0E2
:10476000FA93EA93E4E6F0E0FA93EA930895FA9371
:10477000EA931CCFEFE1F8EFFA93EA93E091C403D8
:10478000F091C5031ECF0E94F326D0010E942B2773
:104790000895E981A2EDB3E0F0E0EE0FFF1FAE0F48
:1047A000BF1FAC910C946A14E981A2EDB3E0F0E074
:1047B000EE0FFF1FAE0FBF1FE981F0E00895E0810B
:1047C000F0E0E7FDFFEFED93FC930895EC91D0014D
:1047D000EC93A8EEB3E00C943525E091C203F09180
:1047E000C303FA93EA93D9010E94300FE4E0EA93FD
:1047F000E1E0EA93A9E10C94F5113A932A933A93F4
:104800002A935A934A930895AEECB7E10C947B1225
:10481000EFEFFFEFFA93EA930895E1E0EA93A6ED54
:10482000B7E10E947B126CCEE2E0EA93ACEDB7E117
:104830000E947B1265CEE3E0EA93A3EEB7E10C940D
:104840007B12FF27662777270E940F270895E6E44B
:10485000F0E0FA93EA93E82DF0E0FA93EA939ACE27
:10486000EFE1F0E0FA93EA93EFEFF7E00895E6E185
:104870008E0E0E94AC19E0300895EE83FF83AE8166
:10488000BF810E948D1986CEFA93EA93ED2DD9CF80
:1048900088E00E9407202C960895E5E0F0E0FA9366
:1048A000EA93E82DF0E00895FA93EA9373CE5A93D1
:1048B0004A933A932A93A1E00C94A30EFA93EA93B5
:1048C000E82DF0E008955A934A933A932A93A3E08F
:1048D0000C94A30E3296FA93EA93EEE1F0E0FA9389
:1048E000EA93EDE2F0E0FA93EA93AE85BF850C948B
:1048F000810D0E944B260E940F2784E00E94072012
:1049000028960895EAE0F0E0D9CF5A934A933A9373
:104910002A930895E2E0F0E0FA93EA9308951FDE07
:104920003597FA93EA93EEECF0E0FA93EA93DA0122
:104930000E941E0EA6E00A9FF001BF01E75FFB4F39
:10494000DF010E94F3263397FA93EA93E8ECF0E054
:10495000FA93EA93F00147CE3396FA93EA93FB0178
:1049600008CEFA93EA93D9010E94810DC9CDA6E041
:104970000A9FF001E75FFB4FDF010E94F3260895D5
:104980003297FA93EA93E0EDF0E0FA93EA93F001BC
:10499000F0CD3596FA93EA93DA010C94FF0DA6E078
:1049A0000A9FF001DF01E75FFB4F60817181FD012C
:1049B0001ACEE60FF71FFA93EA93E0EDF0E0FA93D0
:1049C000EA93F001D6CD3197FA93EA93E091C203CE
:1049D000F091C3033297FA93EA93F00104CEFA936D
:1049E000EA93E12FF0E0319684CF0E94F326EE8324
:1049F000FF83AE81BF810895A92DBB27E0E022FC93
:104A0000E1E0F0E00895E091C403F091C50308955A
:104A1000EEE18E0EE0E5F0E051CFF5DFFA93EA9398
:104A2000A2E00C94A30E2A93AD85BE85EF85F8898C
:104A300009950895E889F9893497E88BF98B0895E9
:104A4000AD85BE85EF85F88909950895A889B9894E
:104A500014960E94F326EA87FB870895DE011C96D0
:104A60000E9417260E94F3260895109639F080EAD6
:104A70009FE00197F1F7A8951197C9F70895EE27E0
:104A8000C498BC9A80E897E00197F1F7BC988BE452
:104A90008A95F1F7B49B089580E391E00197F1F7CF
:104AA000B49BE1E088E196E00197F1F70895BC9AA4
:104AB0008BE08A95F1F7BC988BE38A95F1F788949F
:104AC000B4990894E79580E491E00197F1F708958F
:104AD000E894BC9A8BE08A95F1F770FDBC9885E468
:104AE0008A95F1F7B49903C070FF03C0089570FF71
:104AF00008958CE291E00197F1F7BC988BE18A95DB
:104B0000F1F76894089568E0D2DF6A95E9F70895AF
:104B10007A2F68E0EE27DCDF26F477956A95D9F7DF
:104B2000E39508954F935F9311244427012C11249A
:104B3000A6DFEE2301F1AF93A881EADFAF9151E048
:104B4000501598F4B4DFE7FD08C0B1DFE7FD06C0FB
:104B50003FD0892319F4152E01C0A9DF39D089234C
:104B600070E009F071E0B4DF1EC0A1DFE7FF0BC009
:104B70009EDFE7FF05C0E42F5F914F9121960895D6
:104B8000689437D0EFCF93DFE7FF01C003C0501523
:104B900031F0152EE8942DD077279ADF04C0689461
:104BA00028D071E095DF5395513454F280DFEE1F29
:104BB000EE1FE1701896EC93189743951120D9F2E7
:104BC00059E0EC911996EC9318975A95D1F7AECF1E
:104BD000E52FEA956E2FE695E695E695FF27EA0F15
:104BE000FB1F808191E0677019F0990F6A95FCCFE7
:104BF0000895EEDF1EF09095892301C0892B8083F4
:104C00000895EE27AA2389F08A2F68E1A881B98147
:104C100098E0FD917F2F7E27779508F4E627E795AA
:104C2000F6959A95B9F78A9599F7229608950024F2
:104C3000AF0DB01D0895EA0FFB1F681F791F08957F
:104C4000F195E195F0400895F09560957095E195A6
:104C5000FF4F6F4F7F4F0895EE230E2EFD01BC01D5
:104C600031F0EE0FFF1F661F771F0A94D1F70895EA
:104C7000F595E795F595E795F595E795F595E7951C
:104C80000895F695E795F695E7950895EF2FFF2798
:104C9000E7FDFFEF08956F2F660F660B762F0895DF
:104CA000FA9FF02DEB9FF00DEA9FE02DF10D089596
:104CB0007A9F702D6B9F700DF89F700DE99F700D9E
:104CC0006A9F602D710DFB9F600D711DE89F600D47
:104CD000711D8827FA9FF02D610D781FEB9FF00D55
:104CE000611D781FEA9FE02DF10D681F781F089560
:104CF00059D0D6DF0EF4A4DF089562D0D9DF0EF4C8
:104D0000A3DF08950024112490E1AA0FBB1F001C0B
:104D1000111C0E1A1F0A18F40E0E1F1E01C0A160EE
:104D20009A9599F7FD01D00108953CD0EBDF0EF480
:104D300087DF08953F934F935F9300241124442706
:104D4000552730E2AA0FBB1F881F991F001C111C9A
:104D5000441F551F0E1A1F0A460B570B28F40E0E40
:104D60001F1E461F571F01C0A1603A9559F7FD014C
:104D7000BC01D001CA015F914F913F91089520D0AD
:104D8000D9DF0EF461DF0895E894B7FF04C0A09561
:104D9000B09511966894F7FD53DFB4DFFD010EF472
:104DA0004FDF0895E894F7FF02C04ADF6894B7FF29
:104DB00006C0A095B095119600F8039400FA0895E6
:104DC000E89477FF02C040DF689497FF0BC000248F
:104DD000A095B095809590951196801D901D00F836
:104DE000039400FA0895ED91FC91119708950590B0
:104DF000F491E02D0895E881F9816A817B8108951D
:104E0000A881B9818A819B810895E883F9836A83A7
:104E10007B830895E883E983EA83EB8308957A939B
:104E20006A93FA93EA9308951B2EBF2FF12D1A2E41
:104E3000AE2FE12D0895119602D0FE2F1197E19922
:104E4000FECFFF93FFB7F894AEBBBFBBE09AEDB3C4
:104E5000FFBFFF91089507D01196EF93EF2F03D076
:104E6000EF9111970895E19B02C0A895FCCF9FB7E1
:104E7000F894AEBBBFBBE09A8DB3E81719F0EDBB59
:104E8000E29AE19A9FBF089500240A160B0608953E
:104E9000AE17BF07860797070895E894EE2309F039
:104EA000689408955A934A933A932A931A930A93CB
:104EB00008955D814C813B812A8119810881089583
:00000001FF
